{
	"contracts/CryptoKids..sol": {
		"CryptoKids": {
			"abi": [
				{
					"inputs": [],
					"stateMutability": "nonpayable",
					"type": "constructor"
				},
				{
					"inputs": [
						{
							"internalType": "address payable",
							"name": "walletAddress",
							"type": "address"
						},
						{
							"internalType": "string",
							"name": "firstName",
							"type": "string"
						},
						{
							"internalType": "string",
							"name": "lastName",
							"type": "string"
						},
						{
							"internalType": "uint256",
							"name": "releaseTime",
							"type": "uint256"
						},
						{
							"internalType": "uint256",
							"name": "ammount",
							"type": "uint256"
						},
						{
							"internalType": "bool",
							"name": "canWithdraw",
							"type": "bool"
						}
					],
					"name": "addKid",
					"outputs": [],
					"stateMutability": "nonpayable",
					"type": "function"
				},
				{
					"inputs": [
						{
							"internalType": "address",
							"name": "walletAddress",
							"type": "address"
						}
					],
					"name": "availableToWithdraw",
					"outputs": [
						{
							"internalType": "bool",
							"name": "",
							"type": "bool"
						}
					],
					"stateMutability": "nonpayable",
					"type": "function"
				},
				{
					"inputs": [],
					"name": "balanceOf",
					"outputs": [
						{
							"internalType": "uint256",
							"name": "",
							"type": "uint256"
						}
					],
					"stateMutability": "view",
					"type": "function"
				},
				{
					"inputs": [
						{
							"internalType": "address",
							"name": "walletAddress",
							"type": "address"
						}
					],
					"name": "diposit",
					"outputs": [],
					"stateMutability": "payable",
					"type": "function"
				},
				{
					"inputs": [
						{
							"internalType": "uint256",
							"name": "",
							"type": "uint256"
						}
					],
					"name": "kids",
					"outputs": [
						{
							"internalType": "address payable",
							"name": "walletAddress",
							"type": "address"
						},
						{
							"internalType": "string",
							"name": "firstName",
							"type": "string"
						},
						{
							"internalType": "string",
							"name": "lastName",
							"type": "string"
						},
						{
							"internalType": "uint256",
							"name": "releaseTime",
							"type": "uint256"
						},
						{
							"internalType": "uint256",
							"name": "ammount",
							"type": "uint256"
						},
						{
							"internalType": "bool",
							"name": "canWithdraw",
							"type": "bool"
						}
					],
					"stateMutability": "view",
					"type": "function"
				},
				{
					"inputs": [
						{
							"internalType": "address payable",
							"name": "walletAddress",
							"type": "address"
						}
					],
					"name": "withdraw",
					"outputs": [],
					"stateMutability": "payable",
					"type": "function"
				}
			],
			"devdoc": {
				"kind": "dev",
				"methods": {},
				"version": 1
			},
			"evm": {
				"assembly": "    /* \"contracts/CryptoKids..sol\":68:2252  contract CryptoKids {... */\n  mstore(0x40, 0x80)\n    /* \"contracts/CryptoKids..sol\":131:179  constructor(){... */\n  callvalue\n  dup1\n  iszero\n  tag_1\n  jumpi\n  0x00\n  dup1\n  revert\ntag_1:\n  pop\n    /* \"contracts/CryptoKids..sol\":162:172  msg.sender */\n  caller\n    /* \"contracts/CryptoKids..sol\":154:159  owner */\n  0x00\n  dup1\n    /* \"contracts/CryptoKids..sol\":154:172  owner = msg.sender */\n  0x0100\n  exp\n  dup2\n  sload\n  dup2\n  0xffffffffffffffffffffffffffffffffffffffff\n  mul\n  not\n  and\n  swap1\n  dup4\n  0xffffffffffffffffffffffffffffffffffffffff\n  and\n  mul\n  or\n  swap1\n  sstore\n  pop\n    /* \"contracts/CryptoKids..sol\":68:2252  contract CryptoKids {... */\n  dataSize(sub_0)\n  dup1\n  dataOffset(sub_0)\n  0x00\n  codecopy\n  0x00\n  return\nstop\n\nsub_0: assembly {\n        /* \"contracts/CryptoKids..sol\":68:2252  contract CryptoKids {... */\n      mstore(0x40, 0x80)\n      jumpi(tag_1, lt(calldatasize, 0x04))\n      shr(0xe0, calldataload(0x00))\n      dup1\n      0x31d575c5\n      eq\n      tag_2\n      jumpi\n      dup1\n      0x51cff8d9\n      eq\n      tag_3\n      jumpi\n      dup1\n      0x722713f7\n      eq\n      tag_4\n      jumpi\n      dup1\n      0x7285fd3a\n      eq\n      tag_5\n      jumpi\n      dup1\n      0x82fc925d\n      eq\n      tag_6\n      jumpi\n      dup1\n      0xa25db8ce\n      eq\n      tag_7\n      jumpi\n    tag_1:\n      0x00\n      dup1\n      revert\n        /* \"contracts/CryptoKids..sol\":446:783  function addKid(address payable walletAddress, string memory firstName, string memory lastName, uint releaseTime, uint ammount, bool canWithdraw) public {... */\n    tag_2:\n      callvalue\n      dup1\n      iszero\n      tag_8\n      jumpi\n      0x00\n      dup1\n      revert\n    tag_8:\n      pop\n      tag_9\n      0x04\n      dup1\n      calldatasize\n      sub\n      dup2\n      add\n      swap1\n      tag_10\n      swap2\n      swap1\n      tag_11\n      jump\t// in\n    tag_10:\n      tag_12\n      jump\t// in\n    tag_9:\n      stop\n        /* \"contracts/CryptoKids..sol\":1903:2249  function withdraw(address payable walletAddress) payable public {... */\n    tag_3:\n      tag_13\n      0x04\n      dup1\n      calldatasize\n      sub\n      dup2\n      add\n      swap1\n      tag_14\n      swap2\n      swap1\n      tag_15\n      jump\t// in\n    tag_14:\n      tag_16\n      jump\t// in\n    tag_13:\n      stop\n        /* \"contracts/CryptoKids..sol\":789:880  function balanceOf() public view returns(uint){... */\n    tag_4:\n      callvalue\n      dup1\n      iszero\n      tag_17\n      jumpi\n      0x00\n      dup1\n      revert\n    tag_17:\n      pop\n      tag_18\n      tag_19\n      jump\t// in\n    tag_18:\n      mload(0x40)\n      tag_20\n      swap2\n      swap1\n      tag_21\n      jump\t// in\n    tag_20:\n      mload(0x40)\n      dup1\n      swap2\n      sub\n      swap1\n      return\n        /* \"contracts/CryptoKids..sol\":391:408  Kid[] public kids */\n    tag_5:\n      callvalue\n      dup1\n      iszero\n      tag_22\n      jumpi\n      0x00\n      dup1\n      revert\n    tag_22:\n      pop\n      tag_23\n      0x04\n      dup1\n      calldatasize\n      sub\n      dup2\n      add\n      swap1\n      tag_24\n      swap2\n      swap1\n      tag_25\n      jump\t// in\n    tag_24:\n      tag_26\n      jump\t// in\n    tag_23:\n      mload(0x40)\n      tag_27\n      swap7\n      swap6\n      swap5\n      swap4\n      swap3\n      swap2\n      swap1\n      tag_28\n      jump\t// in\n    tag_27:\n      mload(0x40)\n      dup1\n      swap2\n      sub\n      swap1\n      return\n        /* \"contracts/CryptoKids..sol\":936:1039  function diposit(address walletAddress) payable public {... */\n    tag_6:\n      tag_29\n      0x04\n      dup1\n      calldatasize\n      sub\n      dup2\n      add\n      swap1\n      tag_30\n      swap2\n      swap1\n      tag_31\n      jump\t// in\n    tag_30:\n      tag_32\n      jump\t// in\n    tag_29:\n      stop\n        /* \"contracts/CryptoKids..sol\":1584:1875  function availableToWithdraw(address walletAddress) public returns(bool){... */\n    tag_7:\n      callvalue\n      dup1\n      iszero\n      tag_33\n      jumpi\n      0x00\n      dup1\n      revert\n    tag_33:\n      pop\n      tag_34\n      0x04\n      dup1\n      calldatasize\n      sub\n      dup2\n      add\n      swap1\n      tag_35\n      swap2\n      swap1\n      tag_31\n      jump\t// in\n    tag_35:\n      tag_36\n      jump\t// in\n    tag_34:\n      mload(0x40)\n      tag_37\n      swap2\n      swap1\n      tag_38\n      jump\t// in\n    tag_37:\n      mload(0x40)\n      dup1\n      swap2\n      sub\n      swap1\n      return\n        /* \"contracts/CryptoKids..sol\":446:783  function addKid(address payable walletAddress, string memory firstName, string memory lastName, uint releaseTime, uint ammount, bool canWithdraw) public {... */\n    tag_12:\n        /* \"contracts/CryptoKids..sol\":609:613  kids */\n      0x01\n        /* \"contracts/CryptoKids..sol\":619:775  Kid(... */\n      mload(0x40)\n      dup1\n      0xc0\n      add\n      0x40\n      mstore\n      dup1\n        /* \"contracts/CryptoKids..sol\":636:649  walletAddress */\n      dup9\n        /* \"contracts/CryptoKids..sol\":619:775  Kid(... */\n      0xffffffffffffffffffffffffffffffffffffffff\n      and\n      dup2\n      mstore\n      0x20\n      add\n        /* \"contracts/CryptoKids..sol\":663:672  firstName */\n      dup8\n        /* \"contracts/CryptoKids..sol\":619:775  Kid(... */\n      dup2\n      mstore\n      0x20\n      add\n        /* \"contracts/CryptoKids..sol\":686:694  lastName */\n      dup7\n        /* \"contracts/CryptoKids..sol\":619:775  Kid(... */\n      dup2\n      mstore\n      0x20\n      add\n        /* \"contracts/CryptoKids..sol\":708:719  releaseTime */\n      dup6\n        /* \"contracts/CryptoKids..sol\":619:775  Kid(... */\n      dup2\n      mstore\n      0x20\n      add\n        /* \"contracts/CryptoKids..sol\":733:740  ammount */\n      dup5\n        /* \"contracts/CryptoKids..sol\":619:775  Kid(... */\n      dup2\n      mstore\n      0x20\n      add\n        /* \"contracts/CryptoKids..sol\":754:765  canWithdraw */\n      dup4\n        /* \"contracts/CryptoKids..sol\":619:775  Kid(... */\n      iszero\n      iszero\n      dup2\n      mstore\n      pop\n        /* \"contracts/CryptoKids..sol\":609:776  kids.push(Kid(... */\n      swap1\n      dup1\n      0x01\n      dup2\n      sload\n      add\n      dup1\n      dup3\n      sstore\n      dup1\n      swap2\n      pop\n      pop\n      0x01\n      swap1\n      sub\n      swap1\n      0x00\n      mstore\n      keccak256(0x00, 0x20)\n      swap1\n      0x06\n      mul\n      add\n      0x00\n      swap1\n      swap2\n      swap1\n      swap2\n      swap1\n      swap2\n      pop\n      0x00\n      dup3\n      add\n      mload\n      dup2\n      0x00\n      add\n      exp(0x0100, 0x00)\n      dup2\n      sload\n      dup2\n      0xffffffffffffffffffffffffffffffffffffffff\n      mul\n      not\n      and\n      swap1\n      dup4\n      0xffffffffffffffffffffffffffffffffffffffff\n      and\n      mul\n      or\n      swap1\n      sstore\n      pop\n      0x20\n      dup3\n      add\n      mload\n      dup2\n      0x01\n      add\n      swap1\n      dup1\n      mload\n      swap1\n      0x20\n      add\n      swap1\n      tag_41\n      swap3\n      swap2\n      swap1\n      tag_42\n      jump\t// in\n    tag_41:\n      pop\n      0x40\n      dup3\n      add\n      mload\n      dup2\n      0x02\n      add\n      swap1\n      dup1\n      mload\n      swap1\n      0x20\n      add\n      swap1\n      tag_43\n      swap3\n      swap2\n      swap1\n      tag_42\n      jump\t// in\n    tag_43:\n      pop\n      0x60\n      dup3\n      add\n      mload\n      dup2\n      0x03\n      add\n      sstore\n      0x80\n      dup3\n      add\n      mload\n      dup2\n      0x04\n      add\n      sstore\n      0xa0\n      dup3\n      add\n      mload\n      dup2\n      0x05\n      add\n      exp(0x0100, 0x00)\n      dup2\n      sload\n      dup2\n      0xff\n      mul\n      not\n      and\n      swap1\n      dup4\n      iszero\n      iszero\n      mul\n      or\n      swap1\n      sstore\n      pop\n      pop\n      pop\n        /* \"contracts/CryptoKids..sol\":446:783  function addKid(address payable walletAddress, string memory firstName, string memory lastName, uint releaseTime, uint ammount, bool canWithdraw) public {... */\n      pop\n      pop\n      pop\n      pop\n      pop\n      pop\n      jump\t// out\n        /* \"contracts/CryptoKids..sol\":1903:2249  function withdraw(address payable walletAddress) payable public {... */\n    tag_16:\n        /* \"contracts/CryptoKids..sol\":1977:1983  uint i */\n      0x00\n        /* \"contracts/CryptoKids..sol\":1986:2009  getIndex(walletAddress) */\n      tag_45\n        /* \"contracts/CryptoKids..sol\":1995:2008  walletAddress */\n      dup3\n        /* \"contracts/CryptoKids..sol\":1986:1994  getIndex */\n      tag_46\n        /* \"contracts/CryptoKids..sol\":1986:2009  getIndex(walletAddress) */\n      jump\t// in\n    tag_45:\n        /* \"contracts/CryptoKids..sol\":1977:2009  uint i = getIndex(walletAddress) */\n      swap1\n      pop\n        /* \"contracts/CryptoKids..sol\":2041:2045  kids */\n      0x01\n        /* \"contracts/CryptoKids..sol\":2046:2047  i */\n      dup2\n        /* \"contracts/CryptoKids..sol\":2041:2048  kids[i] */\n      dup2\n      sload\n      dup2\n      lt\n      tag_47\n      jumpi\n      tag_48\n      tag_49\n      jump\t// in\n    tag_48:\n    tag_47:\n      swap1\n      0x00\n      mstore\n      keccak256(0x00, 0x20)\n      swap1\n      0x06\n      mul\n      add\n        /* \"contracts/CryptoKids..sol\":2041:2062  kids[i].walletAddress */\n      0x00\n      add\n      0x00\n      swap1\n      sload\n      swap1\n      0x0100\n      exp\n      swap1\n      div\n      0xffffffffffffffffffffffffffffffffffffffff\n      and\n        /* \"contracts/CryptoKids..sol\":2027:2062  msg.sender == kids[i].walletAddress */\n      0xffffffffffffffffffffffffffffffffffffffff\n      and\n        /* \"contracts/CryptoKids..sol\":2027:2037  msg.sender */\n      caller\n        /* \"contracts/CryptoKids..sol\":2027:2062  msg.sender == kids[i].walletAddress */\n      0xffffffffffffffffffffffffffffffffffffffff\n      and\n      eq\n        /* \"contracts/CryptoKids..sol\":2019:2094  require(msg.sender == kids[i].walletAddress, \"you must be kid to withdraw\") */\n      tag_51\n      jumpi\n      mload(0x40)\n      0x08c379a000000000000000000000000000000000000000000000000000000000\n      dup2\n      mstore\n      0x04\n      add\n      tag_52\n      swap1\n      tag_53\n      jump\t// in\n    tag_52:\n      mload(0x40)\n      dup1\n      swap2\n      sub\n      swap1\n      revert\n    tag_51:\n        /* \"contracts/CryptoKids..sol\":2135:2139  true */\n      0x01\n        /* \"contracts/CryptoKids..sol\":2112:2139  kids[i].canWithdraw == true */\n      iszero\n      iszero\n        /* \"contracts/CryptoKids..sol\":2112:2116  kids */\n      0x01\n        /* \"contracts/CryptoKids..sol\":2117:2118  i */\n      dup3\n        /* \"contracts/CryptoKids..sol\":2112:2119  kids[i] */\n      dup2\n      sload\n      dup2\n      lt\n      tag_54\n      jumpi\n      tag_55\n      tag_49\n      jump\t// in\n    tag_55:\n    tag_54:\n      swap1\n      0x00\n      mstore\n      keccak256(0x00, 0x20)\n      swap1\n      0x06\n      mul\n      add\n        /* \"contracts/CryptoKids..sol\":2112:2131  kids[i].canWithdraw */\n      0x05\n      add\n      0x00\n      swap1\n      sload\n      swap1\n      0x0100\n      exp\n      swap1\n      div\n      0xff\n      and\n        /* \"contracts/CryptoKids..sol\":2112:2139  kids[i].canWithdraw == true */\n      iszero\n      iszero\n      eq\n        /* \"contracts/CryptoKids..sol\":2104:2185  require(kids[i].canWithdraw == true, \"you are not able to withdraw at this time\") */\n      tag_57\n      jumpi\n      mload(0x40)\n      0x08c379a000000000000000000000000000000000000000000000000000000000\n      dup2\n      mstore\n      0x04\n      add\n      tag_58\n      swap1\n      tag_59\n      jump\t// in\n    tag_58:\n      mload(0x40)\n      dup1\n      swap2\n      sub\n      swap1\n      revert\n    tag_57:\n        /* \"contracts/CryptoKids..sol\":2195:2199  kids */\n      0x01\n        /* \"contracts/CryptoKids..sol\":2200:2201  i */\n      dup2\n        /* \"contracts/CryptoKids..sol\":2195:2202  kids[i] */\n      dup2\n      sload\n      dup2\n      lt\n      tag_60\n      jumpi\n      tag_61\n      tag_49\n      jump\t// in\n    tag_61:\n    tag_60:\n      swap1\n      0x00\n      mstore\n      keccak256(0x00, 0x20)\n      swap1\n      0x06\n      mul\n      add\n        /* \"contracts/CryptoKids..sol\":2195:2216  kids[i].walletAddress */\n      0x00\n      add\n      0x00\n      swap1\n      sload\n      swap1\n      0x0100\n      exp\n      swap1\n      div\n      0xffffffffffffffffffffffffffffffffffffffff\n      and\n        /* \"contracts/CryptoKids..sol\":2195:2225  kids[i].walletAddress.transfer */\n      0xffffffffffffffffffffffffffffffffffffffff\n      and\n        /* \"contracts/CryptoKids..sol\":2195:2242  kids[i].walletAddress.transfer(kids[i].ammount) */\n      0x08fc\n        /* \"contracts/CryptoKids..sol\":2226:2230  kids */\n      0x01\n        /* \"contracts/CryptoKids..sol\":2231:2232  i */\n      dup4\n        /* \"contracts/CryptoKids..sol\":2226:2233  kids[i] */\n      dup2\n      sload\n      dup2\n      lt\n      tag_63\n      jumpi\n      tag_64\n      tag_49\n      jump\t// in\n    tag_64:\n    tag_63:\n      swap1\n      0x00\n      mstore\n      keccak256(0x00, 0x20)\n      swap1\n      0x06\n      mul\n      add\n        /* \"contracts/CryptoKids..sol\":2226:2241  kids[i].ammount */\n      0x04\n      add\n      sload\n        /* \"contracts/CryptoKids..sol\":2195:2242  kids[i].walletAddress.transfer(kids[i].ammount) */\n      swap1\n      dup2\n      iszero\n      mul\n      swap1\n      mload(0x40)\n      0x00\n      mload(0x40)\n      dup1\n      dup4\n      sub\n      dup2\n      dup6\n      dup9\n      dup9\n      call\n      swap4\n      pop\n      pop\n      pop\n      pop\n      iszero\n      dup1\n      iszero\n      tag_67\n      jumpi\n      returndatasize\n      0x00\n      dup1\n      returndatacopy\n      revert(0x00, returndatasize)\n    tag_67:\n      pop\n        /* \"contracts/CryptoKids..sol\":1967:2249  {... */\n      pop\n        /* \"contracts/CryptoKids..sol\":1903:2249  function withdraw(address payable walletAddress) payable public {... */\n      pop\n      jump\t// out\n        /* \"contracts/CryptoKids..sol\":789:880  function balanceOf() public view returns(uint){... */\n    tag_19:\n        /* \"contracts/CryptoKids..sol\":830:834  uint */\n      0x00\n        /* \"contracts/CryptoKids..sol\":852:873  address(this).balance */\n      selfbalance\n        /* \"contracts/CryptoKids..sol\":845:873  return address(this).balance */\n      swap1\n      pop\n        /* \"contracts/CryptoKids..sol\":789:880  function balanceOf() public view returns(uint){... */\n      swap1\n      jump\t// out\n        /* \"contracts/CryptoKids..sol\":391:408  Kid[] public kids */\n    tag_26:\n      0x01\n      dup2\n      dup2\n      sload\n      dup2\n      lt\n      tag_69\n      jumpi\n      0x00\n      dup1\n      revert\n    tag_69:\n      swap1\n      0x00\n      mstore\n      keccak256(0x00, 0x20)\n      swap1\n      0x06\n      mul\n      add\n      0x00\n      swap2\n      pop\n      swap1\n      pop\n      dup1\n      0x00\n      add\n      0x00\n      swap1\n      sload\n      swap1\n      0x0100\n      exp\n      swap1\n      div\n      0xffffffffffffffffffffffffffffffffffffffff\n      and\n      swap1\n      dup1\n      0x01\n      add\n      dup1\n      sload\n      tag_71\n      swap1\n      tag_72\n      jump\t// in\n    tag_71:\n      dup1\n      0x1f\n      add\n      0x20\n      dup1\n      swap2\n      div\n      mul\n      0x20\n      add\n      mload(0x40)\n      swap1\n      dup2\n      add\n      0x40\n      mstore\n      dup1\n      swap3\n      swap2\n      swap1\n      dup2\n      dup2\n      mstore\n      0x20\n      add\n      dup3\n      dup1\n      sload\n      tag_73\n      swap1\n      tag_72\n      jump\t// in\n    tag_73:\n      dup1\n      iszero\n      tag_74\n      jumpi\n      dup1\n      0x1f\n      lt\n      tag_75\n      jumpi\n      0x0100\n      dup1\n      dup4\n      sload\n      div\n      mul\n      dup4\n      mstore\n      swap2\n      0x20\n      add\n      swap2\n      jump(tag_74)\n    tag_75:\n      dup3\n      add\n      swap2\n      swap1\n      0x00\n      mstore\n      keccak256(0x00, 0x20)\n      swap1\n    tag_76:\n      dup2\n      sload\n      dup2\n      mstore\n      swap1\n      0x01\n      add\n      swap1\n      0x20\n      add\n      dup1\n      dup4\n      gt\n      tag_76\n      jumpi\n      dup3\n      swap1\n      sub\n      0x1f\n      and\n      dup3\n      add\n      swap2\n    tag_74:\n      pop\n      pop\n      pop\n      pop\n      pop\n      swap1\n      dup1\n      0x02\n      add\n      dup1\n      sload\n      tag_77\n      swap1\n      tag_72\n      jump\t// in\n    tag_77:\n      dup1\n      0x1f\n      add\n      0x20\n      dup1\n      swap2\n      div\n      mul\n      0x20\n      add\n      mload(0x40)\n      swap1\n      dup2\n      add\n      0x40\n      mstore\n      dup1\n      swap3\n      swap2\n      swap1\n      dup2\n      dup2\n      mstore\n      0x20\n      add\n      dup3\n      dup1\n      sload\n      tag_78\n      swap1\n      tag_72\n      jump\t// in\n    tag_78:\n      dup1\n      iszero\n      tag_79\n      jumpi\n      dup1\n      0x1f\n      lt\n      tag_80\n      jumpi\n      0x0100\n      dup1\n      dup4\n      sload\n      div\n      mul\n      dup4\n      mstore\n      swap2\n      0x20\n      add\n      swap2\n      jump(tag_79)\n    tag_80:\n      dup3\n      add\n      swap2\n      swap1\n      0x00\n      mstore\n      keccak256(0x00, 0x20)\n      swap1\n    tag_81:\n      dup2\n      sload\n      dup2\n      mstore\n      swap1\n      0x01\n      add\n      swap1\n      0x20\n      add\n      dup1\n      dup4\n      gt\n      tag_81\n      jumpi\n      dup3\n      swap1\n      sub\n      0x1f\n      and\n      dup3\n      add\n      swap2\n    tag_79:\n      pop\n      pop\n      pop\n      pop\n      pop\n      swap1\n      dup1\n      0x03\n      add\n      sload\n      swap1\n      dup1\n      0x04\n      add\n      sload\n      swap1\n      dup1\n      0x05\n      add\n      0x00\n      swap1\n      sload\n      swap1\n      0x0100\n      exp\n      swap1\n      div\n      0xff\n      and\n      swap1\n      pop\n      dup7\n      jump\t// out\n        /* \"contracts/CryptoKids..sol\":936:1039  function diposit(address walletAddress) payable public {... */\n    tag_32:\n        /* \"contracts/CryptoKids..sol\":1001:1032  addToKidsBalance(walletAddress) */\n      tag_83\n        /* \"contracts/CryptoKids..sol\":1018:1031  walletAddress */\n      dup2\n        /* \"contracts/CryptoKids..sol\":1001:1017  addToKidsBalance */\n      tag_84\n        /* \"contracts/CryptoKids..sol\":1001:1032  addToKidsBalance(walletAddress) */\n      jump\t// in\n    tag_83:\n        /* \"contracts/CryptoKids..sol\":936:1039  function diposit(address walletAddress) payable public {... */\n      pop\n      jump\t// out\n        /* \"contracts/CryptoKids..sol\":1584:1875  function availableToWithdraw(address walletAddress) public returns(bool){... */\n    tag_36:\n        /* \"contracts/CryptoKids..sol\":1651:1655  bool */\n      0x00\n        /* \"contracts/CryptoKids..sol\":1666:1672  uint i */\n      dup1\n        /* \"contracts/CryptoKids..sol\":1675:1698  getIndex(walletAddress) */\n      tag_86\n        /* \"contracts/CryptoKids..sol\":1684:1697  walletAddress */\n      dup4\n        /* \"contracts/CryptoKids..sol\":1675:1683  getIndex */\n      tag_46\n        /* \"contracts/CryptoKids..sol\":1675:1698  getIndex(walletAddress) */\n      jump\t// in\n    tag_86:\n        /* \"contracts/CryptoKids..sol\":1666:1698  uint i = getIndex(walletAddress) */\n      swap1\n      pop\n        /* \"contracts/CryptoKids..sol\":1730:1734  kids */\n      0x01\n        /* \"contracts/CryptoKids..sol\":1735:1736  i */\n      dup2\n        /* \"contracts/CryptoKids..sol\":1730:1737  kids[i] */\n      dup2\n      sload\n      dup2\n      lt\n      tag_87\n      jumpi\n      tag_88\n      tag_49\n      jump\t// in\n    tag_88:\n    tag_87:\n      swap1\n      0x00\n      mstore\n      keccak256(0x00, 0x20)\n      swap1\n      0x06\n      mul\n      add\n        /* \"contracts/CryptoKids..sol\":1730:1749  kids[i].releaseTime */\n      0x03\n      add\n      sload\n        /* \"contracts/CryptoKids..sol\":1712:1727  block.timestamp */\n      timestamp\n        /* \"contracts/CryptoKids..sol\":1712:1749  block.timestamp > kids[i].releaseTime */\n      gt\n        /* \"contracts/CryptoKids..sol\":1708:1869  if (block.timestamp > kids[i].releaseTime){... */\n      iszero\n      tag_90\n      jumpi\n        /* \"contracts/CryptoKids..sol\":1786:1790  true */\n      0x01\n        /* \"contracts/CryptoKids..sol\":1764:1768  kids */\n      dup1\n        /* \"contracts/CryptoKids..sol\":1769:1770  i */\n      dup3\n        /* \"contracts/CryptoKids..sol\":1764:1771  kids[i] */\n      dup2\n      sload\n      dup2\n      lt\n      tag_91\n      jumpi\n      tag_92\n      tag_49\n      jump\t// in\n    tag_92:\n    tag_91:\n      swap1\n      0x00\n      mstore\n      keccak256(0x00, 0x20)\n      swap1\n      0x06\n      mul\n      add\n        /* \"contracts/CryptoKids..sol\":1764:1783  kids[i].canWithdraw */\n      0x05\n      add\n      0x00\n        /* \"contracts/CryptoKids..sol\":1764:1790  kids[i].canWithdraw = true */\n      0x0100\n      exp\n      dup2\n      sload\n      dup2\n      0xff\n      mul\n      not\n      and\n      swap1\n      dup4\n      iszero\n      iszero\n      mul\n      or\n      swap1\n      sstore\n      pop\n        /* \"contracts/CryptoKids..sol\":1811:1815  true */\n      0x01\n        /* \"contracts/CryptoKids..sol\":1804:1815  return true */\n      swap2\n      pop\n      pop\n      jump(tag_85)\n        /* \"contracts/CryptoKids..sol\":1708:1869  if (block.timestamp > kids[i].releaseTime){... */\n    tag_90:\n        /* \"contracts/CryptoKids..sol\":1853:1858  false */\n      0x00\n        /* \"contracts/CryptoKids..sol\":1846:1858  return false */\n      swap2\n      pop\n      pop\n        /* \"contracts/CryptoKids..sol\":1584:1875  function availableToWithdraw(address walletAddress) public returns(bool){... */\n    tag_85:\n      swap2\n      swap1\n      pop\n      jump\t// out\n        /* \"contracts/CryptoKids..sol\":1293:1541  function getIndex(address walletAddress) view private returns(uint){... */\n    tag_46:\n        /* \"contracts/CryptoKids..sol\":1355:1359  uint */\n      0x00\n        /* \"contracts/CryptoKids..sol\":1374:1380  uint i */\n      dup1\n        /* \"contracts/CryptoKids..sol\":1383:1384  0 */\n      0x00\n        /* \"contracts/CryptoKids..sol\":1374:1384  uint i = 0 */\n      swap1\n      pop\n        /* \"contracts/CryptoKids..sol\":1370:1514  for(uint i = 0; i < kids.length; i++){... */\n    tag_96:\n        /* \"contracts/CryptoKids..sol\":1390:1394  kids */\n      0x01\n        /* \"contracts/CryptoKids..sol\":1390:1401  kids.length */\n      dup1\n      sload\n      swap1\n      pop\n        /* \"contracts/CryptoKids..sol\":1386:1387  i */\n      dup2\n        /* \"contracts/CryptoKids..sol\":1386:1401  i < kids.length */\n      lt\n        /* \"contracts/CryptoKids..sol\":1370:1514  for(uint i = 0; i < kids.length; i++){... */\n      iszero\n      tag_97\n      jumpi\n        /* \"contracts/CryptoKids..sol\":1449:1462  walletAddress */\n      dup3\n        /* \"contracts/CryptoKids..sol\":1424:1462  kids[i].walletAddress == walletAddress */\n      0xffffffffffffffffffffffffffffffffffffffff\n      and\n        /* \"contracts/CryptoKids..sol\":1424:1428  kids */\n      0x01\n        /* \"contracts/CryptoKids..sol\":1429:1430  i */\n      dup3\n        /* \"contracts/CryptoKids..sol\":1424:1431  kids[i] */\n      dup2\n      sload\n      dup2\n      lt\n      tag_99\n      jumpi\n      tag_100\n      tag_49\n      jump\t// in\n    tag_100:\n    tag_99:\n      swap1\n      0x00\n      mstore\n      keccak256(0x00, 0x20)\n      swap1\n      0x06\n      mul\n      add\n        /* \"contracts/CryptoKids..sol\":1424:1445  kids[i].walletAddress */\n      0x00\n      add\n      0x00\n      swap1\n      sload\n      swap1\n      0x0100\n      exp\n      swap1\n      div\n      0xffffffffffffffffffffffffffffffffffffffff\n      and\n        /* \"contracts/CryptoKids..sol\":1424:1462  kids[i].walletAddress == walletAddress */\n      0xffffffffffffffffffffffffffffffffffffffff\n      and\n      eq\n        /* \"contracts/CryptoKids..sol\":1421:1504  if(kids[i].walletAddress == walletAddress){... */\n      iszero\n      tag_102\n      jumpi\n        /* \"contracts/CryptoKids..sol\":1488:1489  i */\n      dup1\n        /* \"contracts/CryptoKids..sol\":1481:1489  return i */\n      swap2\n      pop\n      pop\n      jump(tag_95)\n        /* \"contracts/CryptoKids..sol\":1421:1504  if(kids[i].walletAddress == walletAddress){... */\n    tag_102:\n        /* \"contracts/CryptoKids..sol\":1403:1406  i++ */\n      dup1\n      dup1\n      tag_103\n      swap1\n      tag_104\n      jump\t// in\n    tag_103:\n      swap2\n      pop\n      pop\n        /* \"contracts/CryptoKids..sol\":1370:1514  for(uint i = 0; i < kids.length; i++){... */\n      jump(tag_96)\n    tag_97:\n      pop\n        /* \"contracts/CryptoKids..sol\":1530:1533  999 */\n      0x03e7\n        /* \"contracts/CryptoKids..sol\":1523:1533  return 999 */\n      swap1\n      pop\n        /* \"contracts/CryptoKids..sol\":1293:1541  function getIndex(address walletAddress) view private returns(uint){... */\n    tag_95:\n      swap2\n      swap1\n      pop\n      jump\t// out\n        /* \"contracts/CryptoKids..sol\":1049:1287  function addToKidsBalance(address walletAddress) private {... */\n    tag_84:\n        /* \"contracts/CryptoKids..sol\":1120:1126  uint i */\n      0x00\n        /* \"contracts/CryptoKids..sol\":1116:1281  for(uint i = 0; i < kids.length; i++){... */\n    tag_106:\n        /* \"contracts/CryptoKids..sol\":1136:1140  kids */\n      0x01\n        /* \"contracts/CryptoKids..sol\":1136:1147  kids.length */\n      dup1\n      sload\n      swap1\n      pop\n        /* \"contracts/CryptoKids..sol\":1132:1133  i */\n      dup2\n        /* \"contracts/CryptoKids..sol\":1132:1147  i < kids.length */\n      lt\n        /* \"contracts/CryptoKids..sol\":1116:1281  for(uint i = 0; i < kids.length; i++){... */\n      iszero\n      tag_107\n      jumpi\n        /* \"contracts/CryptoKids..sol\":1195:1208  walletAddress */\n      dup2\n        /* \"contracts/CryptoKids..sol\":1170:1208  kids[i].walletAddress == walletAddress */\n      0xffffffffffffffffffffffffffffffffffffffff\n      and\n        /* \"contracts/CryptoKids..sol\":1170:1174  kids */\n      0x01\n        /* \"contracts/CryptoKids..sol\":1175:1176  i */\n      dup3\n        /* \"contracts/CryptoKids..sol\":1170:1177  kids[i] */\n      dup2\n      sload\n      dup2\n      lt\n      tag_109\n      jumpi\n      tag_110\n      tag_49\n      jump\t// in\n    tag_110:\n    tag_109:\n      swap1\n      0x00\n      mstore\n      keccak256(0x00, 0x20)\n      swap1\n      0x06\n      mul\n      add\n        /* \"contracts/CryptoKids..sol\":1170:1191  kids[i].walletAddress */\n      0x00\n      add\n      0x00\n      swap1\n      sload\n      swap1\n      0x0100\n      exp\n      swap1\n      div\n      0xffffffffffffffffffffffffffffffffffffffff\n      and\n        /* \"contracts/CryptoKids..sol\":1170:1208  kids[i].walletAddress == walletAddress */\n      0xffffffffffffffffffffffffffffffffffffffff\n      and\n      eq\n        /* \"contracts/CryptoKids..sol\":1167:1271  if(kids[i].walletAddress == walletAddress) {... */\n      iszero\n      tag_112\n      jumpi\n        /* \"contracts/CryptoKids..sol\":1247:1256  msg.value */\n      callvalue\n        /* \"contracts/CryptoKids..sol\":1228:1232  kids */\n      0x01\n        /* \"contracts/CryptoKids..sol\":1233:1234  i */\n      dup3\n        /* \"contracts/CryptoKids..sol\":1228:1235  kids[i] */\n      dup2\n      sload\n      dup2\n      lt\n      tag_113\n      jumpi\n      tag_114\n      tag_49\n      jump\t// in\n    tag_114:\n    tag_113:\n      swap1\n      0x00\n      mstore\n      keccak256(0x00, 0x20)\n      swap1\n      0x06\n      mul\n      add\n        /* \"contracts/CryptoKids..sol\":1228:1243  kids[i].ammount */\n      0x04\n      add\n      0x00\n        /* \"contracts/CryptoKids..sol\":1228:1256  kids[i].ammount += msg.value */\n      dup3\n      dup3\n      sload\n      tag_116\n      swap2\n      swap1\n      tag_117\n      jump\t// in\n    tag_116:\n      swap3\n      pop\n      pop\n      dup2\n      swap1\n      sstore\n      pop\n        /* \"contracts/CryptoKids..sol\":1167:1271  if(kids[i].walletAddress == walletAddress) {... */\n    tag_112:\n        /* \"contracts/CryptoKids..sol\":1149:1152  i++ */\n      dup1\n      dup1\n      tag_118\n      swap1\n      tag_104\n      jump\t// in\n    tag_118:\n      swap2\n      pop\n      pop\n        /* \"contracts/CryptoKids..sol\":1116:1281  for(uint i = 0; i < kids.length; i++){... */\n      jump(tag_106)\n    tag_107:\n      pop\n        /* \"contracts/CryptoKids..sol\":1049:1287  function addToKidsBalance(address walletAddress) private {... */\n      pop\n      jump\t// out\n    tag_42:\n      dup3\n      dup1\n      sload\n      tag_119\n      swap1\n      tag_72\n      jump\t// in\n    tag_119:\n      swap1\n      0x00\n      mstore\n      keccak256(0x00, 0x20)\n      swap1\n      0x1f\n      add\n      0x20\n      swap1\n      div\n      dup2\n      add\n      swap3\n      dup3\n      tag_121\n      jumpi\n      0x00\n      dup6\n      sstore\n      jump(tag_120)\n    tag_121:\n      dup3\n      0x1f\n      lt\n      tag_122\n      jumpi\n      dup1\n      mload\n      not(0xff)\n      and\n      dup4\n      dup1\n      add\n      or\n      dup6\n      sstore\n      jump(tag_120)\n    tag_122:\n      dup3\n      dup1\n      add\n      0x01\n      add\n      dup6\n      sstore\n      dup3\n      iszero\n      tag_120\n      jumpi\n      swap2\n      dup3\n      add\n    tag_123:\n      dup3\n      dup2\n      gt\n      iszero\n      tag_124\n      jumpi\n      dup3\n      mload\n      dup3\n      sstore\n      swap2\n      0x20\n      add\n      swap2\n      swap1\n      0x01\n      add\n      swap1\n      jump(tag_123)\n    tag_124:\n    tag_120:\n      pop\n      swap1\n      pop\n      tag_125\n      swap2\n      swap1\n      tag_126\n      jump\t// in\n    tag_125:\n      pop\n      swap1\n      jump\t// out\n    tag_126:\n    tag_127:\n      dup1\n      dup3\n      gt\n      iszero\n      tag_128\n      jumpi\n      0x00\n      dup2\n      0x00\n      swap1\n      sstore\n      pop\n      0x01\n      add\n      jump(tag_127)\n    tag_128:\n      pop\n      swap1\n      jump\t// out\n        /* \"#utility.yul\":7:419   */\n    tag_130:\n        /* \"#utility.yul\":85:90   */\n      0x00\n        /* \"#utility.yul\":110:176   */\n      tag_132\n        /* \"#utility.yul\":126:175   */\n      tag_133\n        /* \"#utility.yul\":168:174   */\n      dup5\n        /* \"#utility.yul\":126:175   */\n      tag_134\n      jump\t// in\n    tag_133:\n        /* \"#utility.yul\":110:176   */\n      tag_135\n      jump\t// in\n    tag_132:\n        /* \"#utility.yul\":101:176   */\n      swap1\n      pop\n        /* \"#utility.yul\":199:205   */\n      dup3\n        /* \"#utility.yul\":192:197   */\n      dup2\n        /* \"#utility.yul\":185:206   */\n      mstore\n        /* \"#utility.yul\":237:241   */\n      0x20\n        /* \"#utility.yul\":230:235   */\n      dup2\n        /* \"#utility.yul\":226:242   */\n      add\n        /* \"#utility.yul\":275:278   */\n      dup5\n        /* \"#utility.yul\":266:272   */\n      dup5\n        /* \"#utility.yul\":261:264   */\n      dup5\n        /* \"#utility.yul\":257:273   */\n      add\n        /* \"#utility.yul\":254:279   */\n      gt\n        /* \"#utility.yul\":251:363   */\n      iszero\n      tag_136\n      jumpi\n        /* \"#utility.yul\":282:361   */\n      tag_137\n      tag_138\n      jump\t// in\n    tag_137:\n        /* \"#utility.yul\":251:363   */\n    tag_136:\n        /* \"#utility.yul\":372:413   */\n      tag_139\n        /* \"#utility.yul\":406:412   */\n      dup5\n        /* \"#utility.yul\":401:404   */\n      dup3\n        /* \"#utility.yul\":396:399   */\n      dup6\n        /* \"#utility.yul\":372:413   */\n      tag_140\n      jump\t// in\n    tag_139:\n        /* \"#utility.yul\":91:419   */\n      pop\n        /* \"#utility.yul\":7:419   */\n      swap4\n      swap3\n      pop\n      pop\n      pop\n      jump\t// out\n        /* \"#utility.yul\":425:564   */\n    tag_141:\n        /* \"#utility.yul\":471:476   */\n      0x00\n        /* \"#utility.yul\":509:515   */\n      dup2\n        /* \"#utility.yul\":496:516   */\n      calldataload\n        /* \"#utility.yul\":487:516   */\n      swap1\n      pop\n        /* \"#utility.yul\":525:558   */\n      tag_143\n        /* \"#utility.yul\":552:557   */\n      dup2\n        /* \"#utility.yul\":525:558   */\n      tag_144\n      jump\t// in\n    tag_143:\n        /* \"#utility.yul\":425:564   */\n      swap3\n      swap2\n      pop\n      pop\n      jump\t// out\n        /* \"#utility.yul\":570:725   */\n    tag_145:\n        /* \"#utility.yul\":624:629   */\n      0x00\n        /* \"#utility.yul\":662:668   */\n      dup2\n        /* \"#utility.yul\":649:669   */\n      calldataload\n        /* \"#utility.yul\":640:669   */\n      swap1\n      pop\n        /* \"#utility.yul\":678:719   */\n      tag_147\n        /* \"#utility.yul\":713:718   */\n      dup2\n        /* \"#utility.yul\":678:719   */\n      tag_148\n      jump\t// in\n    tag_147:\n        /* \"#utility.yul\":570:725   */\n      swap3\n      swap2\n      pop\n      pop\n      jump\t// out\n        /* \"#utility.yul\":731:864   */\n    tag_149:\n        /* \"#utility.yul\":774:779   */\n      0x00\n        /* \"#utility.yul\":812:818   */\n      dup2\n        /* \"#utility.yul\":799:819   */\n      calldataload\n        /* \"#utility.yul\":790:819   */\n      swap1\n      pop\n        /* \"#utility.yul\":828:858   */\n      tag_151\n        /* \"#utility.yul\":852:857   */\n      dup2\n        /* \"#utility.yul\":828:858   */\n      tag_152\n      jump\t// in\n    tag_151:\n        /* \"#utility.yul\":731:864   */\n      swap3\n      swap2\n      pop\n      pop\n      jump\t// out\n        /* \"#utility.yul\":884:1224   */\n    tag_153:\n        /* \"#utility.yul\":940:945   */\n      0x00\n        /* \"#utility.yul\":989:992   */\n      dup3\n        /* \"#utility.yul\":982:986   */\n      0x1f\n        /* \"#utility.yul\":974:980   */\n      dup4\n        /* \"#utility.yul\":970:987   */\n      add\n        /* \"#utility.yul\":966:993   */\n      slt\n        /* \"#utility.yul\":956:1078   */\n      tag_155\n      jumpi\n        /* \"#utility.yul\":997:1076   */\n      tag_156\n      tag_157\n      jump\t// in\n    tag_156:\n        /* \"#utility.yul\":956:1078   */\n    tag_155:\n        /* \"#utility.yul\":1114:1120   */\n      dup2\n        /* \"#utility.yul\":1101:1121   */\n      calldataload\n        /* \"#utility.yul\":1139:1218   */\n      tag_158\n        /* \"#utility.yul\":1214:1217   */\n      dup5\n        /* \"#utility.yul\":1206:1212   */\n      dup3\n        /* \"#utility.yul\":1199:1203   */\n      0x20\n        /* \"#utility.yul\":1191:1197   */\n      dup7\n        /* \"#utility.yul\":1187:1204   */\n      add\n        /* \"#utility.yul\":1139:1218   */\n      tag_130\n      jump\t// in\n    tag_158:\n        /* \"#utility.yul\":1130:1218   */\n      swap2\n      pop\n        /* \"#utility.yul\":946:1224   */\n      pop\n        /* \"#utility.yul\":884:1224   */\n      swap3\n      swap2\n      pop\n      pop\n      jump\t// out\n        /* \"#utility.yul\":1230:1369   */\n    tag_159:\n        /* \"#utility.yul\":1276:1281   */\n      0x00\n        /* \"#utility.yul\":1314:1320   */\n      dup2\n        /* \"#utility.yul\":1301:1321   */\n      calldataload\n        /* \"#utility.yul\":1292:1321   */\n      swap1\n      pop\n        /* \"#utility.yul\":1330:1363   */\n      tag_161\n        /* \"#utility.yul\":1357:1362   */\n      dup2\n        /* \"#utility.yul\":1330:1363   */\n      tag_162\n      jump\t// in\n    tag_161:\n        /* \"#utility.yul\":1230:1369   */\n      swap3\n      swap2\n      pop\n      pop\n      jump\t// out\n        /* \"#utility.yul\":1375:1704   */\n    tag_31:\n        /* \"#utility.yul\":1434:1440   */\n      0x00\n        /* \"#utility.yul\":1483:1485   */\n      0x20\n        /* \"#utility.yul\":1471:1480   */\n      dup3\n        /* \"#utility.yul\":1462:1469   */\n      dup5\n        /* \"#utility.yul\":1458:1481   */\n      sub\n        /* \"#utility.yul\":1454:1486   */\n      slt\n        /* \"#utility.yul\":1451:1570   */\n      iszero\n      tag_164\n      jumpi\n        /* \"#utility.yul\":1489:1568   */\n      tag_165\n      tag_166\n      jump\t// in\n    tag_165:\n        /* \"#utility.yul\":1451:1570   */\n    tag_164:\n        /* \"#utility.yul\":1609:1610   */\n      0x00\n        /* \"#utility.yul\":1634:1687   */\n      tag_167\n        /* \"#utility.yul\":1679:1686   */\n      dup5\n        /* \"#utility.yul\":1670:1676   */\n      dup3\n        /* \"#utility.yul\":1659:1668   */\n      dup6\n        /* \"#utility.yul\":1655:1677   */\n      add\n        /* \"#utility.yul\":1634:1687   */\n      tag_141\n      jump\t// in\n    tag_167:\n        /* \"#utility.yul\":1624:1687   */\n      swap2\n      pop\n        /* \"#utility.yul\":1580:1697   */\n      pop\n        /* \"#utility.yul\":1375:1704   */\n      swap3\n      swap2\n      pop\n      pop\n      jump\t// out\n        /* \"#utility.yul\":1710:2055   */\n    tag_15:\n        /* \"#utility.yul\":1777:1783   */\n      0x00\n        /* \"#utility.yul\":1826:1828   */\n      0x20\n        /* \"#utility.yul\":1814:1823   */\n      dup3\n        /* \"#utility.yul\":1805:1812   */\n      dup5\n        /* \"#utility.yul\":1801:1824   */\n      sub\n        /* \"#utility.yul\":1797:1829   */\n      slt\n        /* \"#utility.yul\":1794:1913   */\n      iszero\n      tag_169\n      jumpi\n        /* \"#utility.yul\":1832:1911   */\n      tag_170\n      tag_166\n      jump\t// in\n    tag_170:\n        /* \"#utility.yul\":1794:1913   */\n    tag_169:\n        /* \"#utility.yul\":1952:1953   */\n      0x00\n        /* \"#utility.yul\":1977:2038   */\n      tag_171\n        /* \"#utility.yul\":2030:2037   */\n      dup5\n        /* \"#utility.yul\":2021:2027   */\n      dup3\n        /* \"#utility.yul\":2010:2019   */\n      dup6\n        /* \"#utility.yul\":2006:2028   */\n      add\n        /* \"#utility.yul\":1977:2038   */\n      tag_145\n      jump\t// in\n    tag_171:\n        /* \"#utility.yul\":1967:2038   */\n      swap2\n      pop\n        /* \"#utility.yul\":1923:2048   */\n      pop\n        /* \"#utility.yul\":1710:2055   */\n      swap3\n      swap2\n      pop\n      pop\n      jump\t// out\n        /* \"#utility.yul\":2061:3488   */\n    tag_11:\n        /* \"#utility.yul\":2190:2196   */\n      0x00\n        /* \"#utility.yul\":2198:2204   */\n      dup1\n        /* \"#utility.yul\":2206:2212   */\n      0x00\n        /* \"#utility.yul\":2214:2220   */\n      dup1\n        /* \"#utility.yul\":2222:2228   */\n      0x00\n        /* \"#utility.yul\":2230:2236   */\n      dup1\n        /* \"#utility.yul\":2279:2282   */\n      0xc0\n        /* \"#utility.yul\":2267:2276   */\n      dup8\n        /* \"#utility.yul\":2258:2265   */\n      dup10\n        /* \"#utility.yul\":2254:2277   */\n      sub\n        /* \"#utility.yul\":2250:2283   */\n      slt\n        /* \"#utility.yul\":2247:2367   */\n      iszero\n      tag_173\n      jumpi\n        /* \"#utility.yul\":2286:2365   */\n      tag_174\n      tag_166\n      jump\t// in\n    tag_174:\n        /* \"#utility.yul\":2247:2367   */\n    tag_173:\n        /* \"#utility.yul\":2406:2407   */\n      0x00\n        /* \"#utility.yul\":2431:2492   */\n      tag_175\n        /* \"#utility.yul\":2484:2491   */\n      dup10\n        /* \"#utility.yul\":2475:2481   */\n      dup3\n        /* \"#utility.yul\":2464:2473   */\n      dup11\n        /* \"#utility.yul\":2460:2482   */\n      add\n        /* \"#utility.yul\":2431:2492   */\n      tag_145\n      jump\t// in\n    tag_175:\n        /* \"#utility.yul\":2421:2492   */\n      swap7\n      pop\n        /* \"#utility.yul\":2377:2502   */\n      pop\n        /* \"#utility.yul\":2569:2571   */\n      0x20\n        /* \"#utility.yul\":2558:2567   */\n      dup8\n        /* \"#utility.yul\":2554:2572   */\n      add\n        /* \"#utility.yul\":2541:2573   */\n      calldataload\n        /* \"#utility.yul\":2600:2618   */\n      0xffffffffffffffff\n        /* \"#utility.yul\":2592:2598   */\n      dup2\n        /* \"#utility.yul\":2589:2619   */\n      gt\n        /* \"#utility.yul\":2586:2703   */\n      iszero\n      tag_176\n      jumpi\n        /* \"#utility.yul\":2622:2701   */\n      tag_177\n      tag_178\n      jump\t// in\n    tag_177:\n        /* \"#utility.yul\":2586:2703   */\n    tag_176:\n        /* \"#utility.yul\":2727:2790   */\n      tag_179\n        /* \"#utility.yul\":2782:2789   */\n      dup10\n        /* \"#utility.yul\":2773:2779   */\n      dup3\n        /* \"#utility.yul\":2762:2771   */\n      dup11\n        /* \"#utility.yul\":2758:2780   */\n      add\n        /* \"#utility.yul\":2727:2790   */\n      tag_153\n      jump\t// in\n    tag_179:\n        /* \"#utility.yul\":2717:2790   */\n      swap6\n      pop\n        /* \"#utility.yul\":2512:2800   */\n      pop\n        /* \"#utility.yul\":2867:2869   */\n      0x40\n        /* \"#utility.yul\":2856:2865   */\n      dup8\n        /* \"#utility.yul\":2852:2870   */\n      add\n        /* \"#utility.yul\":2839:2871   */\n      calldataload\n        /* \"#utility.yul\":2898:2916   */\n      0xffffffffffffffff\n        /* \"#utility.yul\":2890:2896   */\n      dup2\n        /* \"#utility.yul\":2887:2917   */\n      gt\n        /* \"#utility.yul\":2884:3001   */\n      iszero\n      tag_180\n      jumpi\n        /* \"#utility.yul\":2920:2999   */\n      tag_181\n      tag_178\n      jump\t// in\n    tag_181:\n        /* \"#utility.yul\":2884:3001   */\n    tag_180:\n        /* \"#utility.yul\":3025:3088   */\n      tag_182\n        /* \"#utility.yul\":3080:3087   */\n      dup10\n        /* \"#utility.yul\":3071:3077   */\n      dup3\n        /* \"#utility.yul\":3060:3069   */\n      dup11\n        /* \"#utility.yul\":3056:3078   */\n      add\n        /* \"#utility.yul\":3025:3088   */\n      tag_153\n      jump\t// in\n    tag_182:\n        /* \"#utility.yul\":3015:3088   */\n      swap5\n      pop\n        /* \"#utility.yul\":2810:3098   */\n      pop\n        /* \"#utility.yul\":3137:3139   */\n      0x60\n        /* \"#utility.yul\":3163:3216   */\n      tag_183\n        /* \"#utility.yul\":3208:3215   */\n      dup10\n        /* \"#utility.yul\":3199:3205   */\n      dup3\n        /* \"#utility.yul\":3188:3197   */\n      dup11\n        /* \"#utility.yul\":3184:3206   */\n      add\n        /* \"#utility.yul\":3163:3216   */\n      tag_159\n      jump\t// in\n    tag_183:\n        /* \"#utility.yul\":3153:3216   */\n      swap4\n      pop\n        /* \"#utility.yul\":3108:3226   */\n      pop\n        /* \"#utility.yul\":3265:3268   */\n      0x80\n        /* \"#utility.yul\":3292:3345   */\n      tag_184\n        /* \"#utility.yul\":3337:3344   */\n      dup10\n        /* \"#utility.yul\":3328:3334   */\n      dup3\n        /* \"#utility.yul\":3317:3326   */\n      dup11\n        /* \"#utility.yul\":3313:3335   */\n      add\n        /* \"#utility.yul\":3292:3345   */\n      tag_159\n      jump\t// in\n    tag_184:\n        /* \"#utility.yul\":3282:3345   */\n      swap3\n      pop\n        /* \"#utility.yul\":3236:3355   */\n      pop\n        /* \"#utility.yul\":3394:3397   */\n      0xa0\n        /* \"#utility.yul\":3421:3471   */\n      tag_185\n        /* \"#utility.yul\":3463:3470   */\n      dup10\n        /* \"#utility.yul\":3454:3460   */\n      dup3\n        /* \"#utility.yul\":3443:3452   */\n      dup11\n        /* \"#utility.yul\":3439:3461   */\n      add\n        /* \"#utility.yul\":3421:3471   */\n      tag_149\n      jump\t// in\n    tag_185:\n        /* \"#utility.yul\":3411:3471   */\n      swap2\n      pop\n        /* \"#utility.yul\":3365:3481   */\n      pop\n        /* \"#utility.yul\":2061:3488   */\n      swap3\n      swap6\n      pop\n      swap3\n      swap6\n      pop\n      swap3\n      swap6\n      jump\t// out\n        /* \"#utility.yul\":3494:3823   */\n    tag_25:\n        /* \"#utility.yul\":3553:3559   */\n      0x00\n        /* \"#utility.yul\":3602:3604   */\n      0x20\n        /* \"#utility.yul\":3590:3599   */\n      dup3\n        /* \"#utility.yul\":3581:3588   */\n      dup5\n        /* \"#utility.yul\":3577:3600   */\n      sub\n        /* \"#utility.yul\":3573:3605   */\n      slt\n        /* \"#utility.yul\":3570:3689   */\n      iszero\n      tag_187\n      jumpi\n        /* \"#utility.yul\":3608:3687   */\n      tag_188\n      tag_166\n      jump\t// in\n    tag_188:\n        /* \"#utility.yul\":3570:3689   */\n    tag_187:\n        /* \"#utility.yul\":3728:3729   */\n      0x00\n        /* \"#utility.yul\":3753:3806   */\n      tag_189\n        /* \"#utility.yul\":3798:3805   */\n      dup5\n        /* \"#utility.yul\":3789:3795   */\n      dup3\n        /* \"#utility.yul\":3778:3787   */\n      dup6\n        /* \"#utility.yul\":3774:3796   */\n      add\n        /* \"#utility.yul\":3753:3806   */\n      tag_159\n      jump\t// in\n    tag_189:\n        /* \"#utility.yul\":3743:3806   */\n      swap2\n      pop\n        /* \"#utility.yul\":3699:3816   */\n      pop\n        /* \"#utility.yul\":3494:3823   */\n      swap3\n      swap2\n      pop\n      pop\n      jump\t// out\n        /* \"#utility.yul\":3829:3971   */\n    tag_190:\n        /* \"#utility.yul\":3932:3964   */\n      tag_192\n        /* \"#utility.yul\":3958:3963   */\n      dup2\n        /* \"#utility.yul\":3932:3964   */\n      tag_193\n      jump\t// in\n    tag_192:\n        /* \"#utility.yul\":3927:3930   */\n      dup3\n        /* \"#utility.yul\":3920:3965   */\n      mstore\n        /* \"#utility.yul\":3829:3971   */\n      pop\n      pop\n      jump\t// out\n        /* \"#utility.yul\":3977:4086   */\n    tag_194:\n        /* \"#utility.yul\":4058:4079   */\n      tag_196\n        /* \"#utility.yul\":4073:4078   */\n      dup2\n        /* \"#utility.yul\":4058:4079   */\n      tag_197\n      jump\t// in\n    tag_196:\n        /* \"#utility.yul\":4053:4056   */\n      dup3\n        /* \"#utility.yul\":4046:4080   */\n      mstore\n        /* \"#utility.yul\":3977:4086   */\n      pop\n      pop\n      jump\t// out\n        /* \"#utility.yul\":4092:4456   */\n    tag_198:\n        /* \"#utility.yul\":4180:4183   */\n      0x00\n        /* \"#utility.yul\":4208:4247   */\n      tag_200\n        /* \"#utility.yul\":4241:4246   */\n      dup3\n        /* \"#utility.yul\":4208:4247   */\n      tag_201\n      jump\t// in\n    tag_200:\n        /* \"#utility.yul\":4263:4334   */\n      tag_202\n        /* \"#utility.yul\":4327:4333   */\n      dup2\n        /* \"#utility.yul\":4322:4325   */\n      dup6\n        /* \"#utility.yul\":4263:4334   */\n      tag_203\n      jump\t// in\n    tag_202:\n        /* \"#utility.yul\":4256:4334   */\n      swap4\n      pop\n        /* \"#utility.yul\":4343:4395   */\n      tag_204\n        /* \"#utility.yul\":4388:4394   */\n      dup2\n        /* \"#utility.yul\":4383:4386   */\n      dup6\n        /* \"#utility.yul\":4376:4380   */\n      0x20\n        /* \"#utility.yul\":4369:4374   */\n      dup7\n        /* \"#utility.yul\":4365:4381   */\n      add\n        /* \"#utility.yul\":4343:4395   */\n      tag_205\n      jump\t// in\n    tag_204:\n        /* \"#utility.yul\":4420:4449   */\n      tag_206\n        /* \"#utility.yul\":4442:4448   */\n      dup2\n        /* \"#utility.yul\":4420:4449   */\n      tag_207\n      jump\t// in\n    tag_206:\n        /* \"#utility.yul\":4415:4418   */\n      dup5\n        /* \"#utility.yul\":4411:4450   */\n      add\n        /* \"#utility.yul\":4404:4450   */\n      swap2\n      pop\n        /* \"#utility.yul\":4184:4456   */\n      pop\n        /* \"#utility.yul\":4092:4456   */\n      swap3\n      swap2\n      pop\n      pop\n      jump\t// out\n        /* \"#utility.yul\":4462:4828   */\n    tag_208:\n        /* \"#utility.yul\":4604:4607   */\n      0x00\n        /* \"#utility.yul\":4625:4692   */\n      tag_210\n        /* \"#utility.yul\":4689:4691   */\n      0x1b\n        /* \"#utility.yul\":4684:4687   */\n      dup4\n        /* \"#utility.yul\":4625:4692   */\n      tag_203\n      jump\t// in\n    tag_210:\n        /* \"#utility.yul\":4618:4692   */\n      swap2\n      pop\n        /* \"#utility.yul\":4701:4794   */\n      tag_211\n        /* \"#utility.yul\":4790:4793   */\n      dup3\n        /* \"#utility.yul\":4701:4794   */\n      tag_212\n      jump\t// in\n    tag_211:\n        /* \"#utility.yul\":4819:4821   */\n      0x20\n        /* \"#utility.yul\":4814:4817   */\n      dup3\n        /* \"#utility.yul\":4810:4822   */\n      add\n        /* \"#utility.yul\":4803:4822   */\n      swap1\n      pop\n        /* \"#utility.yul\":4462:4828   */\n      swap2\n      swap1\n      pop\n      jump\t// out\n        /* \"#utility.yul\":4834:5200   */\n    tag_213:\n        /* \"#utility.yul\":4976:4979   */\n      0x00\n        /* \"#utility.yul\":4997:5064   */\n      tag_215\n        /* \"#utility.yul\":5061:5063   */\n      0x29\n        /* \"#utility.yul\":5056:5059   */\n      dup4\n        /* \"#utility.yul\":4997:5064   */\n      tag_203\n      jump\t// in\n    tag_215:\n        /* \"#utility.yul\":4990:5064   */\n      swap2\n      pop\n        /* \"#utility.yul\":5073:5166   */\n      tag_216\n        /* \"#utility.yul\":5162:5165   */\n      dup3\n        /* \"#utility.yul\":5073:5166   */\n      tag_217\n      jump\t// in\n    tag_216:\n        /* \"#utility.yul\":5191:5193   */\n      0x40\n        /* \"#utility.yul\":5186:5189   */\n      dup3\n        /* \"#utility.yul\":5182:5194   */\n      add\n        /* \"#utility.yul\":5175:5194   */\n      swap1\n      pop\n        /* \"#utility.yul\":4834:5200   */\n      swap2\n      swap1\n      pop\n      jump\t// out\n        /* \"#utility.yul\":5206:5324   */\n    tag_218:\n        /* \"#utility.yul\":5293:5317   */\n      tag_220\n        /* \"#utility.yul\":5311:5316   */\n      dup2\n        /* \"#utility.yul\":5293:5317   */\n      tag_221\n      jump\t// in\n    tag_220:\n        /* \"#utility.yul\":5288:5291   */\n      dup3\n        /* \"#utility.yul\":5281:5318   */\n      mstore\n        /* \"#utility.yul\":5206:5324   */\n      pop\n      pop\n      jump\t// out\n        /* \"#utility.yul\":5330:6307   */\n    tag_28:\n        /* \"#utility.yul\":5613:5617   */\n      0x00\n        /* \"#utility.yul\":5651:5654   */\n      0xc0\n        /* \"#utility.yul\":5640:5649   */\n      dup3\n        /* \"#utility.yul\":5636:5655   */\n      add\n        /* \"#utility.yul\":5628:5655   */\n      swap1\n      pop\n        /* \"#utility.yul\":5665:5752   */\n      tag_223\n        /* \"#utility.yul\":5749:5750   */\n      0x00\n        /* \"#utility.yul\":5738:5747   */\n      dup4\n        /* \"#utility.yul\":5734:5751   */\n      add\n        /* \"#utility.yul\":5725:5731   */\n      dup10\n        /* \"#utility.yul\":5665:5752   */\n      tag_190\n      jump\t// in\n    tag_223:\n        /* \"#utility.yul\":5799:5808   */\n      dup2\n        /* \"#utility.yul\":5793:5797   */\n      dup2\n        /* \"#utility.yul\":5789:5809   */\n      sub\n        /* \"#utility.yul\":5784:5786   */\n      0x20\n        /* \"#utility.yul\":5773:5782   */\n      dup4\n        /* \"#utility.yul\":5769:5787   */\n      add\n        /* \"#utility.yul\":5762:5810   */\n      mstore\n        /* \"#utility.yul\":5827:5905   */\n      tag_224\n        /* \"#utility.yul\":5900:5904   */\n      dup2\n        /* \"#utility.yul\":5891:5897   */\n      dup9\n        /* \"#utility.yul\":5827:5905   */\n      tag_198\n      jump\t// in\n    tag_224:\n        /* \"#utility.yul\":5819:5905   */\n      swap1\n      pop\n        /* \"#utility.yul\":5952:5961   */\n      dup2\n        /* \"#utility.yul\":5946:5950   */\n      dup2\n        /* \"#utility.yul\":5942:5962   */\n      sub\n        /* \"#utility.yul\":5937:5939   */\n      0x40\n        /* \"#utility.yul\":5926:5935   */\n      dup4\n        /* \"#utility.yul\":5922:5940   */\n      add\n        /* \"#utility.yul\":5915:5963   */\n      mstore\n        /* \"#utility.yul\":5980:6058   */\n      tag_225\n        /* \"#utility.yul\":6053:6057   */\n      dup2\n        /* \"#utility.yul\":6044:6050   */\n      dup8\n        /* \"#utility.yul\":5980:6058   */\n      tag_198\n      jump\t// in\n    tag_225:\n        /* \"#utility.yul\":5972:6058   */\n      swap1\n      pop\n        /* \"#utility.yul\":6068:6140   */\n      tag_226\n        /* \"#utility.yul\":6136:6138   */\n      0x60\n        /* \"#utility.yul\":6125:6134   */\n      dup4\n        /* \"#utility.yul\":6121:6139   */\n      add\n        /* \"#utility.yul\":6112:6118   */\n      dup7\n        /* \"#utility.yul\":6068:6140   */\n      tag_218\n      jump\t// in\n    tag_226:\n        /* \"#utility.yul\":6150:6223   */\n      tag_227\n        /* \"#utility.yul\":6218:6221   */\n      0x80\n        /* \"#utility.yul\":6207:6216   */\n      dup4\n        /* \"#utility.yul\":6203:6222   */\n      add\n        /* \"#utility.yul\":6194:6200   */\n      dup6\n        /* \"#utility.yul\":6150:6223   */\n      tag_218\n      jump\t// in\n    tag_227:\n        /* \"#utility.yul\":6233:6300   */\n      tag_228\n        /* \"#utility.yul\":6295:6298   */\n      0xa0\n        /* \"#utility.yul\":6284:6293   */\n      dup4\n        /* \"#utility.yul\":6280:6299   */\n      add\n        /* \"#utility.yul\":6271:6277   */\n      dup5\n        /* \"#utility.yul\":6233:6300   */\n      tag_194\n      jump\t// in\n    tag_228:\n        /* \"#utility.yul\":5330:6307   */\n      swap8\n      swap7\n      pop\n      pop\n      pop\n      pop\n      pop\n      pop\n      pop\n      jump\t// out\n        /* \"#utility.yul\":6313:6523   */\n    tag_38:\n        /* \"#utility.yul\":6400:6404   */\n      0x00\n        /* \"#utility.yul\":6438:6440   */\n      0x20\n        /* \"#utility.yul\":6427:6436   */\n      dup3\n        /* \"#utility.yul\":6423:6441   */\n      add\n        /* \"#utility.yul\":6415:6441   */\n      swap1\n      pop\n        /* \"#utility.yul\":6451:6516   */\n      tag_230\n        /* \"#utility.yul\":6513:6514   */\n      0x00\n        /* \"#utility.yul\":6502:6511   */\n      dup4\n        /* \"#utility.yul\":6498:6515   */\n      add\n        /* \"#utility.yul\":6489:6495   */\n      dup5\n        /* \"#utility.yul\":6451:6516   */\n      tag_194\n      jump\t// in\n    tag_230:\n        /* \"#utility.yul\":6313:6523   */\n      swap3\n      swap2\n      pop\n      pop\n      jump\t// out\n        /* \"#utility.yul\":6529:6948   */\n    tag_53:\n        /* \"#utility.yul\":6695:6699   */\n      0x00\n        /* \"#utility.yul\":6733:6735   */\n      0x20\n        /* \"#utility.yul\":6722:6731   */\n      dup3\n        /* \"#utility.yul\":6718:6736   */\n      add\n        /* \"#utility.yul\":6710:6736   */\n      swap1\n      pop\n        /* \"#utility.yul\":6782:6791   */\n      dup2\n        /* \"#utility.yul\":6776:6780   */\n      dup2\n        /* \"#utility.yul\":6772:6792   */\n      sub\n        /* \"#utility.yul\":6768:6769   */\n      0x00\n        /* \"#utility.yul\":6757:6766   */\n      dup4\n        /* \"#utility.yul\":6753:6770   */\n      add\n        /* \"#utility.yul\":6746:6793   */\n      mstore\n        /* \"#utility.yul\":6810:6941   */\n      tag_232\n        /* \"#utility.yul\":6936:6940   */\n      dup2\n        /* \"#utility.yul\":6810:6941   */\n      tag_208\n      jump\t// in\n    tag_232:\n        /* \"#utility.yul\":6802:6941   */\n      swap1\n      pop\n        /* \"#utility.yul\":6529:6948   */\n      swap2\n      swap1\n      pop\n      jump\t// out\n        /* \"#utility.yul\":6954:7373   */\n    tag_59:\n        /* \"#utility.yul\":7120:7124   */\n      0x00\n        /* \"#utility.yul\":7158:7160   */\n      0x20\n        /* \"#utility.yul\":7147:7156   */\n      dup3\n        /* \"#utility.yul\":7143:7161   */\n      add\n        /* \"#utility.yul\":7135:7161   */\n      swap1\n      pop\n        /* \"#utility.yul\":7207:7216   */\n      dup2\n        /* \"#utility.yul\":7201:7205   */\n      dup2\n        /* \"#utility.yul\":7197:7217   */\n      sub\n        /* \"#utility.yul\":7193:7194   */\n      0x00\n        /* \"#utility.yul\":7182:7191   */\n      dup4\n        /* \"#utility.yul\":7178:7195   */\n      add\n        /* \"#utility.yul\":7171:7218   */\n      mstore\n        /* \"#utility.yul\":7235:7366   */\n      tag_234\n        /* \"#utility.yul\":7361:7365   */\n      dup2\n        /* \"#utility.yul\":7235:7366   */\n      tag_213\n      jump\t// in\n    tag_234:\n        /* \"#utility.yul\":7227:7366   */\n      swap1\n      pop\n        /* \"#utility.yul\":6954:7373   */\n      swap2\n      swap1\n      pop\n      jump\t// out\n        /* \"#utility.yul\":7379:7601   */\n    tag_21:\n        /* \"#utility.yul\":7472:7476   */\n      0x00\n        /* \"#utility.yul\":7510:7512   */\n      0x20\n        /* \"#utility.yul\":7499:7508   */\n      dup3\n        /* \"#utility.yul\":7495:7513   */\n      add\n        /* \"#utility.yul\":7487:7513   */\n      swap1\n      pop\n        /* \"#utility.yul\":7523:7594   */\n      tag_236\n        /* \"#utility.yul\":7591:7592   */\n      0x00\n        /* \"#utility.yul\":7580:7589   */\n      dup4\n        /* \"#utility.yul\":7576:7593   */\n      add\n        /* \"#utility.yul\":7567:7573   */\n      dup5\n        /* \"#utility.yul\":7523:7594   */\n      tag_218\n      jump\t// in\n    tag_236:\n        /* \"#utility.yul\":7379:7601   */\n      swap3\n      swap2\n      pop\n      pop\n      jump\t// out\n        /* \"#utility.yul\":7607:7736   */\n    tag_135:\n        /* \"#utility.yul\":7641:7647   */\n      0x00\n        /* \"#utility.yul\":7668:7688   */\n      tag_238\n      tag_239\n      jump\t// in\n    tag_238:\n        /* \"#utility.yul\":7658:7688   */\n      swap1\n      pop\n        /* \"#utility.yul\":7697:7730   */\n      tag_240\n        /* \"#utility.yul\":7725:7729   */\n      dup3\n        /* \"#utility.yul\":7717:7723   */\n      dup3\n        /* \"#utility.yul\":7697:7730   */\n      tag_241\n      jump\t// in\n    tag_240:\n        /* \"#utility.yul\":7607:7736   */\n      swap2\n      swap1\n      pop\n      jump\t// out\n        /* \"#utility.yul\":7742:7817   */\n    tag_239:\n        /* \"#utility.yul\":7775:7781   */\n      0x00\n        /* \"#utility.yul\":7808:7810   */\n      0x40\n        /* \"#utility.yul\":7802:7811   */\n      mload\n        /* \"#utility.yul\":7792:7811   */\n      swap1\n      pop\n        /* \"#utility.yul\":7742:7817   */\n      swap1\n      jump\t// out\n        /* \"#utility.yul\":7823:8131   */\n    tag_134:\n        /* \"#utility.yul\":7885:7889   */\n      0x00\n        /* \"#utility.yul\":7975:7993   */\n      0xffffffffffffffff\n        /* \"#utility.yul\":7967:7973   */\n      dup3\n        /* \"#utility.yul\":7964:7994   */\n      gt\n        /* \"#utility.yul\":7961:8017   */\n      iszero\n      tag_244\n      jumpi\n        /* \"#utility.yul\":7997:8015   */\n      tag_245\n      tag_246\n      jump\t// in\n    tag_245:\n        /* \"#utility.yul\":7961:8017   */\n    tag_244:\n        /* \"#utility.yul\":8035:8064   */\n      tag_247\n        /* \"#utility.yul\":8057:8063   */\n      dup3\n        /* \"#utility.yul\":8035:8064   */\n      tag_207\n      jump\t// in\n    tag_247:\n        /* \"#utility.yul\":8027:8064   */\n      swap1\n      pop\n        /* \"#utility.yul\":8119:8123   */\n      0x20\n        /* \"#utility.yul\":8113:8117   */\n      dup2\n        /* \"#utility.yul\":8109:8124   */\n      add\n        /* \"#utility.yul\":8101:8124   */\n      swap1\n      pop\n        /* \"#utility.yul\":7823:8131   */\n      swap2\n      swap1\n      pop\n      jump\t// out\n        /* \"#utility.yul\":8137:8236   */\n    tag_201:\n        /* \"#utility.yul\":8189:8195   */\n      0x00\n        /* \"#utility.yul\":8223:8228   */\n      dup2\n        /* \"#utility.yul\":8217:8229   */\n      mload\n        /* \"#utility.yul\":8207:8229   */\n      swap1\n      pop\n        /* \"#utility.yul\":8137:8236   */\n      swap2\n      swap1\n      pop\n      jump\t// out\n        /* \"#utility.yul\":8242:8411   */\n    tag_203:\n        /* \"#utility.yul\":8326:8337   */\n      0x00\n        /* \"#utility.yul\":8360:8366   */\n      dup3\n        /* \"#utility.yul\":8355:8358   */\n      dup3\n        /* \"#utility.yul\":8348:8367   */\n      mstore\n        /* \"#utility.yul\":8400:8404   */\n      0x20\n        /* \"#utility.yul\":8395:8398   */\n      dup3\n        /* \"#utility.yul\":8391:8405   */\n      add\n        /* \"#utility.yul\":8376:8405   */\n      swap1\n      pop\n        /* \"#utility.yul\":8242:8411   */\n      swap3\n      swap2\n      pop\n      pop\n      jump\t// out\n        /* \"#utility.yul\":8417:8722   */\n    tag_117:\n        /* \"#utility.yul\":8457:8460   */\n      0x00\n        /* \"#utility.yul\":8476:8496   */\n      tag_251\n        /* \"#utility.yul\":8494:8495   */\n      dup3\n        /* \"#utility.yul\":8476:8496   */\n      tag_221\n      jump\t// in\n    tag_251:\n        /* \"#utility.yul\":8471:8496   */\n      swap2\n      pop\n        /* \"#utility.yul\":8510:8530   */\n      tag_252\n        /* \"#utility.yul\":8528:8529   */\n      dup4\n        /* \"#utility.yul\":8510:8530   */\n      tag_221\n      jump\t// in\n    tag_252:\n        /* \"#utility.yul\":8505:8530   */\n      swap3\n      pop\n        /* \"#utility.yul\":8664:8665   */\n      dup3\n        /* \"#utility.yul\":8596:8662   */\n      0xffffffffffffffffffffffffffffffffffffffffffffffffffffffffffffffff\n        /* \"#utility.yul\":8592:8666   */\n      sub\n        /* \"#utility.yul\":8589:8590   */\n      dup3\n        /* \"#utility.yul\":8586:8667   */\n      gt\n        /* \"#utility.yul\":8583:8690   */\n      iszero\n      tag_253\n      jumpi\n        /* \"#utility.yul\":8670:8688   */\n      tag_254\n      tag_255\n      jump\t// in\n    tag_254:\n        /* \"#utility.yul\":8583:8690   */\n    tag_253:\n        /* \"#utility.yul\":8714:8715   */\n      dup3\n        /* \"#utility.yul\":8711:8712   */\n      dup3\n        /* \"#utility.yul\":8707:8716   */\n      add\n        /* \"#utility.yul\":8700:8716   */\n      swap1\n      pop\n        /* \"#utility.yul\":8417:8722   */\n      swap3\n      swap2\n      pop\n      pop\n      jump\t// out\n        /* \"#utility.yul\":8728:8824   */\n    tag_256:\n        /* \"#utility.yul\":8765:8772   */\n      0x00\n        /* \"#utility.yul\":8794:8818   */\n      tag_258\n        /* \"#utility.yul\":8812:8817   */\n      dup3\n        /* \"#utility.yul\":8794:8818   */\n      tag_259\n      jump\t// in\n    tag_258:\n        /* \"#utility.yul\":8783:8818   */\n      swap1\n      pop\n        /* \"#utility.yul\":8728:8824   */\n      swap2\n      swap1\n      pop\n      jump\t// out\n        /* \"#utility.yul\":8830:8934   */\n    tag_193:\n        /* \"#utility.yul\":8875:8882   */\n      0x00\n        /* \"#utility.yul\":8904:8928   */\n      tag_261\n        /* \"#utility.yul\":8922:8927   */\n      dup3\n        /* \"#utility.yul\":8904:8928   */\n      tag_259\n      jump\t// in\n    tag_261:\n        /* \"#utility.yul\":8893:8928   */\n      swap1\n      pop\n        /* \"#utility.yul\":8830:8934   */\n      swap2\n      swap1\n      pop\n      jump\t// out\n        /* \"#utility.yul\":8940:9030   */\n    tag_197:\n        /* \"#utility.yul\":8974:8981   */\n      0x00\n        /* \"#utility.yul\":9017:9022   */\n      dup2\n        /* \"#utility.yul\":9010:9023   */\n      iszero\n        /* \"#utility.yul\":9003:9024   */\n      iszero\n        /* \"#utility.yul\":8992:9024   */\n      swap1\n      pop\n        /* \"#utility.yul\":8940:9030   */\n      swap2\n      swap1\n      pop\n      jump\t// out\n        /* \"#utility.yul\":9036:9162   */\n    tag_259:\n        /* \"#utility.yul\":9073:9080   */\n      0x00\n        /* \"#utility.yul\":9113:9155   */\n      0xffffffffffffffffffffffffffffffffffffffff\n        /* \"#utility.yul\":9106:9111   */\n      dup3\n        /* \"#utility.yul\":9102:9156   */\n      and\n        /* \"#utility.yul\":9091:9156   */\n      swap1\n      pop\n        /* \"#utility.yul\":9036:9162   */\n      swap2\n      swap1\n      pop\n      jump\t// out\n        /* \"#utility.yul\":9168:9245   */\n    tag_221:\n        /* \"#utility.yul\":9205:9212   */\n      0x00\n        /* \"#utility.yul\":9234:9239   */\n      dup2\n        /* \"#utility.yul\":9223:9239   */\n      swap1\n      pop\n        /* \"#utility.yul\":9168:9245   */\n      swap2\n      swap1\n      pop\n      jump\t// out\n        /* \"#utility.yul\":9251:9405   */\n    tag_140:\n        /* \"#utility.yul\":9335:9341   */\n      dup3\n        /* \"#utility.yul\":9330:9333   */\n      dup2\n        /* \"#utility.yul\":9325:9328   */\n      dup4\n        /* \"#utility.yul\":9312:9342   */\n      calldatacopy\n        /* \"#utility.yul\":9397:9398   */\n      0x00\n        /* \"#utility.yul\":9388:9394   */\n      dup4\n        /* \"#utility.yul\":9383:9386   */\n      dup4\n        /* \"#utility.yul\":9379:9395   */\n      add\n        /* \"#utility.yul\":9372:9399   */\n      mstore\n        /* \"#utility.yul\":9251:9405   */\n      pop\n      pop\n      pop\n      jump\t// out\n        /* \"#utility.yul\":9411:9718   */\n    tag_205:\n        /* \"#utility.yul\":9479:9480   */\n      0x00\n        /* \"#utility.yul\":9489:9602   */\n    tag_267:\n        /* \"#utility.yul\":9503:9509   */\n      dup4\n        /* \"#utility.yul\":9500:9501   */\n      dup2\n        /* \"#utility.yul\":9497:9510   */\n      lt\n        /* \"#utility.yul\":9489:9602   */\n      iszero\n      tag_269\n      jumpi\n        /* \"#utility.yul\":9588:9589   */\n      dup1\n        /* \"#utility.yul\":9583:9586   */\n      dup3\n        /* \"#utility.yul\":9579:9590   */\n      add\n        /* \"#utility.yul\":9573:9591   */\n      mload\n        /* \"#utility.yul\":9569:9570   */\n      dup2\n        /* \"#utility.yul\":9564:9567   */\n      dup5\n        /* \"#utility.yul\":9560:9571   */\n      add\n        /* \"#utility.yul\":9553:9592   */\n      mstore\n        /* \"#utility.yul\":9525:9527   */\n      0x20\n        /* \"#utility.yul\":9522:9523   */\n      dup2\n        /* \"#utility.yul\":9518:9528   */\n      add\n        /* \"#utility.yul\":9513:9528   */\n      swap1\n      pop\n        /* \"#utility.yul\":9489:9602   */\n      jump(tag_267)\n    tag_269:\n        /* \"#utility.yul\":9620:9626   */\n      dup4\n        /* \"#utility.yul\":9617:9618   */\n      dup2\n        /* \"#utility.yul\":9614:9627   */\n      gt\n        /* \"#utility.yul\":9611:9712   */\n      iszero\n      tag_270\n      jumpi\n        /* \"#utility.yul\":9700:9701   */\n      0x00\n        /* \"#utility.yul\":9691:9697   */\n      dup5\n        /* \"#utility.yul\":9686:9689   */\n      dup5\n        /* \"#utility.yul\":9682:9698   */\n      add\n        /* \"#utility.yul\":9675:9702   */\n      mstore\n        /* \"#utility.yul\":9611:9712   */\n    tag_270:\n        /* \"#utility.yul\":9460:9718   */\n      pop\n        /* \"#utility.yul\":9411:9718   */\n      pop\n      pop\n      pop\n      jump\t// out\n        /* \"#utility.yul\":9724:10044   */\n    tag_72:\n        /* \"#utility.yul\":9768:9774   */\n      0x00\n        /* \"#utility.yul\":9805:9806   */\n      0x02\n        /* \"#utility.yul\":9799:9803   */\n      dup3\n        /* \"#utility.yul\":9795:9807   */\n      div\n        /* \"#utility.yul\":9785:9807   */\n      swap1\n      pop\n        /* \"#utility.yul\":9852:9853   */\n      0x01\n        /* \"#utility.yul\":9846:9850   */\n      dup3\n        /* \"#utility.yul\":9842:9854   */\n      and\n        /* \"#utility.yul\":9873:9891   */\n      dup1\n        /* \"#utility.yul\":9863:9944   */\n      tag_272\n      jumpi\n        /* \"#utility.yul\":9929:9933   */\n      0x7f\n        /* \"#utility.yul\":9921:9927   */\n      dup3\n        /* \"#utility.yul\":9917:9934   */\n      and\n        /* \"#utility.yul\":9907:9934   */\n      swap2\n      pop\n        /* \"#utility.yul\":9863:9944   */\n    tag_272:\n        /* \"#utility.yul\":9991:9993   */\n      0x20\n        /* \"#utility.yul\":9983:9989   */\n      dup3\n        /* \"#utility.yul\":9980:9994   */\n      lt\n        /* \"#utility.yul\":9960:9978   */\n      dup2\n        /* \"#utility.yul\":9957:9995   */\n      eq\n        /* \"#utility.yul\":9954:10038   */\n      iszero\n      tag_273\n      jumpi\n        /* \"#utility.yul\":10010:10028   */\n      tag_274\n      tag_275\n      jump\t// in\n    tag_274:\n        /* \"#utility.yul\":9954:10038   */\n    tag_273:\n        /* \"#utility.yul\":9775:10044   */\n      pop\n        /* \"#utility.yul\":9724:10044   */\n      swap2\n      swap1\n      pop\n      jump\t// out\n        /* \"#utility.yul\":10050:10331   */\n    tag_241:\n        /* \"#utility.yul\":10133:10160   */\n      tag_277\n        /* \"#utility.yul\":10155:10159   */\n      dup3\n        /* \"#utility.yul\":10133:10160   */\n      tag_207\n      jump\t// in\n    tag_277:\n        /* \"#utility.yul\":10125:10131   */\n      dup2\n        /* \"#utility.yul\":10121:10161   */\n      add\n        /* \"#utility.yul\":10263:10269   */\n      dup2\n        /* \"#utility.yul\":10251:10261   */\n      dup2\n        /* \"#utility.yul\":10248:10270   */\n      lt\n        /* \"#utility.yul\":10227:10245   */\n      0xffffffffffffffff\n        /* \"#utility.yul\":10215:10225   */\n      dup3\n        /* \"#utility.yul\":10212:10246   */\n      gt\n        /* \"#utility.yul\":10209:10271   */\n      or\n        /* \"#utility.yul\":10206:10294   */\n      iszero\n      tag_278\n      jumpi\n        /* \"#utility.yul\":10274:10292   */\n      tag_279\n      tag_246\n      jump\t// in\n    tag_279:\n        /* \"#utility.yul\":10206:10294   */\n    tag_278:\n        /* \"#utility.yul\":10314:10324   */\n      dup1\n        /* \"#utility.yul\":10310:10312   */\n      0x40\n        /* \"#utility.yul\":10303:10325   */\n      mstore\n        /* \"#utility.yul\":10093:10331   */\n      pop\n        /* \"#utility.yul\":10050:10331   */\n      pop\n      pop\n      jump\t// out\n        /* \"#utility.yul\":10337:10570   */\n    tag_104:\n        /* \"#utility.yul\":10376:10379   */\n      0x00\n        /* \"#utility.yul\":10399:10423   */\n      tag_281\n        /* \"#utility.yul\":10417:10422   */\n      dup3\n        /* \"#utility.yul\":10399:10423   */\n      tag_221\n      jump\t// in\n    tag_281:\n        /* \"#utility.yul\":10390:10423   */\n      swap2\n      pop\n        /* \"#utility.yul\":10445:10511   */\n      0xffffffffffffffffffffffffffffffffffffffffffffffffffffffffffffffff\n        /* \"#utility.yul\":10438:10443   */\n      dup3\n        /* \"#utility.yul\":10435:10512   */\n      eq\n        /* \"#utility.yul\":10432:10535   */\n      iszero\n      tag_282\n      jumpi\n        /* \"#utility.yul\":10515:10533   */\n      tag_283\n      tag_255\n      jump\t// in\n    tag_283:\n        /* \"#utility.yul\":10432:10535   */\n    tag_282:\n        /* \"#utility.yul\":10562:10563   */\n      0x01\n        /* \"#utility.yul\":10555:10560   */\n      dup3\n        /* \"#utility.yul\":10551:10564   */\n      add\n        /* \"#utility.yul\":10544:10564   */\n      swap1\n      pop\n        /* \"#utility.yul\":10337:10570   */\n      swap2\n      swap1\n      pop\n      jump\t// out\n        /* \"#utility.yul\":10576:10756   */\n    tag_255:\n        /* \"#utility.yul\":10624:10701   */\n      0x4e487b7100000000000000000000000000000000000000000000000000000000\n        /* \"#utility.yul\":10621:10622   */\n      0x00\n        /* \"#utility.yul\":10614:10702   */\n      mstore\n        /* \"#utility.yul\":10721:10725   */\n      0x11\n        /* \"#utility.yul\":10718:10719   */\n      0x04\n        /* \"#utility.yul\":10711:10726   */\n      mstore\n        /* \"#utility.yul\":10745:10749   */\n      0x24\n        /* \"#utility.yul\":10742:10743   */\n      0x00\n        /* \"#utility.yul\":10735:10750   */\n      revert\n        /* \"#utility.yul\":10762:10942   */\n    tag_275:\n        /* \"#utility.yul\":10810:10887   */\n      0x4e487b7100000000000000000000000000000000000000000000000000000000\n        /* \"#utility.yul\":10807:10808   */\n      0x00\n        /* \"#utility.yul\":10800:10888   */\n      mstore\n        /* \"#utility.yul\":10907:10911   */\n      0x22\n        /* \"#utility.yul\":10904:10905   */\n      0x04\n        /* \"#utility.yul\":10897:10912   */\n      mstore\n        /* \"#utility.yul\":10931:10935   */\n      0x24\n        /* \"#utility.yul\":10928:10929   */\n      0x00\n        /* \"#utility.yul\":10921:10936   */\n      revert\n        /* \"#utility.yul\":10948:11128   */\n    tag_49:\n        /* \"#utility.yul\":10996:11073   */\n      0x4e487b7100000000000000000000000000000000000000000000000000000000\n        /* \"#utility.yul\":10993:10994   */\n      0x00\n        /* \"#utility.yul\":10986:11074   */\n      mstore\n        /* \"#utility.yul\":11093:11097   */\n      0x32\n        /* \"#utility.yul\":11090:11091   */\n      0x04\n        /* \"#utility.yul\":11083:11098   */\n      mstore\n        /* \"#utility.yul\":11117:11121   */\n      0x24\n        /* \"#utility.yul\":11114:11115   */\n      0x00\n        /* \"#utility.yul\":11107:11122   */\n      revert\n        /* \"#utility.yul\":11134:11314   */\n    tag_246:\n        /* \"#utility.yul\":11182:11259   */\n      0x4e487b7100000000000000000000000000000000000000000000000000000000\n        /* \"#utility.yul\":11179:11180   */\n      0x00\n        /* \"#utility.yul\":11172:11260   */\n      mstore\n        /* \"#utility.yul\":11279:11283   */\n      0x41\n        /* \"#utility.yul\":11276:11277   */\n      0x04\n        /* \"#utility.yul\":11269:11284   */\n      mstore\n        /* \"#utility.yul\":11303:11307   */\n      0x24\n        /* \"#utility.yul\":11300:11301   */\n      0x00\n        /* \"#utility.yul\":11293:11308   */\n      revert\n        /* \"#utility.yul\":11320:11437   */\n    tag_157:\n        /* \"#utility.yul\":11429:11430   */\n      0x00\n        /* \"#utility.yul\":11426:11427   */\n      dup1\n        /* \"#utility.yul\":11419:11431   */\n      revert\n        /* \"#utility.yul\":11443:11560   */\n    tag_138:\n        /* \"#utility.yul\":11552:11553   */\n      0x00\n        /* \"#utility.yul\":11549:11550   */\n      dup1\n        /* \"#utility.yul\":11542:11554   */\n      revert\n        /* \"#utility.yul\":11566:11683   */\n    tag_178:\n        /* \"#utility.yul\":11675:11676   */\n      0x00\n        /* \"#utility.yul\":11672:11673   */\n      dup1\n        /* \"#utility.yul\":11665:11677   */\n      revert\n        /* \"#utility.yul\":11689:11806   */\n    tag_166:\n        /* \"#utility.yul\":11798:11799   */\n      0x00\n        /* \"#utility.yul\":11795:11796   */\n      dup1\n        /* \"#utility.yul\":11788:11800   */\n      revert\n        /* \"#utility.yul\":11812:11914   */\n    tag_207:\n        /* \"#utility.yul\":11853:11859   */\n      0x00\n        /* \"#utility.yul\":11904:11906   */\n      0x1f\n        /* \"#utility.yul\":11900:11907   */\n      not\n        /* \"#utility.yul\":11895:11897   */\n      0x1f\n        /* \"#utility.yul\":11888:11893   */\n      dup4\n        /* \"#utility.yul\":11884:11898   */\n      add\n        /* \"#utility.yul\":11880:11908   */\n      and\n        /* \"#utility.yul\":11870:11908   */\n      swap1\n      pop\n        /* \"#utility.yul\":11812:11914   */\n      swap2\n      swap1\n      pop\n      jump\t// out\n        /* \"#utility.yul\":11920:12097   */\n    tag_212:\n        /* \"#utility.yul\":12060:12089   */\n      0x796f75206d757374206265206b696420746f2077697468647261770000000000\n        /* \"#utility.yul\":12056:12057   */\n      0x00\n        /* \"#utility.yul\":12048:12054   */\n      dup3\n        /* \"#utility.yul\":12044:12058   */\n      add\n        /* \"#utility.yul\":12037:12090   */\n      mstore\n        /* \"#utility.yul\":11920:12097   */\n      pop\n      jump\t// out\n        /* \"#utility.yul\":12103:12331   */\n    tag_217:\n        /* \"#utility.yul\":12243:12277   */\n      0x796f7520617265206e6f742061626c6520746f20776974686472617720617420\n        /* \"#utility.yul\":12239:12240   */\n      0x00\n        /* \"#utility.yul\":12231:12237   */\n      dup3\n        /* \"#utility.yul\":12227:12241   */\n      add\n        /* \"#utility.yul\":12220:12278   */\n      mstore\n        /* \"#utility.yul\":12312:12323   */\n      0x746869732074696d650000000000000000000000000000000000000000000000\n        /* \"#utility.yul\":12307:12309   */\n      0x20\n        /* \"#utility.yul\":12299:12305   */\n      dup3\n        /* \"#utility.yul\":12295:12310   */\n      add\n        /* \"#utility.yul\":12288:12324   */\n      mstore\n        /* \"#utility.yul\":12103:12331   */\n      pop\n      jump\t// out\n        /* \"#utility.yul\":12337:12459   */\n    tag_144:\n        /* \"#utility.yul\":12410:12434   */\n      tag_296\n        /* \"#utility.yul\":12428:12433   */\n      dup2\n        /* \"#utility.yul\":12410:12434   */\n      tag_256\n      jump\t// in\n    tag_296:\n        /* \"#utility.yul\":12403:12408   */\n      dup2\n        /* \"#utility.yul\":12400:12435   */\n      eq\n        /* \"#utility.yul\":12390:12453   */\n      tag_297\n      jumpi\n        /* \"#utility.yul\":12449:12450   */\n      0x00\n        /* \"#utility.yul\":12446:12447   */\n      dup1\n        /* \"#utility.yul\":12439:12451   */\n      revert\n        /* \"#utility.yul\":12390:12453   */\n    tag_297:\n        /* \"#utility.yul\":12337:12459   */\n      pop\n      jump\t// out\n        /* \"#utility.yul\":12465:12603   */\n    tag_148:\n        /* \"#utility.yul\":12546:12578   */\n      tag_299\n        /* \"#utility.yul\":12572:12577   */\n      dup2\n        /* \"#utility.yul\":12546:12578   */\n      tag_193\n      jump\t// in\n    tag_299:\n        /* \"#utility.yul\":12539:12544   */\n      dup2\n        /* \"#utility.yul\":12536:12579   */\n      eq\n        /* \"#utility.yul\":12526:12597   */\n      tag_300\n      jumpi\n        /* \"#utility.yul\":12593:12594   */\n      0x00\n        /* \"#utility.yul\":12590:12591   */\n      dup1\n        /* \"#utility.yul\":12583:12595   */\n      revert\n        /* \"#utility.yul\":12526:12597   */\n    tag_300:\n        /* \"#utility.yul\":12465:12603   */\n      pop\n      jump\t// out\n        /* \"#utility.yul\":12609:12725   */\n    tag_152:\n        /* \"#utility.yul\":12679:12700   */\n      tag_302\n        /* \"#utility.yul\":12694:12699   */\n      dup2\n        /* \"#utility.yul\":12679:12700   */\n      tag_197\n      jump\t// in\n    tag_302:\n        /* \"#utility.yul\":12672:12677   */\n      dup2\n        /* \"#utility.yul\":12669:12701   */\n      eq\n        /* \"#utility.yul\":12659:12719   */\n      tag_303\n      jumpi\n        /* \"#utility.yul\":12715:12716   */\n      0x00\n        /* \"#utility.yul\":12712:12713   */\n      dup1\n        /* \"#utility.yul\":12705:12717   */\n      revert\n        /* \"#utility.yul\":12659:12719   */\n    tag_303:\n        /* \"#utility.yul\":12609:12725   */\n      pop\n      jump\t// out\n        /* \"#utility.yul\":12731:12853   */\n    tag_162:\n        /* \"#utility.yul\":12804:12828   */\n      tag_305\n        /* \"#utility.yul\":12822:12827   */\n      dup2\n        /* \"#utility.yul\":12804:12828   */\n      tag_221\n      jump\t// in\n    tag_305:\n        /* \"#utility.yul\":12797:12802   */\n      dup2\n        /* \"#utility.yul\":12794:12829   */\n      eq\n        /* \"#utility.yul\":12784:12847   */\n      tag_306\n      jumpi\n        /* \"#utility.yul\":12843:12844   */\n      0x00\n        /* \"#utility.yul\":12840:12841   */\n      dup1\n        /* \"#utility.yul\":12833:12845   */\n      revert\n        /* \"#utility.yul\":12784:12847   */\n    tag_306:\n        /* \"#utility.yul\":12731:12853   */\n      pop\n      jump\t// out\n\n    auxdata: 0xa26469706673582212207490fc2d19746720b3d06de17d81b5b9de95084fe44c3592a0fb025c08b57d2964736f6c63430008070033\n}\n",
				"bytecode": {
					"linkReferences": {},
					"object": "608060405234801561001057600080fd5b50336000806101000a81548173ffffffffffffffffffffffffffffffffffffffff021916908373ffffffffffffffffffffffffffffffffffffffff16021790555061107e806100606000396000f3fe6080604052600436106100555760003560e01c806331d575c51461005a57806351cff8d914610083578063722713f71461009f5780637285fd3a146100ca57806382fc925d1461010c578063a25db8ce14610128575b600080fd5b34801561006657600080fd5b50610081600480360381019061007c9190610a00565b610165565b005b61009d600480360381019061009891906109d3565b610294565b005b3480156100ab57600080fd5b506100b4610482565b6040516100c19190610c68565b60405180910390f35b3480156100d657600080fd5b506100f160048036038101906100ec9190610ac5565b61048a565b60405161010396959493929190610b9e565b60405180910390f35b610126600480360381019061012191906109a6565b610613565b005b34801561013457600080fd5b5061014f600480360381019061014a91906109a6565b61061f565b60405161015c9190610c0d565b60405180910390f35b60016040518060c001604052808873ffffffffffffffffffffffffffffffffffffffff168152602001878152602001868152602001858152602001848152602001831515815250908060018154018082558091505060019003906000526020600020906006020160009091909190915060008201518160000160006101000a81548173ffffffffffffffffffffffffffffffffffffffff021916908373ffffffffffffffffffffffffffffffffffffffff160217905550602082015181600101908051906020019061023892919061083f565b50604082015181600201908051906020019061025592919061083f565b50606082015181600301556080820151816004015560a08201518160050160006101000a81548160ff0219169083151502179055505050505050505050565b600061029f826106ac565b9050600181815481106102b5576102b4610ef1565b5b906000526020600020906006020160000160009054906101000a900473ffffffffffffffffffffffffffffffffffffffff1673ffffffffffffffffffffffffffffffffffffffff163373ffffffffffffffffffffffffffffffffffffffff1614610354576040517f08c379a000000000000000000000000000000000000000000000000000000000815260040161034b90610c28565b60405180910390fd5b600115156001828154811061036c5761036b610ef1565b5b906000526020600020906006020160050160009054906101000a900460ff161515146103cd576040517f08c379a00000000000000000000000000000000000000000000000000000000081526004016103c490610c48565b60405180910390fd5b600181815481106103e1576103e0610ef1565b5b906000526020600020906006020160000160009054906101000a900473ffffffffffffffffffffffffffffffffffffffff1673ffffffffffffffffffffffffffffffffffffffff166108fc600183815481106104405761043f610ef1565b5b9060005260206000209060060201600401549081150290604051600060405180830381858888f1935050505015801561047d573d6000803e3d6000fd5b505050565b600047905090565b6001818154811061049a57600080fd5b90600052602060002090600602016000915090508060000160009054906101000a900473ffffffffffffffffffffffffffffffffffffffff16908060010180546104e390610de7565b80601f016020809104026020016040519081016040528092919081815260200182805461050f90610de7565b801561055c5780601f106105315761010080835404028352916020019161055c565b820191906000526020600020905b81548152906001019060200180831161053f57829003601f168201915b50505050509080600201805461057190610de7565b80601f016020809104026020016040519081016040528092919081815260200182805461059d90610de7565b80156105ea5780601f106105bf576101008083540402835291602001916105ea565b820191906000526020600020905b8154815290600101906020018083116105cd57829003601f168201915b5050505050908060030154908060040154908060050160009054906101000a900460ff16905086565b61061c81610762565b50565b60008061062b836106ac565b90506001818154811061064157610640610ef1565b5b9060005260206000209060060201600301544211156106a157600180828154811061066f5761066e610ef1565b5b906000526020600020906006020160050160006101000a81548160ff02191690831515021790555060019150506106a7565b60009150505b919050565b600080600090505b600180549050811015610756578273ffffffffffffffffffffffffffffffffffffffff16600182815481106106ec576106eb610ef1565b5b906000526020600020906006020160000160009054906101000a900473ffffffffffffffffffffffffffffffffffffffff1673ffffffffffffffffffffffffffffffffffffffff161415610743578091505061075d565b808061074e90610e4a565b9150506106b4565b506103e790505b919050565b60005b60018054905081101561083b578173ffffffffffffffffffffffffffffffffffffffff166001828154811061079d5761079c610ef1565b5b906000526020600020906006020160000160009054906101000a900473ffffffffffffffffffffffffffffffffffffffff1673ffffffffffffffffffffffffffffffffffffffff161415610828573460018281548110610800576107ff610ef1565b5b906000526020600020906006020160040160008282546108209190610cf5565b925050819055505b808061083390610e4a565b915050610765565b5050565b82805461084b90610de7565b90600052602060002090601f01602090048101928261086d57600085556108b4565b82601f1061088657805160ff19168380011785556108b4565b828001600101855582156108b4579182015b828111156108b3578251825591602001919060010190610898565b5b5090506108c191906108c5565b5090565b5b808211156108de5760008160009055506001016108c6565b5090565b60006108f56108f084610ca8565b610c83565b90508281526020810184848401111561091157610910610f54565b5b61091c848285610da5565b509392505050565b60008135905061093381610fec565b92915050565b60008135905061094881611003565b92915050565b60008135905061095d8161101a565b92915050565b600082601f83011261097857610977610f4f565b5b81356109888482602086016108e2565b91505092915050565b6000813590506109a081611031565b92915050565b6000602082840312156109bc576109bb610f5e565b5b60006109ca84828501610924565b91505092915050565b6000602082840312156109e9576109e8610f5e565b5b60006109f784828501610939565b91505092915050565b60008060008060008060c08789031215610a1d57610a1c610f5e565b5b6000610a2b89828a01610939565b965050602087013567ffffffffffffffff811115610a4c57610a4b610f59565b5b610a5889828a01610963565b955050604087013567ffffffffffffffff811115610a7957610a78610f59565b5b610a8589828a01610963565b9450506060610a9689828a01610991565b9350506080610aa789828a01610991565b92505060a0610ab889828a0161094e565b9150509295509295509295565b600060208284031215610adb57610ada610f5e565b5b6000610ae984828501610991565b91505092915050565b610afb81610d5d565b82525050565b610b0a81610d6f565b82525050565b6000610b1b82610cd9565b610b258185610ce4565b9350610b35818560208601610db4565b610b3e81610f63565b840191505092915050565b6000610b56601b83610ce4565b9150610b6182610f74565b602082019050919050565b6000610b79602983610ce4565b9150610b8482610f9d565b604082019050919050565b610b9881610d9b565b82525050565b600060c082019050610bb36000830189610af2565b8181036020830152610bc58188610b10565b90508181036040830152610bd98187610b10565b9050610be86060830186610b8f565b610bf56080830185610b8f565b610c0260a0830184610b01565b979650505050505050565b6000602082019050610c226000830184610b01565b92915050565b60006020820190508181036000830152610c4181610b49565b9050919050565b60006020820190508181036000830152610c6181610b6c565b9050919050565b6000602082019050610c7d6000830184610b8f565b92915050565b6000610c8d610c9e565b9050610c998282610e19565b919050565b6000604051905090565b600067ffffffffffffffff821115610cc357610cc2610f20565b5b610ccc82610f63565b9050602081019050919050565b600081519050919050565b600082825260208201905092915050565b6000610d0082610d9b565b9150610d0b83610d9b565b9250827fffffffffffffffffffffffffffffffffffffffffffffffffffffffffffffffff03821115610d4057610d3f610e93565b5b828201905092915050565b6000610d5682610d7b565b9050919050565b6000610d6882610d7b565b9050919050565b60008115159050919050565b600073ffffffffffffffffffffffffffffffffffffffff82169050919050565b6000819050919050565b82818337600083830152505050565b60005b83811015610dd2578082015181840152602081019050610db7565b83811115610de1576000848401525b50505050565b60006002820490506001821680610dff57607f821691505b60208210811415610e1357610e12610ec2565b5b50919050565b610e2282610f63565b810181811067ffffffffffffffff82111715610e4157610e40610f20565b5b80604052505050565b6000610e5582610d9b565b91507fffffffffffffffffffffffffffffffffffffffffffffffffffffffffffffffff821415610e8857610e87610e93565b5b600182019050919050565b7f4e487b7100000000000000000000000000000000000000000000000000000000600052601160045260246000fd5b7f4e487b7100000000000000000000000000000000000000000000000000000000600052602260045260246000fd5b7f4e487b7100000000000000000000000000000000000000000000000000000000600052603260045260246000fd5b7f4e487b7100000000000000000000000000000000000000000000000000000000600052604160045260246000fd5b600080fd5b600080fd5b600080fd5b600080fd5b6000601f19601f8301169050919050565b7f796f75206d757374206265206b696420746f2077697468647261770000000000600082015250565b7f796f7520617265206e6f742061626c6520746f2077697468647261772061742060008201527f746869732074696d650000000000000000000000000000000000000000000000602082015250565b610ff581610d4b565b811461100057600080fd5b50565b61100c81610d5d565b811461101757600080fd5b50565b61102381610d6f565b811461102e57600080fd5b50565b61103a81610d9b565b811461104557600080fd5b5056fea26469706673582212207490fc2d19746720b3d06de17d81b5b9de95084fe44c3592a0fb025c08b57d2964736f6c63430008070033",
					"opcodes": "PUSH1 0x80 PUSH1 0x40 MSTORE CALLVALUE DUP1 ISZERO PUSH2 0x10 JUMPI PUSH1 0x0 DUP1 REVERT JUMPDEST POP CALLER PUSH1 0x0 DUP1 PUSH2 0x100 EXP DUP2 SLOAD DUP2 PUSH20 0xFFFFFFFFFFFFFFFFFFFFFFFFFFFFFFFFFFFFFFFF MUL NOT AND SWAP1 DUP4 PUSH20 0xFFFFFFFFFFFFFFFFFFFFFFFFFFFFFFFFFFFFFFFF AND MUL OR SWAP1 SSTORE POP PUSH2 0x107E DUP1 PUSH2 0x60 PUSH1 0x0 CODECOPY PUSH1 0x0 RETURN INVALID PUSH1 0x80 PUSH1 0x40 MSTORE PUSH1 0x4 CALLDATASIZE LT PUSH2 0x55 JUMPI PUSH1 0x0 CALLDATALOAD PUSH1 0xE0 SHR DUP1 PUSH4 0x31D575C5 EQ PUSH2 0x5A JUMPI DUP1 PUSH4 0x51CFF8D9 EQ PUSH2 0x83 JUMPI DUP1 PUSH4 0x722713F7 EQ PUSH2 0x9F JUMPI DUP1 PUSH4 0x7285FD3A EQ PUSH2 0xCA JUMPI DUP1 PUSH4 0x82FC925D EQ PUSH2 0x10C JUMPI DUP1 PUSH4 0xA25DB8CE EQ PUSH2 0x128 JUMPI JUMPDEST PUSH1 0x0 DUP1 REVERT JUMPDEST CALLVALUE DUP1 ISZERO PUSH2 0x66 JUMPI PUSH1 0x0 DUP1 REVERT JUMPDEST POP PUSH2 0x81 PUSH1 0x4 DUP1 CALLDATASIZE SUB DUP2 ADD SWAP1 PUSH2 0x7C SWAP2 SWAP1 PUSH2 0xA00 JUMP JUMPDEST PUSH2 0x165 JUMP JUMPDEST STOP JUMPDEST PUSH2 0x9D PUSH1 0x4 DUP1 CALLDATASIZE SUB DUP2 ADD SWAP1 PUSH2 0x98 SWAP2 SWAP1 PUSH2 0x9D3 JUMP JUMPDEST PUSH2 0x294 JUMP JUMPDEST STOP JUMPDEST CALLVALUE DUP1 ISZERO PUSH2 0xAB JUMPI PUSH1 0x0 DUP1 REVERT JUMPDEST POP PUSH2 0xB4 PUSH2 0x482 JUMP JUMPDEST PUSH1 0x40 MLOAD PUSH2 0xC1 SWAP2 SWAP1 PUSH2 0xC68 JUMP JUMPDEST PUSH1 0x40 MLOAD DUP1 SWAP2 SUB SWAP1 RETURN JUMPDEST CALLVALUE DUP1 ISZERO PUSH2 0xD6 JUMPI PUSH1 0x0 DUP1 REVERT JUMPDEST POP PUSH2 0xF1 PUSH1 0x4 DUP1 CALLDATASIZE SUB DUP2 ADD SWAP1 PUSH2 0xEC SWAP2 SWAP1 PUSH2 0xAC5 JUMP JUMPDEST PUSH2 0x48A JUMP JUMPDEST PUSH1 0x40 MLOAD PUSH2 0x103 SWAP7 SWAP6 SWAP5 SWAP4 SWAP3 SWAP2 SWAP1 PUSH2 0xB9E JUMP JUMPDEST PUSH1 0x40 MLOAD DUP1 SWAP2 SUB SWAP1 RETURN JUMPDEST PUSH2 0x126 PUSH1 0x4 DUP1 CALLDATASIZE SUB DUP2 ADD SWAP1 PUSH2 0x121 SWAP2 SWAP1 PUSH2 0x9A6 JUMP JUMPDEST PUSH2 0x613 JUMP JUMPDEST STOP JUMPDEST CALLVALUE DUP1 ISZERO PUSH2 0x134 JUMPI PUSH1 0x0 DUP1 REVERT JUMPDEST POP PUSH2 0x14F PUSH1 0x4 DUP1 CALLDATASIZE SUB DUP2 ADD SWAP1 PUSH2 0x14A SWAP2 SWAP1 PUSH2 0x9A6 JUMP JUMPDEST PUSH2 0x61F JUMP JUMPDEST PUSH1 0x40 MLOAD PUSH2 0x15C SWAP2 SWAP1 PUSH2 0xC0D JUMP JUMPDEST PUSH1 0x40 MLOAD DUP1 SWAP2 SUB SWAP1 RETURN JUMPDEST PUSH1 0x1 PUSH1 0x40 MLOAD DUP1 PUSH1 0xC0 ADD PUSH1 0x40 MSTORE DUP1 DUP9 PUSH20 0xFFFFFFFFFFFFFFFFFFFFFFFFFFFFFFFFFFFFFFFF AND DUP2 MSTORE PUSH1 0x20 ADD DUP8 DUP2 MSTORE PUSH1 0x20 ADD DUP7 DUP2 MSTORE PUSH1 0x20 ADD DUP6 DUP2 MSTORE PUSH1 0x20 ADD DUP5 DUP2 MSTORE PUSH1 0x20 ADD DUP4 ISZERO ISZERO DUP2 MSTORE POP SWAP1 DUP1 PUSH1 0x1 DUP2 SLOAD ADD DUP1 DUP3 SSTORE DUP1 SWAP2 POP POP PUSH1 0x1 SWAP1 SUB SWAP1 PUSH1 0x0 MSTORE PUSH1 0x20 PUSH1 0x0 KECCAK256 SWAP1 PUSH1 0x6 MUL ADD PUSH1 0x0 SWAP1 SWAP2 SWAP1 SWAP2 SWAP1 SWAP2 POP PUSH1 0x0 DUP3 ADD MLOAD DUP2 PUSH1 0x0 ADD PUSH1 0x0 PUSH2 0x100 EXP DUP2 SLOAD DUP2 PUSH20 0xFFFFFFFFFFFFFFFFFFFFFFFFFFFFFFFFFFFFFFFF MUL NOT AND SWAP1 DUP4 PUSH20 0xFFFFFFFFFFFFFFFFFFFFFFFFFFFFFFFFFFFFFFFF AND MUL OR SWAP1 SSTORE POP PUSH1 0x20 DUP3 ADD MLOAD DUP2 PUSH1 0x1 ADD SWAP1 DUP1 MLOAD SWAP1 PUSH1 0x20 ADD SWAP1 PUSH2 0x238 SWAP3 SWAP2 SWAP1 PUSH2 0x83F JUMP JUMPDEST POP PUSH1 0x40 DUP3 ADD MLOAD DUP2 PUSH1 0x2 ADD SWAP1 DUP1 MLOAD SWAP1 PUSH1 0x20 ADD SWAP1 PUSH2 0x255 SWAP3 SWAP2 SWAP1 PUSH2 0x83F JUMP JUMPDEST POP PUSH1 0x60 DUP3 ADD MLOAD DUP2 PUSH1 0x3 ADD SSTORE PUSH1 0x80 DUP3 ADD MLOAD DUP2 PUSH1 0x4 ADD SSTORE PUSH1 0xA0 DUP3 ADD MLOAD DUP2 PUSH1 0x5 ADD PUSH1 0x0 PUSH2 0x100 EXP DUP2 SLOAD DUP2 PUSH1 0xFF MUL NOT AND SWAP1 DUP4 ISZERO ISZERO MUL OR SWAP1 SSTORE POP POP POP POP POP POP POP POP POP JUMP JUMPDEST PUSH1 0x0 PUSH2 0x29F DUP3 PUSH2 0x6AC JUMP JUMPDEST SWAP1 POP PUSH1 0x1 DUP2 DUP2 SLOAD DUP2 LT PUSH2 0x2B5 JUMPI PUSH2 0x2B4 PUSH2 0xEF1 JUMP JUMPDEST JUMPDEST SWAP1 PUSH1 0x0 MSTORE PUSH1 0x20 PUSH1 0x0 KECCAK256 SWAP1 PUSH1 0x6 MUL ADD PUSH1 0x0 ADD PUSH1 0x0 SWAP1 SLOAD SWAP1 PUSH2 0x100 EXP SWAP1 DIV PUSH20 0xFFFFFFFFFFFFFFFFFFFFFFFFFFFFFFFFFFFFFFFF AND PUSH20 0xFFFFFFFFFFFFFFFFFFFFFFFFFFFFFFFFFFFFFFFF AND CALLER PUSH20 0xFFFFFFFFFFFFFFFFFFFFFFFFFFFFFFFFFFFFFFFF AND EQ PUSH2 0x354 JUMPI PUSH1 0x40 MLOAD PUSH32 0x8C379A000000000000000000000000000000000000000000000000000000000 DUP2 MSTORE PUSH1 0x4 ADD PUSH2 0x34B SWAP1 PUSH2 0xC28 JUMP JUMPDEST PUSH1 0x40 MLOAD DUP1 SWAP2 SUB SWAP1 REVERT JUMPDEST PUSH1 0x1 ISZERO ISZERO PUSH1 0x1 DUP3 DUP2 SLOAD DUP2 LT PUSH2 0x36C JUMPI PUSH2 0x36B PUSH2 0xEF1 JUMP JUMPDEST JUMPDEST SWAP1 PUSH1 0x0 MSTORE PUSH1 0x20 PUSH1 0x0 KECCAK256 SWAP1 PUSH1 0x6 MUL ADD PUSH1 0x5 ADD PUSH1 0x0 SWAP1 SLOAD SWAP1 PUSH2 0x100 EXP SWAP1 DIV PUSH1 0xFF AND ISZERO ISZERO EQ PUSH2 0x3CD JUMPI PUSH1 0x40 MLOAD PUSH32 0x8C379A000000000000000000000000000000000000000000000000000000000 DUP2 MSTORE PUSH1 0x4 ADD PUSH2 0x3C4 SWAP1 PUSH2 0xC48 JUMP JUMPDEST PUSH1 0x40 MLOAD DUP1 SWAP2 SUB SWAP1 REVERT JUMPDEST PUSH1 0x1 DUP2 DUP2 SLOAD DUP2 LT PUSH2 0x3E1 JUMPI PUSH2 0x3E0 PUSH2 0xEF1 JUMP JUMPDEST JUMPDEST SWAP1 PUSH1 0x0 MSTORE PUSH1 0x20 PUSH1 0x0 KECCAK256 SWAP1 PUSH1 0x6 MUL ADD PUSH1 0x0 ADD PUSH1 0x0 SWAP1 SLOAD SWAP1 PUSH2 0x100 EXP SWAP1 DIV PUSH20 0xFFFFFFFFFFFFFFFFFFFFFFFFFFFFFFFFFFFFFFFF AND PUSH20 0xFFFFFFFFFFFFFFFFFFFFFFFFFFFFFFFFFFFFFFFF AND PUSH2 0x8FC PUSH1 0x1 DUP4 DUP2 SLOAD DUP2 LT PUSH2 0x440 JUMPI PUSH2 0x43F PUSH2 0xEF1 JUMP JUMPDEST JUMPDEST SWAP1 PUSH1 0x0 MSTORE PUSH1 0x20 PUSH1 0x0 KECCAK256 SWAP1 PUSH1 0x6 MUL ADD PUSH1 0x4 ADD SLOAD SWAP1 DUP2 ISZERO MUL SWAP1 PUSH1 0x40 MLOAD PUSH1 0x0 PUSH1 0x40 MLOAD DUP1 DUP4 SUB DUP2 DUP6 DUP9 DUP9 CALL SWAP4 POP POP POP POP ISZERO DUP1 ISZERO PUSH2 0x47D JUMPI RETURNDATASIZE PUSH1 0x0 DUP1 RETURNDATACOPY RETURNDATASIZE PUSH1 0x0 REVERT JUMPDEST POP POP POP JUMP JUMPDEST PUSH1 0x0 SELFBALANCE SWAP1 POP SWAP1 JUMP JUMPDEST PUSH1 0x1 DUP2 DUP2 SLOAD DUP2 LT PUSH2 0x49A JUMPI PUSH1 0x0 DUP1 REVERT JUMPDEST SWAP1 PUSH1 0x0 MSTORE PUSH1 0x20 PUSH1 0x0 KECCAK256 SWAP1 PUSH1 0x6 MUL ADD PUSH1 0x0 SWAP2 POP SWAP1 POP DUP1 PUSH1 0x0 ADD PUSH1 0x0 SWAP1 SLOAD SWAP1 PUSH2 0x100 EXP SWAP1 DIV PUSH20 0xFFFFFFFFFFFFFFFFFFFFFFFFFFFFFFFFFFFFFFFF AND SWAP1 DUP1 PUSH1 0x1 ADD DUP1 SLOAD PUSH2 0x4E3 SWAP1 PUSH2 0xDE7 JUMP JUMPDEST DUP1 PUSH1 0x1F ADD PUSH1 0x20 DUP1 SWAP2 DIV MUL PUSH1 0x20 ADD PUSH1 0x40 MLOAD SWAP1 DUP2 ADD PUSH1 0x40 MSTORE DUP1 SWAP3 SWAP2 SWAP1 DUP2 DUP2 MSTORE PUSH1 0x20 ADD DUP3 DUP1 SLOAD PUSH2 0x50F SWAP1 PUSH2 0xDE7 JUMP JUMPDEST DUP1 ISZERO PUSH2 0x55C JUMPI DUP1 PUSH1 0x1F LT PUSH2 0x531 JUMPI PUSH2 0x100 DUP1 DUP4 SLOAD DIV MUL DUP4 MSTORE SWAP2 PUSH1 0x20 ADD SWAP2 PUSH2 0x55C JUMP JUMPDEST DUP3 ADD SWAP2 SWAP1 PUSH1 0x0 MSTORE PUSH1 0x20 PUSH1 0x0 KECCAK256 SWAP1 JUMPDEST DUP2 SLOAD DUP2 MSTORE SWAP1 PUSH1 0x1 ADD SWAP1 PUSH1 0x20 ADD DUP1 DUP4 GT PUSH2 0x53F JUMPI DUP3 SWAP1 SUB PUSH1 0x1F AND DUP3 ADD SWAP2 JUMPDEST POP POP POP POP POP SWAP1 DUP1 PUSH1 0x2 ADD DUP1 SLOAD PUSH2 0x571 SWAP1 PUSH2 0xDE7 JUMP JUMPDEST DUP1 PUSH1 0x1F ADD PUSH1 0x20 DUP1 SWAP2 DIV MUL PUSH1 0x20 ADD PUSH1 0x40 MLOAD SWAP1 DUP2 ADD PUSH1 0x40 MSTORE DUP1 SWAP3 SWAP2 SWAP1 DUP2 DUP2 MSTORE PUSH1 0x20 ADD DUP3 DUP1 SLOAD PUSH2 0x59D SWAP1 PUSH2 0xDE7 JUMP JUMPDEST DUP1 ISZERO PUSH2 0x5EA JUMPI DUP1 PUSH1 0x1F LT PUSH2 0x5BF JUMPI PUSH2 0x100 DUP1 DUP4 SLOAD DIV MUL DUP4 MSTORE SWAP2 PUSH1 0x20 ADD SWAP2 PUSH2 0x5EA JUMP JUMPDEST DUP3 ADD SWAP2 SWAP1 PUSH1 0x0 MSTORE PUSH1 0x20 PUSH1 0x0 KECCAK256 SWAP1 JUMPDEST DUP2 SLOAD DUP2 MSTORE SWAP1 PUSH1 0x1 ADD SWAP1 PUSH1 0x20 ADD DUP1 DUP4 GT PUSH2 0x5CD JUMPI DUP3 SWAP1 SUB PUSH1 0x1F AND DUP3 ADD SWAP2 JUMPDEST POP POP POP POP POP SWAP1 DUP1 PUSH1 0x3 ADD SLOAD SWAP1 DUP1 PUSH1 0x4 ADD SLOAD SWAP1 DUP1 PUSH1 0x5 ADD PUSH1 0x0 SWAP1 SLOAD SWAP1 PUSH2 0x100 EXP SWAP1 DIV PUSH1 0xFF AND SWAP1 POP DUP7 JUMP JUMPDEST PUSH2 0x61C DUP2 PUSH2 0x762 JUMP JUMPDEST POP JUMP JUMPDEST PUSH1 0x0 DUP1 PUSH2 0x62B DUP4 PUSH2 0x6AC JUMP JUMPDEST SWAP1 POP PUSH1 0x1 DUP2 DUP2 SLOAD DUP2 LT PUSH2 0x641 JUMPI PUSH2 0x640 PUSH2 0xEF1 JUMP JUMPDEST JUMPDEST SWAP1 PUSH1 0x0 MSTORE PUSH1 0x20 PUSH1 0x0 KECCAK256 SWAP1 PUSH1 0x6 MUL ADD PUSH1 0x3 ADD SLOAD TIMESTAMP GT ISZERO PUSH2 0x6A1 JUMPI PUSH1 0x1 DUP1 DUP3 DUP2 SLOAD DUP2 LT PUSH2 0x66F JUMPI PUSH2 0x66E PUSH2 0xEF1 JUMP JUMPDEST JUMPDEST SWAP1 PUSH1 0x0 MSTORE PUSH1 0x20 PUSH1 0x0 KECCAK256 SWAP1 PUSH1 0x6 MUL ADD PUSH1 0x5 ADD PUSH1 0x0 PUSH2 0x100 EXP DUP2 SLOAD DUP2 PUSH1 0xFF MUL NOT AND SWAP1 DUP4 ISZERO ISZERO MUL OR SWAP1 SSTORE POP PUSH1 0x1 SWAP2 POP POP PUSH2 0x6A7 JUMP JUMPDEST PUSH1 0x0 SWAP2 POP POP JUMPDEST SWAP2 SWAP1 POP JUMP JUMPDEST PUSH1 0x0 DUP1 PUSH1 0x0 SWAP1 POP JUMPDEST PUSH1 0x1 DUP1 SLOAD SWAP1 POP DUP2 LT ISZERO PUSH2 0x756 JUMPI DUP3 PUSH20 0xFFFFFFFFFFFFFFFFFFFFFFFFFFFFFFFFFFFFFFFF AND PUSH1 0x1 DUP3 DUP2 SLOAD DUP2 LT PUSH2 0x6EC JUMPI PUSH2 0x6EB PUSH2 0xEF1 JUMP JUMPDEST JUMPDEST SWAP1 PUSH1 0x0 MSTORE PUSH1 0x20 PUSH1 0x0 KECCAK256 SWAP1 PUSH1 0x6 MUL ADD PUSH1 0x0 ADD PUSH1 0x0 SWAP1 SLOAD SWAP1 PUSH2 0x100 EXP SWAP1 DIV PUSH20 0xFFFFFFFFFFFFFFFFFFFFFFFFFFFFFFFFFFFFFFFF AND PUSH20 0xFFFFFFFFFFFFFFFFFFFFFFFFFFFFFFFFFFFFFFFF AND EQ ISZERO PUSH2 0x743 JUMPI DUP1 SWAP2 POP POP PUSH2 0x75D JUMP JUMPDEST DUP1 DUP1 PUSH2 0x74E SWAP1 PUSH2 0xE4A JUMP JUMPDEST SWAP2 POP POP PUSH2 0x6B4 JUMP JUMPDEST POP PUSH2 0x3E7 SWAP1 POP JUMPDEST SWAP2 SWAP1 POP JUMP JUMPDEST PUSH1 0x0 JUMPDEST PUSH1 0x1 DUP1 SLOAD SWAP1 POP DUP2 LT ISZERO PUSH2 0x83B JUMPI DUP2 PUSH20 0xFFFFFFFFFFFFFFFFFFFFFFFFFFFFFFFFFFFFFFFF AND PUSH1 0x1 DUP3 DUP2 SLOAD DUP2 LT PUSH2 0x79D JUMPI PUSH2 0x79C PUSH2 0xEF1 JUMP JUMPDEST JUMPDEST SWAP1 PUSH1 0x0 MSTORE PUSH1 0x20 PUSH1 0x0 KECCAK256 SWAP1 PUSH1 0x6 MUL ADD PUSH1 0x0 ADD PUSH1 0x0 SWAP1 SLOAD SWAP1 PUSH2 0x100 EXP SWAP1 DIV PUSH20 0xFFFFFFFFFFFFFFFFFFFFFFFFFFFFFFFFFFFFFFFF AND PUSH20 0xFFFFFFFFFFFFFFFFFFFFFFFFFFFFFFFFFFFFFFFF AND EQ ISZERO PUSH2 0x828 JUMPI CALLVALUE PUSH1 0x1 DUP3 DUP2 SLOAD DUP2 LT PUSH2 0x800 JUMPI PUSH2 0x7FF PUSH2 0xEF1 JUMP JUMPDEST JUMPDEST SWAP1 PUSH1 0x0 MSTORE PUSH1 0x20 PUSH1 0x0 KECCAK256 SWAP1 PUSH1 0x6 MUL ADD PUSH1 0x4 ADD PUSH1 0x0 DUP3 DUP3 SLOAD PUSH2 0x820 SWAP2 SWAP1 PUSH2 0xCF5 JUMP JUMPDEST SWAP3 POP POP DUP2 SWAP1 SSTORE POP JUMPDEST DUP1 DUP1 PUSH2 0x833 SWAP1 PUSH2 0xE4A JUMP JUMPDEST SWAP2 POP POP PUSH2 0x765 JUMP JUMPDEST POP POP JUMP JUMPDEST DUP3 DUP1 SLOAD PUSH2 0x84B SWAP1 PUSH2 0xDE7 JUMP JUMPDEST SWAP1 PUSH1 0x0 MSTORE PUSH1 0x20 PUSH1 0x0 KECCAK256 SWAP1 PUSH1 0x1F ADD PUSH1 0x20 SWAP1 DIV DUP2 ADD SWAP3 DUP3 PUSH2 0x86D JUMPI PUSH1 0x0 DUP6 SSTORE PUSH2 0x8B4 JUMP JUMPDEST DUP3 PUSH1 0x1F LT PUSH2 0x886 JUMPI DUP1 MLOAD PUSH1 0xFF NOT AND DUP4 DUP1 ADD OR DUP6 SSTORE PUSH2 0x8B4 JUMP JUMPDEST DUP3 DUP1 ADD PUSH1 0x1 ADD DUP6 SSTORE DUP3 ISZERO PUSH2 0x8B4 JUMPI SWAP2 DUP3 ADD JUMPDEST DUP3 DUP2 GT ISZERO PUSH2 0x8B3 JUMPI DUP3 MLOAD DUP3 SSTORE SWAP2 PUSH1 0x20 ADD SWAP2 SWAP1 PUSH1 0x1 ADD SWAP1 PUSH2 0x898 JUMP JUMPDEST JUMPDEST POP SWAP1 POP PUSH2 0x8C1 SWAP2 SWAP1 PUSH2 0x8C5 JUMP JUMPDEST POP SWAP1 JUMP JUMPDEST JUMPDEST DUP1 DUP3 GT ISZERO PUSH2 0x8DE JUMPI PUSH1 0x0 DUP2 PUSH1 0x0 SWAP1 SSTORE POP PUSH1 0x1 ADD PUSH2 0x8C6 JUMP JUMPDEST POP SWAP1 JUMP JUMPDEST PUSH1 0x0 PUSH2 0x8F5 PUSH2 0x8F0 DUP5 PUSH2 0xCA8 JUMP JUMPDEST PUSH2 0xC83 JUMP JUMPDEST SWAP1 POP DUP3 DUP2 MSTORE PUSH1 0x20 DUP2 ADD DUP5 DUP5 DUP5 ADD GT ISZERO PUSH2 0x911 JUMPI PUSH2 0x910 PUSH2 0xF54 JUMP JUMPDEST JUMPDEST PUSH2 0x91C DUP5 DUP3 DUP6 PUSH2 0xDA5 JUMP JUMPDEST POP SWAP4 SWAP3 POP POP POP JUMP JUMPDEST PUSH1 0x0 DUP2 CALLDATALOAD SWAP1 POP PUSH2 0x933 DUP2 PUSH2 0xFEC JUMP JUMPDEST SWAP3 SWAP2 POP POP JUMP JUMPDEST PUSH1 0x0 DUP2 CALLDATALOAD SWAP1 POP PUSH2 0x948 DUP2 PUSH2 0x1003 JUMP JUMPDEST SWAP3 SWAP2 POP POP JUMP JUMPDEST PUSH1 0x0 DUP2 CALLDATALOAD SWAP1 POP PUSH2 0x95D DUP2 PUSH2 0x101A JUMP JUMPDEST SWAP3 SWAP2 POP POP JUMP JUMPDEST PUSH1 0x0 DUP3 PUSH1 0x1F DUP4 ADD SLT PUSH2 0x978 JUMPI PUSH2 0x977 PUSH2 0xF4F JUMP JUMPDEST JUMPDEST DUP2 CALLDATALOAD PUSH2 0x988 DUP5 DUP3 PUSH1 0x20 DUP7 ADD PUSH2 0x8E2 JUMP JUMPDEST SWAP2 POP POP SWAP3 SWAP2 POP POP JUMP JUMPDEST PUSH1 0x0 DUP2 CALLDATALOAD SWAP1 POP PUSH2 0x9A0 DUP2 PUSH2 0x1031 JUMP JUMPDEST SWAP3 SWAP2 POP POP JUMP JUMPDEST PUSH1 0x0 PUSH1 0x20 DUP3 DUP5 SUB SLT ISZERO PUSH2 0x9BC JUMPI PUSH2 0x9BB PUSH2 0xF5E JUMP JUMPDEST JUMPDEST PUSH1 0x0 PUSH2 0x9CA DUP5 DUP3 DUP6 ADD PUSH2 0x924 JUMP JUMPDEST SWAP2 POP POP SWAP3 SWAP2 POP POP JUMP JUMPDEST PUSH1 0x0 PUSH1 0x20 DUP3 DUP5 SUB SLT ISZERO PUSH2 0x9E9 JUMPI PUSH2 0x9E8 PUSH2 0xF5E JUMP JUMPDEST JUMPDEST PUSH1 0x0 PUSH2 0x9F7 DUP5 DUP3 DUP6 ADD PUSH2 0x939 JUMP JUMPDEST SWAP2 POP POP SWAP3 SWAP2 POP POP JUMP JUMPDEST PUSH1 0x0 DUP1 PUSH1 0x0 DUP1 PUSH1 0x0 DUP1 PUSH1 0xC0 DUP8 DUP10 SUB SLT ISZERO PUSH2 0xA1D JUMPI PUSH2 0xA1C PUSH2 0xF5E JUMP JUMPDEST JUMPDEST PUSH1 0x0 PUSH2 0xA2B DUP10 DUP3 DUP11 ADD PUSH2 0x939 JUMP JUMPDEST SWAP7 POP POP PUSH1 0x20 DUP8 ADD CALLDATALOAD PUSH8 0xFFFFFFFFFFFFFFFF DUP2 GT ISZERO PUSH2 0xA4C JUMPI PUSH2 0xA4B PUSH2 0xF59 JUMP JUMPDEST JUMPDEST PUSH2 0xA58 DUP10 DUP3 DUP11 ADD PUSH2 0x963 JUMP JUMPDEST SWAP6 POP POP PUSH1 0x40 DUP8 ADD CALLDATALOAD PUSH8 0xFFFFFFFFFFFFFFFF DUP2 GT ISZERO PUSH2 0xA79 JUMPI PUSH2 0xA78 PUSH2 0xF59 JUMP JUMPDEST JUMPDEST PUSH2 0xA85 DUP10 DUP3 DUP11 ADD PUSH2 0x963 JUMP JUMPDEST SWAP5 POP POP PUSH1 0x60 PUSH2 0xA96 DUP10 DUP3 DUP11 ADD PUSH2 0x991 JUMP JUMPDEST SWAP4 POP POP PUSH1 0x80 PUSH2 0xAA7 DUP10 DUP3 DUP11 ADD PUSH2 0x991 JUMP JUMPDEST SWAP3 POP POP PUSH1 0xA0 PUSH2 0xAB8 DUP10 DUP3 DUP11 ADD PUSH2 0x94E JUMP JUMPDEST SWAP2 POP POP SWAP3 SWAP6 POP SWAP3 SWAP6 POP SWAP3 SWAP6 JUMP JUMPDEST PUSH1 0x0 PUSH1 0x20 DUP3 DUP5 SUB SLT ISZERO PUSH2 0xADB JUMPI PUSH2 0xADA PUSH2 0xF5E JUMP JUMPDEST JUMPDEST PUSH1 0x0 PUSH2 0xAE9 DUP5 DUP3 DUP6 ADD PUSH2 0x991 JUMP JUMPDEST SWAP2 POP POP SWAP3 SWAP2 POP POP JUMP JUMPDEST PUSH2 0xAFB DUP2 PUSH2 0xD5D JUMP JUMPDEST DUP3 MSTORE POP POP JUMP JUMPDEST PUSH2 0xB0A DUP2 PUSH2 0xD6F JUMP JUMPDEST DUP3 MSTORE POP POP JUMP JUMPDEST PUSH1 0x0 PUSH2 0xB1B DUP3 PUSH2 0xCD9 JUMP JUMPDEST PUSH2 0xB25 DUP2 DUP6 PUSH2 0xCE4 JUMP JUMPDEST SWAP4 POP PUSH2 0xB35 DUP2 DUP6 PUSH1 0x20 DUP7 ADD PUSH2 0xDB4 JUMP JUMPDEST PUSH2 0xB3E DUP2 PUSH2 0xF63 JUMP JUMPDEST DUP5 ADD SWAP2 POP POP SWAP3 SWAP2 POP POP JUMP JUMPDEST PUSH1 0x0 PUSH2 0xB56 PUSH1 0x1B DUP4 PUSH2 0xCE4 JUMP JUMPDEST SWAP2 POP PUSH2 0xB61 DUP3 PUSH2 0xF74 JUMP JUMPDEST PUSH1 0x20 DUP3 ADD SWAP1 POP SWAP2 SWAP1 POP JUMP JUMPDEST PUSH1 0x0 PUSH2 0xB79 PUSH1 0x29 DUP4 PUSH2 0xCE4 JUMP JUMPDEST SWAP2 POP PUSH2 0xB84 DUP3 PUSH2 0xF9D JUMP JUMPDEST PUSH1 0x40 DUP3 ADD SWAP1 POP SWAP2 SWAP1 POP JUMP JUMPDEST PUSH2 0xB98 DUP2 PUSH2 0xD9B JUMP JUMPDEST DUP3 MSTORE POP POP JUMP JUMPDEST PUSH1 0x0 PUSH1 0xC0 DUP3 ADD SWAP1 POP PUSH2 0xBB3 PUSH1 0x0 DUP4 ADD DUP10 PUSH2 0xAF2 JUMP JUMPDEST DUP2 DUP2 SUB PUSH1 0x20 DUP4 ADD MSTORE PUSH2 0xBC5 DUP2 DUP9 PUSH2 0xB10 JUMP JUMPDEST SWAP1 POP DUP2 DUP2 SUB PUSH1 0x40 DUP4 ADD MSTORE PUSH2 0xBD9 DUP2 DUP8 PUSH2 0xB10 JUMP JUMPDEST SWAP1 POP PUSH2 0xBE8 PUSH1 0x60 DUP4 ADD DUP7 PUSH2 0xB8F JUMP JUMPDEST PUSH2 0xBF5 PUSH1 0x80 DUP4 ADD DUP6 PUSH2 0xB8F JUMP JUMPDEST PUSH2 0xC02 PUSH1 0xA0 DUP4 ADD DUP5 PUSH2 0xB01 JUMP JUMPDEST SWAP8 SWAP7 POP POP POP POP POP POP POP JUMP JUMPDEST PUSH1 0x0 PUSH1 0x20 DUP3 ADD SWAP1 POP PUSH2 0xC22 PUSH1 0x0 DUP4 ADD DUP5 PUSH2 0xB01 JUMP JUMPDEST SWAP3 SWAP2 POP POP JUMP JUMPDEST PUSH1 0x0 PUSH1 0x20 DUP3 ADD SWAP1 POP DUP2 DUP2 SUB PUSH1 0x0 DUP4 ADD MSTORE PUSH2 0xC41 DUP2 PUSH2 0xB49 JUMP JUMPDEST SWAP1 POP SWAP2 SWAP1 POP JUMP JUMPDEST PUSH1 0x0 PUSH1 0x20 DUP3 ADD SWAP1 POP DUP2 DUP2 SUB PUSH1 0x0 DUP4 ADD MSTORE PUSH2 0xC61 DUP2 PUSH2 0xB6C JUMP JUMPDEST SWAP1 POP SWAP2 SWAP1 POP JUMP JUMPDEST PUSH1 0x0 PUSH1 0x20 DUP3 ADD SWAP1 POP PUSH2 0xC7D PUSH1 0x0 DUP4 ADD DUP5 PUSH2 0xB8F JUMP JUMPDEST SWAP3 SWAP2 POP POP JUMP JUMPDEST PUSH1 0x0 PUSH2 0xC8D PUSH2 0xC9E JUMP JUMPDEST SWAP1 POP PUSH2 0xC99 DUP3 DUP3 PUSH2 0xE19 JUMP JUMPDEST SWAP2 SWAP1 POP JUMP JUMPDEST PUSH1 0x0 PUSH1 0x40 MLOAD SWAP1 POP SWAP1 JUMP JUMPDEST PUSH1 0x0 PUSH8 0xFFFFFFFFFFFFFFFF DUP3 GT ISZERO PUSH2 0xCC3 JUMPI PUSH2 0xCC2 PUSH2 0xF20 JUMP JUMPDEST JUMPDEST PUSH2 0xCCC DUP3 PUSH2 0xF63 JUMP JUMPDEST SWAP1 POP PUSH1 0x20 DUP2 ADD SWAP1 POP SWAP2 SWAP1 POP JUMP JUMPDEST PUSH1 0x0 DUP2 MLOAD SWAP1 POP SWAP2 SWAP1 POP JUMP JUMPDEST PUSH1 0x0 DUP3 DUP3 MSTORE PUSH1 0x20 DUP3 ADD SWAP1 POP SWAP3 SWAP2 POP POP JUMP JUMPDEST PUSH1 0x0 PUSH2 0xD00 DUP3 PUSH2 0xD9B JUMP JUMPDEST SWAP2 POP PUSH2 0xD0B DUP4 PUSH2 0xD9B JUMP JUMPDEST SWAP3 POP DUP3 PUSH32 0xFFFFFFFFFFFFFFFFFFFFFFFFFFFFFFFFFFFFFFFFFFFFFFFFFFFFFFFFFFFFFFFF SUB DUP3 GT ISZERO PUSH2 0xD40 JUMPI PUSH2 0xD3F PUSH2 0xE93 JUMP JUMPDEST JUMPDEST DUP3 DUP3 ADD SWAP1 POP SWAP3 SWAP2 POP POP JUMP JUMPDEST PUSH1 0x0 PUSH2 0xD56 DUP3 PUSH2 0xD7B JUMP JUMPDEST SWAP1 POP SWAP2 SWAP1 POP JUMP JUMPDEST PUSH1 0x0 PUSH2 0xD68 DUP3 PUSH2 0xD7B JUMP JUMPDEST SWAP1 POP SWAP2 SWAP1 POP JUMP JUMPDEST PUSH1 0x0 DUP2 ISZERO ISZERO SWAP1 POP SWAP2 SWAP1 POP JUMP JUMPDEST PUSH1 0x0 PUSH20 0xFFFFFFFFFFFFFFFFFFFFFFFFFFFFFFFFFFFFFFFF DUP3 AND SWAP1 POP SWAP2 SWAP1 POP JUMP JUMPDEST PUSH1 0x0 DUP2 SWAP1 POP SWAP2 SWAP1 POP JUMP JUMPDEST DUP3 DUP2 DUP4 CALLDATACOPY PUSH1 0x0 DUP4 DUP4 ADD MSTORE POP POP POP JUMP JUMPDEST PUSH1 0x0 JUMPDEST DUP4 DUP2 LT ISZERO PUSH2 0xDD2 JUMPI DUP1 DUP3 ADD MLOAD DUP2 DUP5 ADD MSTORE PUSH1 0x20 DUP2 ADD SWAP1 POP PUSH2 0xDB7 JUMP JUMPDEST DUP4 DUP2 GT ISZERO PUSH2 0xDE1 JUMPI PUSH1 0x0 DUP5 DUP5 ADD MSTORE JUMPDEST POP POP POP POP JUMP JUMPDEST PUSH1 0x0 PUSH1 0x2 DUP3 DIV SWAP1 POP PUSH1 0x1 DUP3 AND DUP1 PUSH2 0xDFF JUMPI PUSH1 0x7F DUP3 AND SWAP2 POP JUMPDEST PUSH1 0x20 DUP3 LT DUP2 EQ ISZERO PUSH2 0xE13 JUMPI PUSH2 0xE12 PUSH2 0xEC2 JUMP JUMPDEST JUMPDEST POP SWAP2 SWAP1 POP JUMP JUMPDEST PUSH2 0xE22 DUP3 PUSH2 0xF63 JUMP JUMPDEST DUP2 ADD DUP2 DUP2 LT PUSH8 0xFFFFFFFFFFFFFFFF DUP3 GT OR ISZERO PUSH2 0xE41 JUMPI PUSH2 0xE40 PUSH2 0xF20 JUMP JUMPDEST JUMPDEST DUP1 PUSH1 0x40 MSTORE POP POP POP JUMP JUMPDEST PUSH1 0x0 PUSH2 0xE55 DUP3 PUSH2 0xD9B JUMP JUMPDEST SWAP2 POP PUSH32 0xFFFFFFFFFFFFFFFFFFFFFFFFFFFFFFFFFFFFFFFFFFFFFFFFFFFFFFFFFFFFFFFF DUP3 EQ ISZERO PUSH2 0xE88 JUMPI PUSH2 0xE87 PUSH2 0xE93 JUMP JUMPDEST JUMPDEST PUSH1 0x1 DUP3 ADD SWAP1 POP SWAP2 SWAP1 POP JUMP JUMPDEST PUSH32 0x4E487B7100000000000000000000000000000000000000000000000000000000 PUSH1 0x0 MSTORE PUSH1 0x11 PUSH1 0x4 MSTORE PUSH1 0x24 PUSH1 0x0 REVERT JUMPDEST PUSH32 0x4E487B7100000000000000000000000000000000000000000000000000000000 PUSH1 0x0 MSTORE PUSH1 0x22 PUSH1 0x4 MSTORE PUSH1 0x24 PUSH1 0x0 REVERT JUMPDEST PUSH32 0x4E487B7100000000000000000000000000000000000000000000000000000000 PUSH1 0x0 MSTORE PUSH1 0x32 PUSH1 0x4 MSTORE PUSH1 0x24 PUSH1 0x0 REVERT JUMPDEST PUSH32 0x4E487B7100000000000000000000000000000000000000000000000000000000 PUSH1 0x0 MSTORE PUSH1 0x41 PUSH1 0x4 MSTORE PUSH1 0x24 PUSH1 0x0 REVERT JUMPDEST PUSH1 0x0 DUP1 REVERT JUMPDEST PUSH1 0x0 DUP1 REVERT JUMPDEST PUSH1 0x0 DUP1 REVERT JUMPDEST PUSH1 0x0 DUP1 REVERT JUMPDEST PUSH1 0x0 PUSH1 0x1F NOT PUSH1 0x1F DUP4 ADD AND SWAP1 POP SWAP2 SWAP1 POP JUMP JUMPDEST PUSH32 0x796F75206D757374206265206B696420746F2077697468647261770000000000 PUSH1 0x0 DUP3 ADD MSTORE POP JUMP JUMPDEST PUSH32 0x796F7520617265206E6F742061626C6520746F20776974686472617720617420 PUSH1 0x0 DUP3 ADD MSTORE PUSH32 0x746869732074696D650000000000000000000000000000000000000000000000 PUSH1 0x20 DUP3 ADD MSTORE POP JUMP JUMPDEST PUSH2 0xFF5 DUP2 PUSH2 0xD4B JUMP JUMPDEST DUP2 EQ PUSH2 0x1000 JUMPI PUSH1 0x0 DUP1 REVERT JUMPDEST POP JUMP JUMPDEST PUSH2 0x100C DUP2 PUSH2 0xD5D JUMP JUMPDEST DUP2 EQ PUSH2 0x1017 JUMPI PUSH1 0x0 DUP1 REVERT JUMPDEST POP JUMP JUMPDEST PUSH2 0x1023 DUP2 PUSH2 0xD6F JUMP JUMPDEST DUP2 EQ PUSH2 0x102E JUMPI PUSH1 0x0 DUP1 REVERT JUMPDEST POP JUMP JUMPDEST PUSH2 0x103A DUP2 PUSH2 0xD9B JUMP JUMPDEST DUP2 EQ PUSH2 0x1045 JUMPI PUSH1 0x0 DUP1 REVERT JUMPDEST POP JUMP INVALID LOG2 PUSH5 0x6970667358 0x22 SLT KECCAK256 PUSH21 0x90FC2D19746720B3D06DE17D81B5B9DE95084FE44C CALLDATALOAD SWAP3 LOG0 0xFB MUL 0x5C ADDMOD 0xB5 PUSH30 0x2964736F6C63430008070033000000000000000000000000000000000000 "
				},
				"gasEstimates": {
					"creation": {
						"codeDepositCost": "844400",
						"executionCost": "25143",
						"totalCost": "869543"
					},
					"external": {
						"addKid(address,string,string,uint256,uint256,bool)": "infinite",
						"availableToWithdraw(address)": "infinite",
						"balanceOf()": "361",
						"diposit(address)": "infinite",
						"kids(uint256)": "infinite",
						"withdraw(address)": "infinite"
					},
					"internal": {
						"addToKidsBalance(address)": "infinite",
						"getIndex(address)": "infinite"
					}
				},
				"methodIdentifiers": {
					"addKid(address,string,string,uint256,uint256,bool)": "31d575c5",
					"availableToWithdraw(address)": "a25db8ce",
					"balanceOf()": "722713f7",
					"diposit(address)": "82fc925d",
					"kids(uint256)": "7285fd3a",
					"withdraw(address)": "51cff8d9"
				}
			},
			"storageLayout": {
				"storage": [
					{
						"astId": 3,
						"contract": "contracts/CryptoKids..sol:CryptoKids",
						"label": "owner",
						"offset": 0,
						"slot": "0",
						"type": "t_address"
					},
					{
						"astId": 29,
						"contract": "contracts/CryptoKids..sol:CryptoKids",
						"label": "kids",
						"offset": 0,
						"slot": "1",
						"type": "t_array(t_struct(Kid)25_storage)dyn_storage"
					}
				],
				"types": {
					"t_address": {
						"encoding": "inplace",
						"label": "address",
						"numberOfBytes": "20"
					},
					"t_address_payable": {
						"encoding": "inplace",
						"label": "address payable",
						"numberOfBytes": "20"
					},
					"t_array(t_struct(Kid)25_storage)dyn_storage": {
						"base": "t_struct(Kid)25_storage",
						"encoding": "dynamic_array",
						"label": "struct CryptoKids.Kid[]",
						"numberOfBytes": "32"
					},
					"t_bool": {
						"encoding": "inplace",
						"label": "bool",
						"numberOfBytes": "1"
					},
					"t_string_storage": {
						"encoding": "bytes",
						"label": "string",
						"numberOfBytes": "32"
					},
					"t_struct(Kid)25_storage": {
						"encoding": "inplace",
						"label": "struct CryptoKids.Kid",
						"members": [
							{
								"astId": 14,
								"contract": "contracts/CryptoKids..sol:CryptoKids",
								"label": "walletAddress",
								"offset": 0,
								"slot": "0",
								"type": "t_address_payable"
							},
							{
								"astId": 16,
								"contract": "contracts/CryptoKids..sol:CryptoKids",
								"label": "firstName",
								"offset": 0,
								"slot": "1",
								"type": "t_string_storage"
							},
							{
								"astId": 18,
								"contract": "contracts/CryptoKids..sol:CryptoKids",
								"label": "lastName",
								"offset": 0,
								"slot": "2",
								"type": "t_string_storage"
							},
							{
								"astId": 20,
								"contract": "contracts/CryptoKids..sol:CryptoKids",
								"label": "releaseTime",
								"offset": 0,
								"slot": "3",
								"type": "t_uint256"
							},
							{
								"astId": 22,
								"contract": "contracts/CryptoKids..sol:CryptoKids",
								"label": "ammount",
								"offset": 0,
								"slot": "4",
								"type": "t_uint256"
							},
							{
								"astId": 24,
								"contract": "contracts/CryptoKids..sol:CryptoKids",
								"label": "canWithdraw",
								"offset": 0,
								"slot": "5",
								"type": "t_bool"
							}
						],
						"numberOfBytes": "192"
					},
					"t_uint256": {
						"encoding": "inplace",
						"label": "uint256",
						"numberOfBytes": "32"
					}
				}
			},
			"userdoc": {
				"kind": "user",
				"methods": {},
				"version": 1
			}
		}
	}
}