{
	"contracts/CryptoKids..sol": {
		"CryptoKids": {
			"abi": [
				{
					"inputs": [],
					"stateMutability": "nonpayable",
					"type": "constructor"
				},
				{
					"inputs": [
						{
							"internalType": "address payable",
							"name": "walletAddress",
							"type": "address"
						},
						{
							"internalType": "string",
							"name": "firstName",
							"type": "string"
						},
						{
							"internalType": "string",
							"name": "lastName",
							"type": "string"
						},
						{
							"internalType": "uint256",
							"name": "releaseTime",
							"type": "uint256"
						},
						{
							"internalType": "uint256",
							"name": "ammount",
							"type": "uint256"
						},
						{
							"internalType": "bool",
							"name": "canWithdraw",
							"type": "bool"
						}
					],
					"name": "addKid",
					"outputs": [],
					"stateMutability": "nonpayable",
					"type": "function"
				},
				{
					"inputs": [
						{
							"internalType": "address",
							"name": "walletAddress",
							"type": "address"
						}
					],
					"name": "availableToWithdraw",
					"outputs": [
						{
							"internalType": "bool",
							"name": "",
							"type": "bool"
						}
					],
					"stateMutability": "nonpayable",
					"type": "function"
				},
				{
					"inputs": [],
					"name": "balanceOf",
					"outputs": [
						{
							"internalType": "uint256",
							"name": "",
							"type": "uint256"
						}
					],
					"stateMutability": "view",
					"type": "function"
				},
				{
					"inputs": [
						{
							"internalType": "address",
							"name": "walletAddress",
							"type": "address"
						}
					],
					"name": "diposit",
					"outputs": [],
					"stateMutability": "payable",
					"type": "function"
				},
				{
					"inputs": [
						{
							"internalType": "uint256",
							"name": "",
							"type": "uint256"
						}
					],
					"name": "kids",
					"outputs": [
						{
							"internalType": "address payable",
							"name": "walletAddress",
							"type": "address"
						},
						{
							"internalType": "string",
							"name": "firstName",
							"type": "string"
						},
						{
							"internalType": "string",
							"name": "lastName",
							"type": "string"
						},
						{
							"internalType": "uint256",
							"name": "releaseTime",
							"type": "uint256"
						},
						{
							"internalType": "uint256",
							"name": "ammount",
							"type": "uint256"
						},
						{
							"internalType": "bool",
							"name": "canWithdraw",
							"type": "bool"
						}
					],
					"stateMutability": "view",
					"type": "function"
				},
				{
					"inputs": [
						{
							"internalType": "address payable",
							"name": "walletAddress",
							"type": "address"
						}
					],
					"name": "withdraw",
					"outputs": [],
					"stateMutability": "payable",
					"type": "function"
				}
			],
			"devdoc": {
				"kind": "dev",
				"methods": {},
				"version": 1
			},
			"evm": {
				"assembly": "    /* \"contracts/CryptoKids..sol\":68:2134  contract CryptoKids {... */\n  mstore(0x40, 0x80)\n    /* \"contracts/CryptoKids..sol\":131:179  constructor(){... */\n  callvalue\n  dup1\n  iszero\n  tag_1\n  jumpi\n  0x00\n  dup1\n  revert\ntag_1:\n  pop\n    /* \"contracts/CryptoKids..sol\":162:172  msg.sender */\n  caller\n    /* \"contracts/CryptoKids..sol\":154:159  owner */\n  0x00\n  dup1\n    /* \"contracts/CryptoKids..sol\":154:172  owner = msg.sender */\n  0x0100\n  exp\n  dup2\n  sload\n  dup2\n  0xffffffffffffffffffffffffffffffffffffffff\n  mul\n  not\n  and\n  swap1\n  dup4\n  0xffffffffffffffffffffffffffffffffffffffff\n  and\n  mul\n  or\n  swap1\n  sstore\n  pop\n    /* \"contracts/CryptoKids..sol\":68:2134  contract CryptoKids {... */\n  dataSize(sub_0)\n  dup1\n  dataOffset(sub_0)\n  0x00\n  codecopy\n  0x00\n  return\nstop\n\nsub_0: assembly {\n        /* \"contracts/CryptoKids..sol\":68:2134  contract CryptoKids {... */\n      mstore(0x40, 0x80)\n      jumpi(tag_1, lt(calldatasize, 0x04))\n      shr(0xe0, calldataload(0x00))\n      dup1\n      0x31d575c5\n      eq\n      tag_2\n      jumpi\n      dup1\n      0x51cff8d9\n      eq\n      tag_3\n      jumpi\n      dup1\n      0x722713f7\n      eq\n      tag_4\n      jumpi\n      dup1\n      0x7285fd3a\n      eq\n      tag_5\n      jumpi\n      dup1\n      0x82fc925d\n      eq\n      tag_6\n      jumpi\n      dup1\n      0xa25db8ce\n      eq\n      tag_7\n      jumpi\n    tag_1:\n      0x00\n      dup1\n      revert\n        /* \"contracts/CryptoKids..sol\":446:783  function addKid(address payable walletAddress, string memory firstName, string memory lastName, uint releaseTime, uint ammount, bool canWithdraw) public {... */\n    tag_2:\n      callvalue\n      dup1\n      iszero\n      tag_8\n      jumpi\n      0x00\n      dup1\n      revert\n    tag_8:\n      pop\n      tag_9\n      0x04\n      dup1\n      calldatasize\n      sub\n      dup2\n      add\n      swap1\n      tag_10\n      swap2\n      swap1\n      tag_11\n      jump\t// in\n    tag_10:\n      tag_12\n      jump\t// in\n    tag_9:\n      stop\n        /* \"contracts/CryptoKids..sol\":1903:2131  function withdraw(address payable walletAddress) payable public {... */\n    tag_3:\n      tag_13\n      0x04\n      dup1\n      calldatasize\n      sub\n      dup2\n      add\n      swap1\n      tag_14\n      swap2\n      swap1\n      tag_15\n      jump\t// in\n    tag_14:\n      tag_16\n      jump\t// in\n    tag_13:\n      stop\n        /* \"contracts/CryptoKids..sol\":789:880  function balanceOf() public view returns(uint){... */\n    tag_4:\n      callvalue\n      dup1\n      iszero\n      tag_17\n      jumpi\n      0x00\n      dup1\n      revert\n    tag_17:\n      pop\n      tag_18\n      tag_19\n      jump\t// in\n    tag_18:\n      mload(0x40)\n      tag_20\n      swap2\n      swap1\n      tag_21\n      jump\t// in\n    tag_20:\n      mload(0x40)\n      dup1\n      swap2\n      sub\n      swap1\n      return\n        /* \"contracts/CryptoKids..sol\":391:408  Kid[] public kids */\n    tag_5:\n      callvalue\n      dup1\n      iszero\n      tag_22\n      jumpi\n      0x00\n      dup1\n      revert\n    tag_22:\n      pop\n      tag_23\n      0x04\n      dup1\n      calldatasize\n      sub\n      dup2\n      add\n      swap1\n      tag_24\n      swap2\n      swap1\n      tag_25\n      jump\t// in\n    tag_24:\n      tag_26\n      jump\t// in\n    tag_23:\n      mload(0x40)\n      tag_27\n      swap7\n      swap6\n      swap5\n      swap4\n      swap3\n      swap2\n      swap1\n      tag_28\n      jump\t// in\n    tag_27:\n      mload(0x40)\n      dup1\n      swap2\n      sub\n      swap1\n      return\n        /* \"contracts/CryptoKids..sol\":936:1039  function diposit(address walletAddress) payable public {... */\n    tag_6:\n      tag_29\n      0x04\n      dup1\n      calldatasize\n      sub\n      dup2\n      add\n      swap1\n      tag_30\n      swap2\n      swap1\n      tag_31\n      jump\t// in\n    tag_30:\n      tag_32\n      jump\t// in\n    tag_29:\n      stop\n        /* \"contracts/CryptoKids..sol\":1584:1875  function availableToWithdraw(address walletAddress) public returns(bool){... */\n    tag_7:\n      callvalue\n      dup1\n      iszero\n      tag_33\n      jumpi\n      0x00\n      dup1\n      revert\n    tag_33:\n      pop\n      tag_34\n      0x04\n      dup1\n      calldatasize\n      sub\n      dup2\n      add\n      swap1\n      tag_35\n      swap2\n      swap1\n      tag_31\n      jump\t// in\n    tag_35:\n      tag_36\n      jump\t// in\n    tag_34:\n      mload(0x40)\n      tag_37\n      swap2\n      swap1\n      tag_38\n      jump\t// in\n    tag_37:\n      mload(0x40)\n      dup1\n      swap2\n      sub\n      swap1\n      return\n        /* \"contracts/CryptoKids..sol\":446:783  function addKid(address payable walletAddress, string memory firstName, string memory lastName, uint releaseTime, uint ammount, bool canWithdraw) public {... */\n    tag_12:\n        /* \"contracts/CryptoKids..sol\":609:613  kids */\n      0x01\n        /* \"contracts/CryptoKids..sol\":619:775  Kid(... */\n      mload(0x40)\n      dup1\n      0xc0\n      add\n      0x40\n      mstore\n      dup1\n        /* \"contracts/CryptoKids..sol\":636:649  walletAddress */\n      dup9\n        /* \"contracts/CryptoKids..sol\":619:775  Kid(... */\n      0xffffffffffffffffffffffffffffffffffffffff\n      and\n      dup2\n      mstore\n      0x20\n      add\n        /* \"contracts/CryptoKids..sol\":663:672  firstName */\n      dup8\n        /* \"contracts/CryptoKids..sol\":619:775  Kid(... */\n      dup2\n      mstore\n      0x20\n      add\n        /* \"contracts/CryptoKids..sol\":686:694  lastName */\n      dup7\n        /* \"contracts/CryptoKids..sol\":619:775  Kid(... */\n      dup2\n      mstore\n      0x20\n      add\n        /* \"contracts/CryptoKids..sol\":708:719  releaseTime */\n      dup6\n        /* \"contracts/CryptoKids..sol\":619:775  Kid(... */\n      dup2\n      mstore\n      0x20\n      add\n        /* \"contracts/CryptoKids..sol\":733:740  ammount */\n      dup5\n        /* \"contracts/CryptoKids..sol\":619:775  Kid(... */\n      dup2\n      mstore\n      0x20\n      add\n        /* \"contracts/CryptoKids..sol\":754:765  canWithdraw */\n      dup4\n        /* \"contracts/CryptoKids..sol\":619:775  Kid(... */\n      iszero\n      iszero\n      dup2\n      mstore\n      pop\n        /* \"contracts/CryptoKids..sol\":609:776  kids.push(Kid(... */\n      swap1\n      dup1\n      0x01\n      dup2\n      sload\n      add\n      dup1\n      dup3\n      sstore\n      dup1\n      swap2\n      pop\n      pop\n      0x01\n      swap1\n      sub\n      swap1\n      0x00\n      mstore\n      keccak256(0x00, 0x20)\n      swap1\n      0x06\n      mul\n      add\n      0x00\n      swap1\n      swap2\n      swap1\n      swap2\n      swap1\n      swap2\n      pop\n      0x00\n      dup3\n      add\n      mload\n      dup2\n      0x00\n      add\n      exp(0x0100, 0x00)\n      dup2\n      sload\n      dup2\n      0xffffffffffffffffffffffffffffffffffffffff\n      mul\n      not\n      and\n      swap1\n      dup4\n      0xffffffffffffffffffffffffffffffffffffffff\n      and\n      mul\n      or\n      swap1\n      sstore\n      pop\n      0x20\n      dup3\n      add\n      mload\n      dup2\n      0x01\n      add\n      swap1\n      dup1\n      mload\n      swap1\n      0x20\n      add\n      swap1\n      tag_41\n      swap3\n      swap2\n      swap1\n      tag_42\n      jump\t// in\n    tag_41:\n      pop\n      0x40\n      dup3\n      add\n      mload\n      dup2\n      0x02\n      add\n      swap1\n      dup1\n      mload\n      swap1\n      0x20\n      add\n      swap1\n      tag_43\n      swap3\n      swap2\n      swap1\n      tag_42\n      jump\t// in\n    tag_43:\n      pop\n      0x60\n      dup3\n      add\n      mload\n      dup2\n      0x03\n      add\n      sstore\n      0x80\n      dup3\n      add\n      mload\n      dup2\n      0x04\n      add\n      sstore\n      0xa0\n      dup3\n      add\n      mload\n      dup2\n      0x05\n      add\n      exp(0x0100, 0x00)\n      dup2\n      sload\n      dup2\n      0xff\n      mul\n      not\n      and\n      swap1\n      dup4\n      iszero\n      iszero\n      mul\n      or\n      swap1\n      sstore\n      pop\n      pop\n      pop\n        /* \"contracts/CryptoKids..sol\":446:783  function addKid(address payable walletAddress, string memory firstName, string memory lastName, uint releaseTime, uint ammount, bool canWithdraw) public {... */\n      pop\n      pop\n      pop\n      pop\n      pop\n      pop\n      jump\t// out\n        /* \"contracts/CryptoKids..sol\":1903:2131  function withdraw(address payable walletAddress) payable public {... */\n    tag_16:\n        /* \"contracts/CryptoKids..sol\":1977:1983  uint i */\n      0x00\n        /* \"contracts/CryptoKids..sol\":1986:2009  getIndex(walletAddress) */\n      tag_45\n        /* \"contracts/CryptoKids..sol\":1995:2008  walletAddress */\n      dup3\n        /* \"contracts/CryptoKids..sol\":1986:1994  getIndex */\n      tag_46\n        /* \"contracts/CryptoKids..sol\":1986:2009  getIndex(walletAddress) */\n      jump\t// in\n    tag_45:\n        /* \"contracts/CryptoKids..sol\":1977:2009  uint i = getIndex(walletAddress) */\n      swap1\n      pop\n        /* \"contracts/CryptoKids..sol\":2041:2045  kids */\n      0x01\n        /* \"contracts/CryptoKids..sol\":2046:2047  i */\n      dup2\n        /* \"contracts/CryptoKids..sol\":2041:2048  kids[i] */\n      dup2\n      sload\n      dup2\n      lt\n      tag_47\n      jumpi\n      tag_48\n      tag_49\n      jump\t// in\n    tag_48:\n    tag_47:\n      swap1\n      0x00\n      mstore\n      keccak256(0x00, 0x20)\n      swap1\n      0x06\n      mul\n      add\n        /* \"contracts/CryptoKids..sol\":2041:2062  kids[i].walletAddress */\n      0x00\n      add\n      0x00\n      swap1\n      sload\n      swap1\n      0x0100\n      exp\n      swap1\n      div\n      0xffffffffffffffffffffffffffffffffffffffff\n      and\n        /* \"contracts/CryptoKids..sol\":2027:2062  msg.sender == kids[i].walletAddress */\n      0xffffffffffffffffffffffffffffffffffffffff\n      and\n        /* \"contracts/CryptoKids..sol\":2027:2037  msg.sender */\n      caller\n        /* \"contracts/CryptoKids..sol\":2027:2062  msg.sender == kids[i].walletAddress */\n      0xffffffffffffffffffffffffffffffffffffffff\n      and\n      eq\n        /* \"contracts/CryptoKids..sol\":2019:2067  require(msg.sender == kids[i].walletAddress, \"\") */\n      tag_51\n      jumpi\n      mload(0x40)\n      0x08c379a000000000000000000000000000000000000000000000000000000000\n      dup2\n      mstore\n      0x04\n      add\n      tag_52\n      swap1\n      tag_53\n      jump\t// in\n    tag_52:\n      mload(0x40)\n      dup1\n      swap2\n      sub\n      swap1\n      revert\n    tag_51:\n        /* \"contracts/CryptoKids..sol\":2077:2081  kids */\n      0x01\n        /* \"contracts/CryptoKids..sol\":2082:2083  i */\n      dup2\n        /* \"contracts/CryptoKids..sol\":2077:2084  kids[i] */\n      dup2\n      sload\n      dup2\n      lt\n      tag_54\n      jumpi\n      tag_55\n      tag_49\n      jump\t// in\n    tag_55:\n    tag_54:\n      swap1\n      0x00\n      mstore\n      keccak256(0x00, 0x20)\n      swap1\n      0x06\n      mul\n      add\n        /* \"contracts/CryptoKids..sol\":2077:2098  kids[i].walletAddress */\n      0x00\n      add\n      0x00\n      swap1\n      sload\n      swap1\n      0x0100\n      exp\n      swap1\n      div\n      0xffffffffffffffffffffffffffffffffffffffff\n      and\n        /* \"contracts/CryptoKids..sol\":2077:2107  kids[i].walletAddress.transfer */\n      0xffffffffffffffffffffffffffffffffffffffff\n      and\n        /* \"contracts/CryptoKids..sol\":2077:2124  kids[i].walletAddress.transfer(kids[i].ammount) */\n      0x08fc\n        /* \"contracts/CryptoKids..sol\":2108:2112  kids */\n      0x01\n        /* \"contracts/CryptoKids..sol\":2113:2114  i */\n      dup4\n        /* \"contracts/CryptoKids..sol\":2108:2115  kids[i] */\n      dup2\n      sload\n      dup2\n      lt\n      tag_57\n      jumpi\n      tag_58\n      tag_49\n      jump\t// in\n    tag_58:\n    tag_57:\n      swap1\n      0x00\n      mstore\n      keccak256(0x00, 0x20)\n      swap1\n      0x06\n      mul\n      add\n        /* \"contracts/CryptoKids..sol\":2108:2123  kids[i].ammount */\n      0x04\n      add\n      sload\n        /* \"contracts/CryptoKids..sol\":2077:2124  kids[i].walletAddress.transfer(kids[i].ammount) */\n      swap1\n      dup2\n      iszero\n      mul\n      swap1\n      mload(0x40)\n      0x00\n      mload(0x40)\n      dup1\n      dup4\n      sub\n      dup2\n      dup6\n      dup9\n      dup9\n      call\n      swap4\n      pop\n      pop\n      pop\n      pop\n      iszero\n      dup1\n      iszero\n      tag_61\n      jumpi\n      returndatasize\n      0x00\n      dup1\n      returndatacopy\n      revert(0x00, returndatasize)\n    tag_61:\n      pop\n        /* \"contracts/CryptoKids..sol\":1967:2131  {... */\n      pop\n        /* \"contracts/CryptoKids..sol\":1903:2131  function withdraw(address payable walletAddress) payable public {... */\n      pop\n      jump\t// out\n        /* \"contracts/CryptoKids..sol\":789:880  function balanceOf() public view returns(uint){... */\n    tag_19:\n        /* \"contracts/CryptoKids..sol\":830:834  uint */\n      0x00\n        /* \"contracts/CryptoKids..sol\":852:873  address(this).balance */\n      selfbalance\n        /* \"contracts/CryptoKids..sol\":845:873  return address(this).balance */\n      swap1\n      pop\n        /* \"contracts/CryptoKids..sol\":789:880  function balanceOf() public view returns(uint){... */\n      swap1\n      jump\t// out\n        /* \"contracts/CryptoKids..sol\":391:408  Kid[] public kids */\n    tag_26:\n      0x01\n      dup2\n      dup2\n      sload\n      dup2\n      lt\n      tag_63\n      jumpi\n      0x00\n      dup1\n      revert\n    tag_63:\n      swap1\n      0x00\n      mstore\n      keccak256(0x00, 0x20)\n      swap1\n      0x06\n      mul\n      add\n      0x00\n      swap2\n      pop\n      swap1\n      pop\n      dup1\n      0x00\n      add\n      0x00\n      swap1\n      sload\n      swap1\n      0x0100\n      exp\n      swap1\n      div\n      0xffffffffffffffffffffffffffffffffffffffff\n      and\n      swap1\n      dup1\n      0x01\n      add\n      dup1\n      sload\n      tag_65\n      swap1\n      tag_66\n      jump\t// in\n    tag_65:\n      dup1\n      0x1f\n      add\n      0x20\n      dup1\n      swap2\n      div\n      mul\n      0x20\n      add\n      mload(0x40)\n      swap1\n      dup2\n      add\n      0x40\n      mstore\n      dup1\n      swap3\n      swap2\n      swap1\n      dup2\n      dup2\n      mstore\n      0x20\n      add\n      dup3\n      dup1\n      sload\n      tag_67\n      swap1\n      tag_66\n      jump\t// in\n    tag_67:\n      dup1\n      iszero\n      tag_68\n      jumpi\n      dup1\n      0x1f\n      lt\n      tag_69\n      jumpi\n      0x0100\n      dup1\n      dup4\n      sload\n      div\n      mul\n      dup4\n      mstore\n      swap2\n      0x20\n      add\n      swap2\n      jump(tag_68)\n    tag_69:\n      dup3\n      add\n      swap2\n      swap1\n      0x00\n      mstore\n      keccak256(0x00, 0x20)\n      swap1\n    tag_70:\n      dup2\n      sload\n      dup2\n      mstore\n      swap1\n      0x01\n      add\n      swap1\n      0x20\n      add\n      dup1\n      dup4\n      gt\n      tag_70\n      jumpi\n      dup3\n      swap1\n      sub\n      0x1f\n      and\n      dup3\n      add\n      swap2\n    tag_68:\n      pop\n      pop\n      pop\n      pop\n      pop\n      swap1\n      dup1\n      0x02\n      add\n      dup1\n      sload\n      tag_71\n      swap1\n      tag_66\n      jump\t// in\n    tag_71:\n      dup1\n      0x1f\n      add\n      0x20\n      dup1\n      swap2\n      div\n      mul\n      0x20\n      add\n      mload(0x40)\n      swap1\n      dup2\n      add\n      0x40\n      mstore\n      dup1\n      swap3\n      swap2\n      swap1\n      dup2\n      dup2\n      mstore\n      0x20\n      add\n      dup3\n      dup1\n      sload\n      tag_72\n      swap1\n      tag_66\n      jump\t// in\n    tag_72:\n      dup1\n      iszero\n      tag_73\n      jumpi\n      dup1\n      0x1f\n      lt\n      tag_74\n      jumpi\n      0x0100\n      dup1\n      dup4\n      sload\n      div\n      mul\n      dup4\n      mstore\n      swap2\n      0x20\n      add\n      swap2\n      jump(tag_73)\n    tag_74:\n      dup3\n      add\n      swap2\n      swap1\n      0x00\n      mstore\n      keccak256(0x00, 0x20)\n      swap1\n    tag_75:\n      dup2\n      sload\n      dup2\n      mstore\n      swap1\n      0x01\n      add\n      swap1\n      0x20\n      add\n      dup1\n      dup4\n      gt\n      tag_75\n      jumpi\n      dup3\n      swap1\n      sub\n      0x1f\n      and\n      dup3\n      add\n      swap2\n    tag_73:\n      pop\n      pop\n      pop\n      pop\n      pop\n      swap1\n      dup1\n      0x03\n      add\n      sload\n      swap1\n      dup1\n      0x04\n      add\n      sload\n      swap1\n      dup1\n      0x05\n      add\n      0x00\n      swap1\n      sload\n      swap1\n      0x0100\n      exp\n      swap1\n      div\n      0xff\n      and\n      swap1\n      pop\n      dup7\n      jump\t// out\n        /* \"contracts/CryptoKids..sol\":936:1039  function diposit(address walletAddress) payable public {... */\n    tag_32:\n        /* \"contracts/CryptoKids..sol\":1001:1032  addToKidsBalance(walletAddress) */\n      tag_77\n        /* \"contracts/CryptoKids..sol\":1018:1031  walletAddress */\n      dup2\n        /* \"contracts/CryptoKids..sol\":1001:1017  addToKidsBalance */\n      tag_78\n        /* \"contracts/CryptoKids..sol\":1001:1032  addToKidsBalance(walletAddress) */\n      jump\t// in\n    tag_77:\n        /* \"contracts/CryptoKids..sol\":936:1039  function diposit(address walletAddress) payable public {... */\n      pop\n      jump\t// out\n        /* \"contracts/CryptoKids..sol\":1584:1875  function availableToWithdraw(address walletAddress) public returns(bool){... */\n    tag_36:\n        /* \"contracts/CryptoKids..sol\":1651:1655  bool */\n      0x00\n        /* \"contracts/CryptoKids..sol\":1666:1672  uint i */\n      dup1\n        /* \"contracts/CryptoKids..sol\":1675:1698  getIndex(walletAddress) */\n      tag_80\n        /* \"contracts/CryptoKids..sol\":1684:1697  walletAddress */\n      dup4\n        /* \"contracts/CryptoKids..sol\":1675:1683  getIndex */\n      tag_46\n        /* \"contracts/CryptoKids..sol\":1675:1698  getIndex(walletAddress) */\n      jump\t// in\n    tag_80:\n        /* \"contracts/CryptoKids..sol\":1666:1698  uint i = getIndex(walletAddress) */\n      swap1\n      pop\n        /* \"contracts/CryptoKids..sol\":1730:1734  kids */\n      0x01\n        /* \"contracts/CryptoKids..sol\":1735:1736  i */\n      dup2\n        /* \"contracts/CryptoKids..sol\":1730:1737  kids[i] */\n      dup2\n      sload\n      dup2\n      lt\n      tag_81\n      jumpi\n      tag_82\n      tag_49\n      jump\t// in\n    tag_82:\n    tag_81:\n      swap1\n      0x00\n      mstore\n      keccak256(0x00, 0x20)\n      swap1\n      0x06\n      mul\n      add\n        /* \"contracts/CryptoKids..sol\":1730:1749  kids[i].releaseTime */\n      0x03\n      add\n      sload\n        /* \"contracts/CryptoKids..sol\":1712:1727  block.timestamp */\n      timestamp\n        /* \"contracts/CryptoKids..sol\":1712:1749  block.timestamp > kids[i].releaseTime */\n      gt\n        /* \"contracts/CryptoKids..sol\":1708:1869  if (block.timestamp > kids[i].releaseTime){... */\n      iszero\n      tag_84\n      jumpi\n        /* \"contracts/CryptoKids..sol\":1786:1790  true */\n      0x01\n        /* \"contracts/CryptoKids..sol\":1764:1768  kids */\n      dup1\n        /* \"contracts/CryptoKids..sol\":1769:1770  i */\n      dup3\n        /* \"contracts/CryptoKids..sol\":1764:1771  kids[i] */\n      dup2\n      sload\n      dup2\n      lt\n      tag_85\n      jumpi\n      tag_86\n      tag_49\n      jump\t// in\n    tag_86:\n    tag_85:\n      swap1\n      0x00\n      mstore\n      keccak256(0x00, 0x20)\n      swap1\n      0x06\n      mul\n      add\n        /* \"contracts/CryptoKids..sol\":1764:1783  kids[i].canWithdraw */\n      0x05\n      add\n      0x00\n        /* \"contracts/CryptoKids..sol\":1764:1790  kids[i].canWithdraw = true */\n      0x0100\n      exp\n      dup2\n      sload\n      dup2\n      0xff\n      mul\n      not\n      and\n      swap1\n      dup4\n      iszero\n      iszero\n      mul\n      or\n      swap1\n      sstore\n      pop\n        /* \"contracts/CryptoKids..sol\":1811:1815  true */\n      0x01\n        /* \"contracts/CryptoKids..sol\":1804:1815  return true */\n      swap2\n      pop\n      pop\n      jump(tag_79)\n        /* \"contracts/CryptoKids..sol\":1708:1869  if (block.timestamp > kids[i].releaseTime){... */\n    tag_84:\n        /* \"contracts/CryptoKids..sol\":1853:1858  false */\n      0x00\n        /* \"contracts/CryptoKids..sol\":1846:1858  return false */\n      swap2\n      pop\n      pop\n        /* \"contracts/CryptoKids..sol\":1584:1875  function availableToWithdraw(address walletAddress) public returns(bool){... */\n    tag_79:\n      swap2\n      swap1\n      pop\n      jump\t// out\n        /* \"contracts/CryptoKids..sol\":1293:1541  function getIndex(address walletAddress) view private returns(uint){... */\n    tag_46:\n        /* \"contracts/CryptoKids..sol\":1355:1359  uint */\n      0x00\n        /* \"contracts/CryptoKids..sol\":1374:1380  uint i */\n      dup1\n        /* \"contracts/CryptoKids..sol\":1383:1384  0 */\n      0x00\n        /* \"contracts/CryptoKids..sol\":1374:1384  uint i = 0 */\n      swap1\n      pop\n        /* \"contracts/CryptoKids..sol\":1370:1514  for(uint i = 0; i < kids.length; i++){... */\n    tag_90:\n        /* \"contracts/CryptoKids..sol\":1390:1394  kids */\n      0x01\n        /* \"contracts/CryptoKids..sol\":1390:1401  kids.length */\n      dup1\n      sload\n      swap1\n      pop\n        /* \"contracts/CryptoKids..sol\":1386:1387  i */\n      dup2\n        /* \"contracts/CryptoKids..sol\":1386:1401  i < kids.length */\n      lt\n        /* \"contracts/CryptoKids..sol\":1370:1514  for(uint i = 0; i < kids.length; i++){... */\n      iszero\n      tag_91\n      jumpi\n        /* \"contracts/CryptoKids..sol\":1449:1462  walletAddress */\n      dup3\n        /* \"contracts/CryptoKids..sol\":1424:1462  kids[i].walletAddress == walletAddress */\n      0xffffffffffffffffffffffffffffffffffffffff\n      and\n        /* \"contracts/CryptoKids..sol\":1424:1428  kids */\n      0x01\n        /* \"contracts/CryptoKids..sol\":1429:1430  i */\n      dup3\n        /* \"contracts/CryptoKids..sol\":1424:1431  kids[i] */\n      dup2\n      sload\n      dup2\n      lt\n      tag_93\n      jumpi\n      tag_94\n      tag_49\n      jump\t// in\n    tag_94:\n    tag_93:\n      swap1\n      0x00\n      mstore\n      keccak256(0x00, 0x20)\n      swap1\n      0x06\n      mul\n      add\n        /* \"contracts/CryptoKids..sol\":1424:1445  kids[i].walletAddress */\n      0x00\n      add\n      0x00\n      swap1\n      sload\n      swap1\n      0x0100\n      exp\n      swap1\n      div\n      0xffffffffffffffffffffffffffffffffffffffff\n      and\n        /* \"contracts/CryptoKids..sol\":1424:1462  kids[i].walletAddress == walletAddress */\n      0xffffffffffffffffffffffffffffffffffffffff\n      and\n      eq\n        /* \"contracts/CryptoKids..sol\":1421:1504  if(kids[i].walletAddress == walletAddress){... */\n      iszero\n      tag_96\n      jumpi\n        /* \"contracts/CryptoKids..sol\":1488:1489  i */\n      dup1\n        /* \"contracts/CryptoKids..sol\":1481:1489  return i */\n      swap2\n      pop\n      pop\n      jump(tag_89)\n        /* \"contracts/CryptoKids..sol\":1421:1504  if(kids[i].walletAddress == walletAddress){... */\n    tag_96:\n        /* \"contracts/CryptoKids..sol\":1403:1406  i++ */\n      dup1\n      dup1\n      tag_97\n      swap1\n      tag_98\n      jump\t// in\n    tag_97:\n      swap2\n      pop\n      pop\n        /* \"contracts/CryptoKids..sol\":1370:1514  for(uint i = 0; i < kids.length; i++){... */\n      jump(tag_90)\n    tag_91:\n      pop\n        /* \"contracts/CryptoKids..sol\":1530:1533  999 */\n      0x03e7\n        /* \"contracts/CryptoKids..sol\":1523:1533  return 999 */\n      swap1\n      pop\n        /* \"contracts/CryptoKids..sol\":1293:1541  function getIndex(address walletAddress) view private returns(uint){... */\n    tag_89:\n      swap2\n      swap1\n      pop\n      jump\t// out\n        /* \"contracts/CryptoKids..sol\":1049:1287  function addToKidsBalance(address walletAddress) private {... */\n    tag_78:\n        /* \"contracts/CryptoKids..sol\":1120:1126  uint i */\n      0x00\n        /* \"contracts/CryptoKids..sol\":1116:1281  for(uint i = 0; i < kids.length; i++){... */\n    tag_100:\n        /* \"contracts/CryptoKids..sol\":1136:1140  kids */\n      0x01\n        /* \"contracts/CryptoKids..sol\":1136:1147  kids.length */\n      dup1\n      sload\n      swap1\n      pop\n        /* \"contracts/CryptoKids..sol\":1132:1133  i */\n      dup2\n        /* \"contracts/CryptoKids..sol\":1132:1147  i < kids.length */\n      lt\n        /* \"contracts/CryptoKids..sol\":1116:1281  for(uint i = 0; i < kids.length; i++){... */\n      iszero\n      tag_101\n      jumpi\n        /* \"contracts/CryptoKids..sol\":1195:1208  walletAddress */\n      dup2\n        /* \"contracts/CryptoKids..sol\":1170:1208  kids[i].walletAddress == walletAddress */\n      0xffffffffffffffffffffffffffffffffffffffff\n      and\n        /* \"contracts/CryptoKids..sol\":1170:1174  kids */\n      0x01\n        /* \"contracts/CryptoKids..sol\":1175:1176  i */\n      dup3\n        /* \"contracts/CryptoKids..sol\":1170:1177  kids[i] */\n      dup2\n      sload\n      dup2\n      lt\n      tag_103\n      jumpi\n      tag_104\n      tag_49\n      jump\t// in\n    tag_104:\n    tag_103:\n      swap1\n      0x00\n      mstore\n      keccak256(0x00, 0x20)\n      swap1\n      0x06\n      mul\n      add\n        /* \"contracts/CryptoKids..sol\":1170:1191  kids[i].walletAddress */\n      0x00\n      add\n      0x00\n      swap1\n      sload\n      swap1\n      0x0100\n      exp\n      swap1\n      div\n      0xffffffffffffffffffffffffffffffffffffffff\n      and\n        /* \"contracts/CryptoKids..sol\":1170:1208  kids[i].walletAddress == walletAddress */\n      0xffffffffffffffffffffffffffffffffffffffff\n      and\n      eq\n        /* \"contracts/CryptoKids..sol\":1167:1271  if(kids[i].walletAddress == walletAddress) {... */\n      iszero\n      tag_106\n      jumpi\n        /* \"contracts/CryptoKids..sol\":1247:1256  msg.value */\n      callvalue\n        /* \"contracts/CryptoKids..sol\":1228:1232  kids */\n      0x01\n        /* \"contracts/CryptoKids..sol\":1233:1234  i */\n      dup3\n        /* \"contracts/CryptoKids..sol\":1228:1235  kids[i] */\n      dup2\n      sload\n      dup2\n      lt\n      tag_107\n      jumpi\n      tag_108\n      tag_49\n      jump\t// in\n    tag_108:\n    tag_107:\n      swap1\n      0x00\n      mstore\n      keccak256(0x00, 0x20)\n      swap1\n      0x06\n      mul\n      add\n        /* \"contracts/CryptoKids..sol\":1228:1243  kids[i].ammount */\n      0x04\n      add\n      0x00\n        /* \"contracts/CryptoKids..sol\":1228:1256  kids[i].ammount += msg.value */\n      dup3\n      dup3\n      sload\n      tag_110\n      swap2\n      swap1\n      tag_111\n      jump\t// in\n    tag_110:\n      swap3\n      pop\n      pop\n      dup2\n      swap1\n      sstore\n      pop\n        /* \"contracts/CryptoKids..sol\":1167:1271  if(kids[i].walletAddress == walletAddress) {... */\n    tag_106:\n        /* \"contracts/CryptoKids..sol\":1149:1152  i++ */\n      dup1\n      dup1\n      tag_112\n      swap1\n      tag_98\n      jump\t// in\n    tag_112:\n      swap2\n      pop\n      pop\n        /* \"contracts/CryptoKids..sol\":1116:1281  for(uint i = 0; i < kids.length; i++){... */\n      jump(tag_100)\n    tag_101:\n      pop\n        /* \"contracts/CryptoKids..sol\":1049:1287  function addToKidsBalance(address walletAddress) private {... */\n      pop\n      jump\t// out\n    tag_42:\n      dup3\n      dup1\n      sload\n      tag_113\n      swap1\n      tag_66\n      jump\t// in\n    tag_113:\n      swap1\n      0x00\n      mstore\n      keccak256(0x00, 0x20)\n      swap1\n      0x1f\n      add\n      0x20\n      swap1\n      div\n      dup2\n      add\n      swap3\n      dup3\n      tag_115\n      jumpi\n      0x00\n      dup6\n      sstore\n      jump(tag_114)\n    tag_115:\n      dup3\n      0x1f\n      lt\n      tag_116\n      jumpi\n      dup1\n      mload\n      not(0xff)\n      and\n      dup4\n      dup1\n      add\n      or\n      dup6\n      sstore\n      jump(tag_114)\n    tag_116:\n      dup3\n      dup1\n      add\n      0x01\n      add\n      dup6\n      sstore\n      dup3\n      iszero\n      tag_114\n      jumpi\n      swap2\n      dup3\n      add\n    tag_117:\n      dup3\n      dup2\n      gt\n      iszero\n      tag_118\n      jumpi\n      dup3\n      mload\n      dup3\n      sstore\n      swap2\n      0x20\n      add\n      swap2\n      swap1\n      0x01\n      add\n      swap1\n      jump(tag_117)\n    tag_118:\n    tag_114:\n      pop\n      swap1\n      pop\n      tag_119\n      swap2\n      swap1\n      tag_120\n      jump\t// in\n    tag_119:\n      pop\n      swap1\n      jump\t// out\n    tag_120:\n    tag_121:\n      dup1\n      dup3\n      gt\n      iszero\n      tag_122\n      jumpi\n      0x00\n      dup2\n      0x00\n      swap1\n      sstore\n      pop\n      0x01\n      add\n      jump(tag_121)\n    tag_122:\n      pop\n      swap1\n      jump\t// out\n        /* \"#utility.yul\":7:419   */\n    tag_124:\n        /* \"#utility.yul\":85:90   */\n      0x00\n        /* \"#utility.yul\":110:176   */\n      tag_126\n        /* \"#utility.yul\":126:175   */\n      tag_127\n        /* \"#utility.yul\":168:174   */\n      dup5\n        /* \"#utility.yul\":126:175   */\n      tag_128\n      jump\t// in\n    tag_127:\n        /* \"#utility.yul\":110:176   */\n      tag_129\n      jump\t// in\n    tag_126:\n        /* \"#utility.yul\":101:176   */\n      swap1\n      pop\n        /* \"#utility.yul\":199:205   */\n      dup3\n        /* \"#utility.yul\":192:197   */\n      dup2\n        /* \"#utility.yul\":185:206   */\n      mstore\n        /* \"#utility.yul\":237:241   */\n      0x20\n        /* \"#utility.yul\":230:235   */\n      dup2\n        /* \"#utility.yul\":226:242   */\n      add\n        /* \"#utility.yul\":275:278   */\n      dup5\n        /* \"#utility.yul\":266:272   */\n      dup5\n        /* \"#utility.yul\":261:264   */\n      dup5\n        /* \"#utility.yul\":257:273   */\n      add\n        /* \"#utility.yul\":254:279   */\n      gt\n        /* \"#utility.yul\":251:363   */\n      iszero\n      tag_130\n      jumpi\n        /* \"#utility.yul\":282:361   */\n      tag_131\n      tag_132\n      jump\t// in\n    tag_131:\n        /* \"#utility.yul\":251:363   */\n    tag_130:\n        /* \"#utility.yul\":372:413   */\n      tag_133\n        /* \"#utility.yul\":406:412   */\n      dup5\n        /* \"#utility.yul\":401:404   */\n      dup3\n        /* \"#utility.yul\":396:399   */\n      dup6\n        /* \"#utility.yul\":372:413   */\n      tag_134\n      jump\t// in\n    tag_133:\n        /* \"#utility.yul\":91:419   */\n      pop\n        /* \"#utility.yul\":7:419   */\n      swap4\n      swap3\n      pop\n      pop\n      pop\n      jump\t// out\n        /* \"#utility.yul\":425:564   */\n    tag_135:\n        /* \"#utility.yul\":471:476   */\n      0x00\n        /* \"#utility.yul\":509:515   */\n      dup2\n        /* \"#utility.yul\":496:516   */\n      calldataload\n        /* \"#utility.yul\":487:516   */\n      swap1\n      pop\n        /* \"#utility.yul\":525:558   */\n      tag_137\n        /* \"#utility.yul\":552:557   */\n      dup2\n        /* \"#utility.yul\":525:558   */\n      tag_138\n      jump\t// in\n    tag_137:\n        /* \"#utility.yul\":425:564   */\n      swap3\n      swap2\n      pop\n      pop\n      jump\t// out\n        /* \"#utility.yul\":570:725   */\n    tag_139:\n        /* \"#utility.yul\":624:629   */\n      0x00\n        /* \"#utility.yul\":662:668   */\n      dup2\n        /* \"#utility.yul\":649:669   */\n      calldataload\n        /* \"#utility.yul\":640:669   */\n      swap1\n      pop\n        /* \"#utility.yul\":678:719   */\n      tag_141\n        /* \"#utility.yul\":713:718   */\n      dup2\n        /* \"#utility.yul\":678:719   */\n      tag_142\n      jump\t// in\n    tag_141:\n        /* \"#utility.yul\":570:725   */\n      swap3\n      swap2\n      pop\n      pop\n      jump\t// out\n        /* \"#utility.yul\":731:864   */\n    tag_143:\n        /* \"#utility.yul\":774:779   */\n      0x00\n        /* \"#utility.yul\":812:818   */\n      dup2\n        /* \"#utility.yul\":799:819   */\n      calldataload\n        /* \"#utility.yul\":790:819   */\n      swap1\n      pop\n        /* \"#utility.yul\":828:858   */\n      tag_145\n        /* \"#utility.yul\":852:857   */\n      dup2\n        /* \"#utility.yul\":828:858   */\n      tag_146\n      jump\t// in\n    tag_145:\n        /* \"#utility.yul\":731:864   */\n      swap3\n      swap2\n      pop\n      pop\n      jump\t// out\n        /* \"#utility.yul\":884:1224   */\n    tag_147:\n        /* \"#utility.yul\":940:945   */\n      0x00\n        /* \"#utility.yul\":989:992   */\n      dup3\n        /* \"#utility.yul\":982:986   */\n      0x1f\n        /* \"#utility.yul\":974:980   */\n      dup4\n        /* \"#utility.yul\":970:987   */\n      add\n        /* \"#utility.yul\":966:993   */\n      slt\n        /* \"#utility.yul\":956:1078   */\n      tag_149\n      jumpi\n        /* \"#utility.yul\":997:1076   */\n      tag_150\n      tag_151\n      jump\t// in\n    tag_150:\n        /* \"#utility.yul\":956:1078   */\n    tag_149:\n        /* \"#utility.yul\":1114:1120   */\n      dup2\n        /* \"#utility.yul\":1101:1121   */\n      calldataload\n        /* \"#utility.yul\":1139:1218   */\n      tag_152\n        /* \"#utility.yul\":1214:1217   */\n      dup5\n        /* \"#utility.yul\":1206:1212   */\n      dup3\n        /* \"#utility.yul\":1199:1203   */\n      0x20\n        /* \"#utility.yul\":1191:1197   */\n      dup7\n        /* \"#utility.yul\":1187:1204   */\n      add\n        /* \"#utility.yul\":1139:1218   */\n      tag_124\n      jump\t// in\n    tag_152:\n        /* \"#utility.yul\":1130:1218   */\n      swap2\n      pop\n        /* \"#utility.yul\":946:1224   */\n      pop\n        /* \"#utility.yul\":884:1224   */\n      swap3\n      swap2\n      pop\n      pop\n      jump\t// out\n        /* \"#utility.yul\":1230:1369   */\n    tag_153:\n        /* \"#utility.yul\":1276:1281   */\n      0x00\n        /* \"#utility.yul\":1314:1320   */\n      dup2\n        /* \"#utility.yul\":1301:1321   */\n      calldataload\n        /* \"#utility.yul\":1292:1321   */\n      swap1\n      pop\n        /* \"#utility.yul\":1330:1363   */\n      tag_155\n        /* \"#utility.yul\":1357:1362   */\n      dup2\n        /* \"#utility.yul\":1330:1363   */\n      tag_156\n      jump\t// in\n    tag_155:\n        /* \"#utility.yul\":1230:1369   */\n      swap3\n      swap2\n      pop\n      pop\n      jump\t// out\n        /* \"#utility.yul\":1375:1704   */\n    tag_31:\n        /* \"#utility.yul\":1434:1440   */\n      0x00\n        /* \"#utility.yul\":1483:1485   */\n      0x20\n        /* \"#utility.yul\":1471:1480   */\n      dup3\n        /* \"#utility.yul\":1462:1469   */\n      dup5\n        /* \"#utility.yul\":1458:1481   */\n      sub\n        /* \"#utility.yul\":1454:1486   */\n      slt\n        /* \"#utility.yul\":1451:1570   */\n      iszero\n      tag_158\n      jumpi\n        /* \"#utility.yul\":1489:1568   */\n      tag_159\n      tag_160\n      jump\t// in\n    tag_159:\n        /* \"#utility.yul\":1451:1570   */\n    tag_158:\n        /* \"#utility.yul\":1609:1610   */\n      0x00\n        /* \"#utility.yul\":1634:1687   */\n      tag_161\n        /* \"#utility.yul\":1679:1686   */\n      dup5\n        /* \"#utility.yul\":1670:1676   */\n      dup3\n        /* \"#utility.yul\":1659:1668   */\n      dup6\n        /* \"#utility.yul\":1655:1677   */\n      add\n        /* \"#utility.yul\":1634:1687   */\n      tag_135\n      jump\t// in\n    tag_161:\n        /* \"#utility.yul\":1624:1687   */\n      swap2\n      pop\n        /* \"#utility.yul\":1580:1697   */\n      pop\n        /* \"#utility.yul\":1375:1704   */\n      swap3\n      swap2\n      pop\n      pop\n      jump\t// out\n        /* \"#utility.yul\":1710:2055   */\n    tag_15:\n        /* \"#utility.yul\":1777:1783   */\n      0x00\n        /* \"#utility.yul\":1826:1828   */\n      0x20\n        /* \"#utility.yul\":1814:1823   */\n      dup3\n        /* \"#utility.yul\":1805:1812   */\n      dup5\n        /* \"#utility.yul\":1801:1824   */\n      sub\n        /* \"#utility.yul\":1797:1829   */\n      slt\n        /* \"#utility.yul\":1794:1913   */\n      iszero\n      tag_163\n      jumpi\n        /* \"#utility.yul\":1832:1911   */\n      tag_164\n      tag_160\n      jump\t// in\n    tag_164:\n        /* \"#utility.yul\":1794:1913   */\n    tag_163:\n        /* \"#utility.yul\":1952:1953   */\n      0x00\n        /* \"#utility.yul\":1977:2038   */\n      tag_165\n        /* \"#utility.yul\":2030:2037   */\n      dup5\n        /* \"#utility.yul\":2021:2027   */\n      dup3\n        /* \"#utility.yul\":2010:2019   */\n      dup6\n        /* \"#utility.yul\":2006:2028   */\n      add\n        /* \"#utility.yul\":1977:2038   */\n      tag_139\n      jump\t// in\n    tag_165:\n        /* \"#utility.yul\":1967:2038   */\n      swap2\n      pop\n        /* \"#utility.yul\":1923:2048   */\n      pop\n        /* \"#utility.yul\":1710:2055   */\n      swap3\n      swap2\n      pop\n      pop\n      jump\t// out\n        /* \"#utility.yul\":2061:3488   */\n    tag_11:\n        /* \"#utility.yul\":2190:2196   */\n      0x00\n        /* \"#utility.yul\":2198:2204   */\n      dup1\n        /* \"#utility.yul\":2206:2212   */\n      0x00\n        /* \"#utility.yul\":2214:2220   */\n      dup1\n        /* \"#utility.yul\":2222:2228   */\n      0x00\n        /* \"#utility.yul\":2230:2236   */\n      dup1\n        /* \"#utility.yul\":2279:2282   */\n      0xc0\n        /* \"#utility.yul\":2267:2276   */\n      dup8\n        /* \"#utility.yul\":2258:2265   */\n      dup10\n        /* \"#utility.yul\":2254:2277   */\n      sub\n        /* \"#utility.yul\":2250:2283   */\n      slt\n        /* \"#utility.yul\":2247:2367   */\n      iszero\n      tag_167\n      jumpi\n        /* \"#utility.yul\":2286:2365   */\n      tag_168\n      tag_160\n      jump\t// in\n    tag_168:\n        /* \"#utility.yul\":2247:2367   */\n    tag_167:\n        /* \"#utility.yul\":2406:2407   */\n      0x00\n        /* \"#utility.yul\":2431:2492   */\n      tag_169\n        /* \"#utility.yul\":2484:2491   */\n      dup10\n        /* \"#utility.yul\":2475:2481   */\n      dup3\n        /* \"#utility.yul\":2464:2473   */\n      dup11\n        /* \"#utility.yul\":2460:2482   */\n      add\n        /* \"#utility.yul\":2431:2492   */\n      tag_139\n      jump\t// in\n    tag_169:\n        /* \"#utility.yul\":2421:2492   */\n      swap7\n      pop\n        /* \"#utility.yul\":2377:2502   */\n      pop\n        /* \"#utility.yul\":2569:2571   */\n      0x20\n        /* \"#utility.yul\":2558:2567   */\n      dup8\n        /* \"#utility.yul\":2554:2572   */\n      add\n        /* \"#utility.yul\":2541:2573   */\n      calldataload\n        /* \"#utility.yul\":2600:2618   */\n      0xffffffffffffffff\n        /* \"#utility.yul\":2592:2598   */\n      dup2\n        /* \"#utility.yul\":2589:2619   */\n      gt\n        /* \"#utility.yul\":2586:2703   */\n      iszero\n      tag_170\n      jumpi\n        /* \"#utility.yul\":2622:2701   */\n      tag_171\n      tag_172\n      jump\t// in\n    tag_171:\n        /* \"#utility.yul\":2586:2703   */\n    tag_170:\n        /* \"#utility.yul\":2727:2790   */\n      tag_173\n        /* \"#utility.yul\":2782:2789   */\n      dup10\n        /* \"#utility.yul\":2773:2779   */\n      dup3\n        /* \"#utility.yul\":2762:2771   */\n      dup11\n        /* \"#utility.yul\":2758:2780   */\n      add\n        /* \"#utility.yul\":2727:2790   */\n      tag_147\n      jump\t// in\n    tag_173:\n        /* \"#utility.yul\":2717:2790   */\n      swap6\n      pop\n        /* \"#utility.yul\":2512:2800   */\n      pop\n        /* \"#utility.yul\":2867:2869   */\n      0x40\n        /* \"#utility.yul\":2856:2865   */\n      dup8\n        /* \"#utility.yul\":2852:2870   */\n      add\n        /* \"#utility.yul\":2839:2871   */\n      calldataload\n        /* \"#utility.yul\":2898:2916   */\n      0xffffffffffffffff\n        /* \"#utility.yul\":2890:2896   */\n      dup2\n        /* \"#utility.yul\":2887:2917   */\n      gt\n        /* \"#utility.yul\":2884:3001   */\n      iszero\n      tag_174\n      jumpi\n        /* \"#utility.yul\":2920:2999   */\n      tag_175\n      tag_172\n      jump\t// in\n    tag_175:\n        /* \"#utility.yul\":2884:3001   */\n    tag_174:\n        /* \"#utility.yul\":3025:3088   */\n      tag_176\n        /* \"#utility.yul\":3080:3087   */\n      dup10\n        /* \"#utility.yul\":3071:3077   */\n      dup3\n        /* \"#utility.yul\":3060:3069   */\n      dup11\n        /* \"#utility.yul\":3056:3078   */\n      add\n        /* \"#utility.yul\":3025:3088   */\n      tag_147\n      jump\t// in\n    tag_176:\n        /* \"#utility.yul\":3015:3088   */\n      swap5\n      pop\n        /* \"#utility.yul\":2810:3098   */\n      pop\n        /* \"#utility.yul\":3137:3139   */\n      0x60\n        /* \"#utility.yul\":3163:3216   */\n      tag_177\n        /* \"#utility.yul\":3208:3215   */\n      dup10\n        /* \"#utility.yul\":3199:3205   */\n      dup3\n        /* \"#utility.yul\":3188:3197   */\n      dup11\n        /* \"#utility.yul\":3184:3206   */\n      add\n        /* \"#utility.yul\":3163:3216   */\n      tag_153\n      jump\t// in\n    tag_177:\n        /* \"#utility.yul\":3153:3216   */\n      swap4\n      pop\n        /* \"#utility.yul\":3108:3226   */\n      pop\n        /* \"#utility.yul\":3265:3268   */\n      0x80\n        /* \"#utility.yul\":3292:3345   */\n      tag_178\n        /* \"#utility.yul\":3337:3344   */\n      dup10\n        /* \"#utility.yul\":3328:3334   */\n      dup3\n        /* \"#utility.yul\":3317:3326   */\n      dup11\n        /* \"#utility.yul\":3313:3335   */\n      add\n        /* \"#utility.yul\":3292:3345   */\n      tag_153\n      jump\t// in\n    tag_178:\n        /* \"#utility.yul\":3282:3345   */\n      swap3\n      pop\n        /* \"#utility.yul\":3236:3355   */\n      pop\n        /* \"#utility.yul\":3394:3397   */\n      0xa0\n        /* \"#utility.yul\":3421:3471   */\n      tag_179\n        /* \"#utility.yul\":3463:3470   */\n      dup10\n        /* \"#utility.yul\":3454:3460   */\n      dup3\n        /* \"#utility.yul\":3443:3452   */\n      dup11\n        /* \"#utility.yul\":3439:3461   */\n      add\n        /* \"#utility.yul\":3421:3471   */\n      tag_143\n      jump\t// in\n    tag_179:\n        /* \"#utility.yul\":3411:3471   */\n      swap2\n      pop\n        /* \"#utility.yul\":3365:3481   */\n      pop\n        /* \"#utility.yul\":2061:3488   */\n      swap3\n      swap6\n      pop\n      swap3\n      swap6\n      pop\n      swap3\n      swap6\n      jump\t// out\n        /* \"#utility.yul\":3494:3823   */\n    tag_25:\n        /* \"#utility.yul\":3553:3559   */\n      0x00\n        /* \"#utility.yul\":3602:3604   */\n      0x20\n        /* \"#utility.yul\":3590:3599   */\n      dup3\n        /* \"#utility.yul\":3581:3588   */\n      dup5\n        /* \"#utility.yul\":3577:3600   */\n      sub\n        /* \"#utility.yul\":3573:3605   */\n      slt\n        /* \"#utility.yul\":3570:3689   */\n      iszero\n      tag_181\n      jumpi\n        /* \"#utility.yul\":3608:3687   */\n      tag_182\n      tag_160\n      jump\t// in\n    tag_182:\n        /* \"#utility.yul\":3570:3689   */\n    tag_181:\n        /* \"#utility.yul\":3728:3729   */\n      0x00\n        /* \"#utility.yul\":3753:3806   */\n      tag_183\n        /* \"#utility.yul\":3798:3805   */\n      dup5\n        /* \"#utility.yul\":3789:3795   */\n      dup3\n        /* \"#utility.yul\":3778:3787   */\n      dup6\n        /* \"#utility.yul\":3774:3796   */\n      add\n        /* \"#utility.yul\":3753:3806   */\n      tag_153\n      jump\t// in\n    tag_183:\n        /* \"#utility.yul\":3743:3806   */\n      swap2\n      pop\n        /* \"#utility.yul\":3699:3816   */\n      pop\n        /* \"#utility.yul\":3494:3823   */\n      swap3\n      swap2\n      pop\n      pop\n      jump\t// out\n        /* \"#utility.yul\":3829:3971   */\n    tag_184:\n        /* \"#utility.yul\":3932:3964   */\n      tag_186\n        /* \"#utility.yul\":3958:3963   */\n      dup2\n        /* \"#utility.yul\":3932:3964   */\n      tag_187\n      jump\t// in\n    tag_186:\n        /* \"#utility.yul\":3927:3930   */\n      dup3\n        /* \"#utility.yul\":3920:3965   */\n      mstore\n        /* \"#utility.yul\":3829:3971   */\n      pop\n      pop\n      jump\t// out\n        /* \"#utility.yul\":3977:4086   */\n    tag_188:\n        /* \"#utility.yul\":4058:4079   */\n      tag_190\n        /* \"#utility.yul\":4073:4078   */\n      dup2\n        /* \"#utility.yul\":4058:4079   */\n      tag_191\n      jump\t// in\n    tag_190:\n        /* \"#utility.yul\":4053:4056   */\n      dup3\n        /* \"#utility.yul\":4046:4080   */\n      mstore\n        /* \"#utility.yul\":3977:4086   */\n      pop\n      pop\n      jump\t// out\n        /* \"#utility.yul\":4092:4456   */\n    tag_192:\n        /* \"#utility.yul\":4180:4183   */\n      0x00\n        /* \"#utility.yul\":4208:4247   */\n      tag_194\n        /* \"#utility.yul\":4241:4246   */\n      dup3\n        /* \"#utility.yul\":4208:4247   */\n      tag_195\n      jump\t// in\n    tag_194:\n        /* \"#utility.yul\":4263:4334   */\n      tag_196\n        /* \"#utility.yul\":4327:4333   */\n      dup2\n        /* \"#utility.yul\":4322:4325   */\n      dup6\n        /* \"#utility.yul\":4263:4334   */\n      tag_197\n      jump\t// in\n    tag_196:\n        /* \"#utility.yul\":4256:4334   */\n      swap4\n      pop\n        /* \"#utility.yul\":4343:4395   */\n      tag_198\n        /* \"#utility.yul\":4388:4394   */\n      dup2\n        /* \"#utility.yul\":4383:4386   */\n      dup6\n        /* \"#utility.yul\":4376:4380   */\n      0x20\n        /* \"#utility.yul\":4369:4374   */\n      dup7\n        /* \"#utility.yul\":4365:4381   */\n      add\n        /* \"#utility.yul\":4343:4395   */\n      tag_199\n      jump\t// in\n    tag_198:\n        /* \"#utility.yul\":4420:4449   */\n      tag_200\n        /* \"#utility.yul\":4442:4448   */\n      dup2\n        /* \"#utility.yul\":4420:4449   */\n      tag_201\n      jump\t// in\n    tag_200:\n        /* \"#utility.yul\":4415:4418   */\n      dup5\n        /* \"#utility.yul\":4411:4450   */\n      add\n        /* \"#utility.yul\":4404:4450   */\n      swap2\n      pop\n        /* \"#utility.yul\":4184:4456   */\n      pop\n        /* \"#utility.yul\":4092:4456   */\n      swap3\n      swap2\n      pop\n      pop\n      jump\t// out\n        /* \"#utility.yul\":4462:4826   */\n    tag_202:\n        /* \"#utility.yul\":4604:4607   */\n      0x00\n        /* \"#utility.yul\":4625:4691   */\n      tag_204\n        /* \"#utility.yul\":4689:4690   */\n      0x00\n        /* \"#utility.yul\":4684:4687   */\n      dup4\n        /* \"#utility.yul\":4625:4691   */\n      tag_197\n      jump\t// in\n    tag_204:\n        /* \"#utility.yul\":4618:4691   */\n      swap2\n      pop\n        /* \"#utility.yul\":4700:4793   */\n      tag_205\n        /* \"#utility.yul\":4789:4792   */\n      dup3\n        /* \"#utility.yul\":4700:4793   */\n      tag_206\n      jump\t// in\n    tag_205:\n        /* \"#utility.yul\":4818:4819   */\n      0x00\n        /* \"#utility.yul\":4813:4816   */\n      dup3\n        /* \"#utility.yul\":4809:4820   */\n      add\n        /* \"#utility.yul\":4802:4820   */\n      swap1\n      pop\n        /* \"#utility.yul\":4462:4826   */\n      swap2\n      swap1\n      pop\n      jump\t// out\n        /* \"#utility.yul\":4832:4950   */\n    tag_207:\n        /* \"#utility.yul\":4919:4943   */\n      tag_209\n        /* \"#utility.yul\":4937:4942   */\n      dup2\n        /* \"#utility.yul\":4919:4943   */\n      tag_210\n      jump\t// in\n    tag_209:\n        /* \"#utility.yul\":4914:4917   */\n      dup3\n        /* \"#utility.yul\":4907:4944   */\n      mstore\n        /* \"#utility.yul\":4832:4950   */\n      pop\n      pop\n      jump\t// out\n        /* \"#utility.yul\":4956:5933   */\n    tag_28:\n        /* \"#utility.yul\":5239:5243   */\n      0x00\n        /* \"#utility.yul\":5277:5280   */\n      0xc0\n        /* \"#utility.yul\":5266:5275   */\n      dup3\n        /* \"#utility.yul\":5262:5281   */\n      add\n        /* \"#utility.yul\":5254:5281   */\n      swap1\n      pop\n        /* \"#utility.yul\":5291:5378   */\n      tag_212\n        /* \"#utility.yul\":5375:5376   */\n      0x00\n        /* \"#utility.yul\":5364:5373   */\n      dup4\n        /* \"#utility.yul\":5360:5377   */\n      add\n        /* \"#utility.yul\":5351:5357   */\n      dup10\n        /* \"#utility.yul\":5291:5378   */\n      tag_184\n      jump\t// in\n    tag_212:\n        /* \"#utility.yul\":5425:5434   */\n      dup2\n        /* \"#utility.yul\":5419:5423   */\n      dup2\n        /* \"#utility.yul\":5415:5435   */\n      sub\n        /* \"#utility.yul\":5410:5412   */\n      0x20\n        /* \"#utility.yul\":5399:5408   */\n      dup4\n        /* \"#utility.yul\":5395:5413   */\n      add\n        /* \"#utility.yul\":5388:5436   */\n      mstore\n        /* \"#utility.yul\":5453:5531   */\n      tag_213\n        /* \"#utility.yul\":5526:5530   */\n      dup2\n        /* \"#utility.yul\":5517:5523   */\n      dup9\n        /* \"#utility.yul\":5453:5531   */\n      tag_192\n      jump\t// in\n    tag_213:\n        /* \"#utility.yul\":5445:5531   */\n      swap1\n      pop\n        /* \"#utility.yul\":5578:5587   */\n      dup2\n        /* \"#utility.yul\":5572:5576   */\n      dup2\n        /* \"#utility.yul\":5568:5588   */\n      sub\n        /* \"#utility.yul\":5563:5565   */\n      0x40\n        /* \"#utility.yul\":5552:5561   */\n      dup4\n        /* \"#utility.yul\":5548:5566   */\n      add\n        /* \"#utility.yul\":5541:5589   */\n      mstore\n        /* \"#utility.yul\":5606:5684   */\n      tag_214\n        /* \"#utility.yul\":5679:5683   */\n      dup2\n        /* \"#utility.yul\":5670:5676   */\n      dup8\n        /* \"#utility.yul\":5606:5684   */\n      tag_192\n      jump\t// in\n    tag_214:\n        /* \"#utility.yul\":5598:5684   */\n      swap1\n      pop\n        /* \"#utility.yul\":5694:5766   */\n      tag_215\n        /* \"#utility.yul\":5762:5764   */\n      0x60\n        /* \"#utility.yul\":5751:5760   */\n      dup4\n        /* \"#utility.yul\":5747:5765   */\n      add\n        /* \"#utility.yul\":5738:5744   */\n      dup7\n        /* \"#utility.yul\":5694:5766   */\n      tag_207\n      jump\t// in\n    tag_215:\n        /* \"#utility.yul\":5776:5849   */\n      tag_216\n        /* \"#utility.yul\":5844:5847   */\n      0x80\n        /* \"#utility.yul\":5833:5842   */\n      dup4\n        /* \"#utility.yul\":5829:5848   */\n      add\n        /* \"#utility.yul\":5820:5826   */\n      dup6\n        /* \"#utility.yul\":5776:5849   */\n      tag_207\n      jump\t// in\n    tag_216:\n        /* \"#utility.yul\":5859:5926   */\n      tag_217\n        /* \"#utility.yul\":5921:5924   */\n      0xa0\n        /* \"#utility.yul\":5910:5919   */\n      dup4\n        /* \"#utility.yul\":5906:5925   */\n      add\n        /* \"#utility.yul\":5897:5903   */\n      dup5\n        /* \"#utility.yul\":5859:5926   */\n      tag_188\n      jump\t// in\n    tag_217:\n        /* \"#utility.yul\":4956:5933   */\n      swap8\n      swap7\n      pop\n      pop\n      pop\n      pop\n      pop\n      pop\n      pop\n      jump\t// out\n        /* \"#utility.yul\":5939:6149   */\n    tag_38:\n        /* \"#utility.yul\":6026:6030   */\n      0x00\n        /* \"#utility.yul\":6064:6066   */\n      0x20\n        /* \"#utility.yul\":6053:6062   */\n      dup3\n        /* \"#utility.yul\":6049:6067   */\n      add\n        /* \"#utility.yul\":6041:6067   */\n      swap1\n      pop\n        /* \"#utility.yul\":6077:6142   */\n      tag_219\n        /* \"#utility.yul\":6139:6140   */\n      0x00\n        /* \"#utility.yul\":6128:6137   */\n      dup4\n        /* \"#utility.yul\":6124:6141   */\n      add\n        /* \"#utility.yul\":6115:6121   */\n      dup5\n        /* \"#utility.yul\":6077:6142   */\n      tag_188\n      jump\t// in\n    tag_219:\n        /* \"#utility.yul\":5939:6149   */\n      swap3\n      swap2\n      pop\n      pop\n      jump\t// out\n        /* \"#utility.yul\":6155:6574   */\n    tag_53:\n        /* \"#utility.yul\":6321:6325   */\n      0x00\n        /* \"#utility.yul\":6359:6361   */\n      0x20\n        /* \"#utility.yul\":6348:6357   */\n      dup3\n        /* \"#utility.yul\":6344:6362   */\n      add\n        /* \"#utility.yul\":6336:6362   */\n      swap1\n      pop\n        /* \"#utility.yul\":6408:6417   */\n      dup2\n        /* \"#utility.yul\":6402:6406   */\n      dup2\n        /* \"#utility.yul\":6398:6418   */\n      sub\n        /* \"#utility.yul\":6394:6395   */\n      0x00\n        /* \"#utility.yul\":6383:6392   */\n      dup4\n        /* \"#utility.yul\":6379:6396   */\n      add\n        /* \"#utility.yul\":6372:6419   */\n      mstore\n        /* \"#utility.yul\":6436:6567   */\n      tag_221\n        /* \"#utility.yul\":6562:6566   */\n      dup2\n        /* \"#utility.yul\":6436:6567   */\n      tag_202\n      jump\t// in\n    tag_221:\n        /* \"#utility.yul\":6428:6567   */\n      swap1\n      pop\n        /* \"#utility.yul\":6155:6574   */\n      swap2\n      swap1\n      pop\n      jump\t// out\n        /* \"#utility.yul\":6580:6802   */\n    tag_21:\n        /* \"#utility.yul\":6673:6677   */\n      0x00\n        /* \"#utility.yul\":6711:6713   */\n      0x20\n        /* \"#utility.yul\":6700:6709   */\n      dup3\n        /* \"#utility.yul\":6696:6714   */\n      add\n        /* \"#utility.yul\":6688:6714   */\n      swap1\n      pop\n        /* \"#utility.yul\":6724:6795   */\n      tag_223\n        /* \"#utility.yul\":6792:6793   */\n      0x00\n        /* \"#utility.yul\":6781:6790   */\n      dup4\n        /* \"#utility.yul\":6777:6794   */\n      add\n        /* \"#utility.yul\":6768:6774   */\n      dup5\n        /* \"#utility.yul\":6724:6795   */\n      tag_207\n      jump\t// in\n    tag_223:\n        /* \"#utility.yul\":6580:6802   */\n      swap3\n      swap2\n      pop\n      pop\n      jump\t// out\n        /* \"#utility.yul\":6808:6937   */\n    tag_129:\n        /* \"#utility.yul\":6842:6848   */\n      0x00\n        /* \"#utility.yul\":6869:6889   */\n      tag_225\n      tag_226\n      jump\t// in\n    tag_225:\n        /* \"#utility.yul\":6859:6889   */\n      swap1\n      pop\n        /* \"#utility.yul\":6898:6931   */\n      tag_227\n        /* \"#utility.yul\":6926:6930   */\n      dup3\n        /* \"#utility.yul\":6918:6924   */\n      dup3\n        /* \"#utility.yul\":6898:6931   */\n      tag_228\n      jump\t// in\n    tag_227:\n        /* \"#utility.yul\":6808:6937   */\n      swap2\n      swap1\n      pop\n      jump\t// out\n        /* \"#utility.yul\":6943:7018   */\n    tag_226:\n        /* \"#utility.yul\":6976:6982   */\n      0x00\n        /* \"#utility.yul\":7009:7011   */\n      0x40\n        /* \"#utility.yul\":7003:7012   */\n      mload\n        /* \"#utility.yul\":6993:7012   */\n      swap1\n      pop\n        /* \"#utility.yul\":6943:7018   */\n      swap1\n      jump\t// out\n        /* \"#utility.yul\":7024:7332   */\n    tag_128:\n        /* \"#utility.yul\":7086:7090   */\n      0x00\n        /* \"#utility.yul\":7176:7194   */\n      0xffffffffffffffff\n        /* \"#utility.yul\":7168:7174   */\n      dup3\n        /* \"#utility.yul\":7165:7195   */\n      gt\n        /* \"#utility.yul\":7162:7218   */\n      iszero\n      tag_231\n      jumpi\n        /* \"#utility.yul\":7198:7216   */\n      tag_232\n      tag_233\n      jump\t// in\n    tag_232:\n        /* \"#utility.yul\":7162:7218   */\n    tag_231:\n        /* \"#utility.yul\":7236:7265   */\n      tag_234\n        /* \"#utility.yul\":7258:7264   */\n      dup3\n        /* \"#utility.yul\":7236:7265   */\n      tag_201\n      jump\t// in\n    tag_234:\n        /* \"#utility.yul\":7228:7265   */\n      swap1\n      pop\n        /* \"#utility.yul\":7320:7324   */\n      0x20\n        /* \"#utility.yul\":7314:7318   */\n      dup2\n        /* \"#utility.yul\":7310:7325   */\n      add\n        /* \"#utility.yul\":7302:7325   */\n      swap1\n      pop\n        /* \"#utility.yul\":7024:7332   */\n      swap2\n      swap1\n      pop\n      jump\t// out\n        /* \"#utility.yul\":7338:7437   */\n    tag_195:\n        /* \"#utility.yul\":7390:7396   */\n      0x00\n        /* \"#utility.yul\":7424:7429   */\n      dup2\n        /* \"#utility.yul\":7418:7430   */\n      mload\n        /* \"#utility.yul\":7408:7430   */\n      swap1\n      pop\n        /* \"#utility.yul\":7338:7437   */\n      swap2\n      swap1\n      pop\n      jump\t// out\n        /* \"#utility.yul\":7443:7612   */\n    tag_197:\n        /* \"#utility.yul\":7527:7538   */\n      0x00\n        /* \"#utility.yul\":7561:7567   */\n      dup3\n        /* \"#utility.yul\":7556:7559   */\n      dup3\n        /* \"#utility.yul\":7549:7568   */\n      mstore\n        /* \"#utility.yul\":7601:7605   */\n      0x20\n        /* \"#utility.yul\":7596:7599   */\n      dup3\n        /* \"#utility.yul\":7592:7606   */\n      add\n        /* \"#utility.yul\":7577:7606   */\n      swap1\n      pop\n        /* \"#utility.yul\":7443:7612   */\n      swap3\n      swap2\n      pop\n      pop\n      jump\t// out\n        /* \"#utility.yul\":7618:7923   */\n    tag_111:\n        /* \"#utility.yul\":7658:7661   */\n      0x00\n        /* \"#utility.yul\":7677:7697   */\n      tag_238\n        /* \"#utility.yul\":7695:7696   */\n      dup3\n        /* \"#utility.yul\":7677:7697   */\n      tag_210\n      jump\t// in\n    tag_238:\n        /* \"#utility.yul\":7672:7697   */\n      swap2\n      pop\n        /* \"#utility.yul\":7711:7731   */\n      tag_239\n        /* \"#utility.yul\":7729:7730   */\n      dup4\n        /* \"#utility.yul\":7711:7731   */\n      tag_210\n      jump\t// in\n    tag_239:\n        /* \"#utility.yul\":7706:7731   */\n      swap3\n      pop\n        /* \"#utility.yul\":7865:7866   */\n      dup3\n        /* \"#utility.yul\":7797:7863   */\n      0xffffffffffffffffffffffffffffffffffffffffffffffffffffffffffffffff\n        /* \"#utility.yul\":7793:7867   */\n      sub\n        /* \"#utility.yul\":7790:7791   */\n      dup3\n        /* \"#utility.yul\":7787:7868   */\n      gt\n        /* \"#utility.yul\":7784:7891   */\n      iszero\n      tag_240\n      jumpi\n        /* \"#utility.yul\":7871:7889   */\n      tag_241\n      tag_242\n      jump\t// in\n    tag_241:\n        /* \"#utility.yul\":7784:7891   */\n    tag_240:\n        /* \"#utility.yul\":7915:7916   */\n      dup3\n        /* \"#utility.yul\":7912:7913   */\n      dup3\n        /* \"#utility.yul\":7908:7917   */\n      add\n        /* \"#utility.yul\":7901:7917   */\n      swap1\n      pop\n        /* \"#utility.yul\":7618:7923   */\n      swap3\n      swap2\n      pop\n      pop\n      jump\t// out\n        /* \"#utility.yul\":7929:8025   */\n    tag_243:\n        /* \"#utility.yul\":7966:7973   */\n      0x00\n        /* \"#utility.yul\":7995:8019   */\n      tag_245\n        /* \"#utility.yul\":8013:8018   */\n      dup3\n        /* \"#utility.yul\":7995:8019   */\n      tag_246\n      jump\t// in\n    tag_245:\n        /* \"#utility.yul\":7984:8019   */\n      swap1\n      pop\n        /* \"#utility.yul\":7929:8025   */\n      swap2\n      swap1\n      pop\n      jump\t// out\n        /* \"#utility.yul\":8031:8135   */\n    tag_187:\n        /* \"#utility.yul\":8076:8083   */\n      0x00\n        /* \"#utility.yul\":8105:8129   */\n      tag_248\n        /* \"#utility.yul\":8123:8128   */\n      dup3\n        /* \"#utility.yul\":8105:8129   */\n      tag_246\n      jump\t// in\n    tag_248:\n        /* \"#utility.yul\":8094:8129   */\n      swap1\n      pop\n        /* \"#utility.yul\":8031:8135   */\n      swap2\n      swap1\n      pop\n      jump\t// out\n        /* \"#utility.yul\":8141:8231   */\n    tag_191:\n        /* \"#utility.yul\":8175:8182   */\n      0x00\n        /* \"#utility.yul\":8218:8223   */\n      dup2\n        /* \"#utility.yul\":8211:8224   */\n      iszero\n        /* \"#utility.yul\":8204:8225   */\n      iszero\n        /* \"#utility.yul\":8193:8225   */\n      swap1\n      pop\n        /* \"#utility.yul\":8141:8231   */\n      swap2\n      swap1\n      pop\n      jump\t// out\n        /* \"#utility.yul\":8237:8363   */\n    tag_246:\n        /* \"#utility.yul\":8274:8281   */\n      0x00\n        /* \"#utility.yul\":8314:8356   */\n      0xffffffffffffffffffffffffffffffffffffffff\n        /* \"#utility.yul\":8307:8312   */\n      dup3\n        /* \"#utility.yul\":8303:8357   */\n      and\n        /* \"#utility.yul\":8292:8357   */\n      swap1\n      pop\n        /* \"#utility.yul\":8237:8363   */\n      swap2\n      swap1\n      pop\n      jump\t// out\n        /* \"#utility.yul\":8369:8446   */\n    tag_210:\n        /* \"#utility.yul\":8406:8413   */\n      0x00\n        /* \"#utility.yul\":8435:8440   */\n      dup2\n        /* \"#utility.yul\":8424:8440   */\n      swap1\n      pop\n        /* \"#utility.yul\":8369:8446   */\n      swap2\n      swap1\n      pop\n      jump\t// out\n        /* \"#utility.yul\":8452:8606   */\n    tag_134:\n        /* \"#utility.yul\":8536:8542   */\n      dup3\n        /* \"#utility.yul\":8531:8534   */\n      dup2\n        /* \"#utility.yul\":8526:8529   */\n      dup4\n        /* \"#utility.yul\":8513:8543   */\n      calldatacopy\n        /* \"#utility.yul\":8598:8599   */\n      0x00\n        /* \"#utility.yul\":8589:8595   */\n      dup4\n        /* \"#utility.yul\":8584:8587   */\n      dup4\n        /* \"#utility.yul\":8580:8596   */\n      add\n        /* \"#utility.yul\":8573:8600   */\n      mstore\n        /* \"#utility.yul\":8452:8606   */\n      pop\n      pop\n      pop\n      jump\t// out\n        /* \"#utility.yul\":8612:8919   */\n    tag_199:\n        /* \"#utility.yul\":8680:8681   */\n      0x00\n        /* \"#utility.yul\":8690:8803   */\n    tag_254:\n        /* \"#utility.yul\":8704:8710   */\n      dup4\n        /* \"#utility.yul\":8701:8702   */\n      dup2\n        /* \"#utility.yul\":8698:8711   */\n      lt\n        /* \"#utility.yul\":8690:8803   */\n      iszero\n      tag_256\n      jumpi\n        /* \"#utility.yul\":8789:8790   */\n      dup1\n        /* \"#utility.yul\":8784:8787   */\n      dup3\n        /* \"#utility.yul\":8780:8791   */\n      add\n        /* \"#utility.yul\":8774:8792   */\n      mload\n        /* \"#utility.yul\":8770:8771   */\n      dup2\n        /* \"#utility.yul\":8765:8768   */\n      dup5\n        /* \"#utility.yul\":8761:8772   */\n      add\n        /* \"#utility.yul\":8754:8793   */\n      mstore\n        /* \"#utility.yul\":8726:8728   */\n      0x20\n        /* \"#utility.yul\":8723:8724   */\n      dup2\n        /* \"#utility.yul\":8719:8729   */\n      add\n        /* \"#utility.yul\":8714:8729   */\n      swap1\n      pop\n        /* \"#utility.yul\":8690:8803   */\n      jump(tag_254)\n    tag_256:\n        /* \"#utility.yul\":8821:8827   */\n      dup4\n        /* \"#utility.yul\":8818:8819   */\n      dup2\n        /* \"#utility.yul\":8815:8828   */\n      gt\n        /* \"#utility.yul\":8812:8913   */\n      iszero\n      tag_257\n      jumpi\n        /* \"#utility.yul\":8901:8902   */\n      0x00\n        /* \"#utility.yul\":8892:8898   */\n      dup5\n        /* \"#utility.yul\":8887:8890   */\n      dup5\n        /* \"#utility.yul\":8883:8899   */\n      add\n        /* \"#utility.yul\":8876:8903   */\n      mstore\n        /* \"#utility.yul\":8812:8913   */\n    tag_257:\n        /* \"#utility.yul\":8661:8919   */\n      pop\n        /* \"#utility.yul\":8612:8919   */\n      pop\n      pop\n      pop\n      jump\t// out\n        /* \"#utility.yul\":8925:9245   */\n    tag_66:\n        /* \"#utility.yul\":8969:8975   */\n      0x00\n        /* \"#utility.yul\":9006:9007   */\n      0x02\n        /* \"#utility.yul\":9000:9004   */\n      dup3\n        /* \"#utility.yul\":8996:9008   */\n      div\n        /* \"#utility.yul\":8986:9008   */\n      swap1\n      pop\n        /* \"#utility.yul\":9053:9054   */\n      0x01\n        /* \"#utility.yul\":9047:9051   */\n      dup3\n        /* \"#utility.yul\":9043:9055   */\n      and\n        /* \"#utility.yul\":9074:9092   */\n      dup1\n        /* \"#utility.yul\":9064:9145   */\n      tag_259\n      jumpi\n        /* \"#utility.yul\":9130:9134   */\n      0x7f\n        /* \"#utility.yul\":9122:9128   */\n      dup3\n        /* \"#utility.yul\":9118:9135   */\n      and\n        /* \"#utility.yul\":9108:9135   */\n      swap2\n      pop\n        /* \"#utility.yul\":9064:9145   */\n    tag_259:\n        /* \"#utility.yul\":9192:9194   */\n      0x20\n        /* \"#utility.yul\":9184:9190   */\n      dup3\n        /* \"#utility.yul\":9181:9195   */\n      lt\n        /* \"#utility.yul\":9161:9179   */\n      dup2\n        /* \"#utility.yul\":9158:9196   */\n      eq\n        /* \"#utility.yul\":9155:9239   */\n      iszero\n      tag_260\n      jumpi\n        /* \"#utility.yul\":9211:9229   */\n      tag_261\n      tag_262\n      jump\t// in\n    tag_261:\n        /* \"#utility.yul\":9155:9239   */\n    tag_260:\n        /* \"#utility.yul\":8976:9245   */\n      pop\n        /* \"#utility.yul\":8925:9245   */\n      swap2\n      swap1\n      pop\n      jump\t// out\n        /* \"#utility.yul\":9251:9532   */\n    tag_228:\n        /* \"#utility.yul\":9334:9361   */\n      tag_264\n        /* \"#utility.yul\":9356:9360   */\n      dup3\n        /* \"#utility.yul\":9334:9361   */\n      tag_201\n      jump\t// in\n    tag_264:\n        /* \"#utility.yul\":9326:9332   */\n      dup2\n        /* \"#utility.yul\":9322:9362   */\n      add\n        /* \"#utility.yul\":9464:9470   */\n      dup2\n        /* \"#utility.yul\":9452:9462   */\n      dup2\n        /* \"#utility.yul\":9449:9471   */\n      lt\n        /* \"#utility.yul\":9428:9446   */\n      0xffffffffffffffff\n        /* \"#utility.yul\":9416:9426   */\n      dup3\n        /* \"#utility.yul\":9413:9447   */\n      gt\n        /* \"#utility.yul\":9410:9472   */\n      or\n        /* \"#utility.yul\":9407:9495   */\n      iszero\n      tag_265\n      jumpi\n        /* \"#utility.yul\":9475:9493   */\n      tag_266\n      tag_233\n      jump\t// in\n    tag_266:\n        /* \"#utility.yul\":9407:9495   */\n    tag_265:\n        /* \"#utility.yul\":9515:9525   */\n      dup1\n        /* \"#utility.yul\":9511:9513   */\n      0x40\n        /* \"#utility.yul\":9504:9526   */\n      mstore\n        /* \"#utility.yul\":9294:9532   */\n      pop\n        /* \"#utility.yul\":9251:9532   */\n      pop\n      pop\n      jump\t// out\n        /* \"#utility.yul\":9538:9771   */\n    tag_98:\n        /* \"#utility.yul\":9577:9580   */\n      0x00\n        /* \"#utility.yul\":9600:9624   */\n      tag_268\n        /* \"#utility.yul\":9618:9623   */\n      dup3\n        /* \"#utility.yul\":9600:9624   */\n      tag_210\n      jump\t// in\n    tag_268:\n        /* \"#utility.yul\":9591:9624   */\n      swap2\n      pop\n        /* \"#utility.yul\":9646:9712   */\n      0xffffffffffffffffffffffffffffffffffffffffffffffffffffffffffffffff\n        /* \"#utility.yul\":9639:9644   */\n      dup3\n        /* \"#utility.yul\":9636:9713   */\n      eq\n        /* \"#utility.yul\":9633:9736   */\n      iszero\n      tag_269\n      jumpi\n        /* \"#utility.yul\":9716:9734   */\n      tag_270\n      tag_242\n      jump\t// in\n    tag_270:\n        /* \"#utility.yul\":9633:9736   */\n    tag_269:\n        /* \"#utility.yul\":9763:9764   */\n      0x01\n        /* \"#utility.yul\":9756:9761   */\n      dup3\n        /* \"#utility.yul\":9752:9765   */\n      add\n        /* \"#utility.yul\":9745:9765   */\n      swap1\n      pop\n        /* \"#utility.yul\":9538:9771   */\n      swap2\n      swap1\n      pop\n      jump\t// out\n        /* \"#utility.yul\":9777:9957   */\n    tag_242:\n        /* \"#utility.yul\":9825:9902   */\n      0x4e487b7100000000000000000000000000000000000000000000000000000000\n        /* \"#utility.yul\":9822:9823   */\n      0x00\n        /* \"#utility.yul\":9815:9903   */\n      mstore\n        /* \"#utility.yul\":9922:9926   */\n      0x11\n        /* \"#utility.yul\":9919:9920   */\n      0x04\n        /* \"#utility.yul\":9912:9927   */\n      mstore\n        /* \"#utility.yul\":9946:9950   */\n      0x24\n        /* \"#utility.yul\":9943:9944   */\n      0x00\n        /* \"#utility.yul\":9936:9951   */\n      revert\n        /* \"#utility.yul\":9963:10143   */\n    tag_262:\n        /* \"#utility.yul\":10011:10088   */\n      0x4e487b7100000000000000000000000000000000000000000000000000000000\n        /* \"#utility.yul\":10008:10009   */\n      0x00\n        /* \"#utility.yul\":10001:10089   */\n      mstore\n        /* \"#utility.yul\":10108:10112   */\n      0x22\n        /* \"#utility.yul\":10105:10106   */\n      0x04\n        /* \"#utility.yul\":10098:10113   */\n      mstore\n        /* \"#utility.yul\":10132:10136   */\n      0x24\n        /* \"#utility.yul\":10129:10130   */\n      0x00\n        /* \"#utility.yul\":10122:10137   */\n      revert\n        /* \"#utility.yul\":10149:10329   */\n    tag_49:\n        /* \"#utility.yul\":10197:10274   */\n      0x4e487b7100000000000000000000000000000000000000000000000000000000\n        /* \"#utility.yul\":10194:10195   */\n      0x00\n        /* \"#utility.yul\":10187:10275   */\n      mstore\n        /* \"#utility.yul\":10294:10298   */\n      0x32\n        /* \"#utility.yul\":10291:10292   */\n      0x04\n        /* \"#utility.yul\":10284:10299   */\n      mstore\n        /* \"#utility.yul\":10318:10322   */\n      0x24\n        /* \"#utility.yul\":10315:10316   */\n      0x00\n        /* \"#utility.yul\":10308:10323   */\n      revert\n        /* \"#utility.yul\":10335:10515   */\n    tag_233:\n        /* \"#utility.yul\":10383:10460   */\n      0x4e487b7100000000000000000000000000000000000000000000000000000000\n        /* \"#utility.yul\":10380:10381   */\n      0x00\n        /* \"#utility.yul\":10373:10461   */\n      mstore\n        /* \"#utility.yul\":10480:10484   */\n      0x41\n        /* \"#utility.yul\":10477:10478   */\n      0x04\n        /* \"#utility.yul\":10470:10485   */\n      mstore\n        /* \"#utility.yul\":10504:10508   */\n      0x24\n        /* \"#utility.yul\":10501:10502   */\n      0x00\n        /* \"#utility.yul\":10494:10509   */\n      revert\n        /* \"#utility.yul\":10521:10638   */\n    tag_151:\n        /* \"#utility.yul\":10630:10631   */\n      0x00\n        /* \"#utility.yul\":10627:10628   */\n      dup1\n        /* \"#utility.yul\":10620:10632   */\n      revert\n        /* \"#utility.yul\":10644:10761   */\n    tag_132:\n        /* \"#utility.yul\":10753:10754   */\n      0x00\n        /* \"#utility.yul\":10750:10751   */\n      dup1\n        /* \"#utility.yul\":10743:10755   */\n      revert\n        /* \"#utility.yul\":10767:10884   */\n    tag_172:\n        /* \"#utility.yul\":10876:10877   */\n      0x00\n        /* \"#utility.yul\":10873:10874   */\n      dup1\n        /* \"#utility.yul\":10866:10878   */\n      revert\n        /* \"#utility.yul\":10890:11007   */\n    tag_160:\n        /* \"#utility.yul\":10999:11000   */\n      0x00\n        /* \"#utility.yul\":10996:10997   */\n      dup1\n        /* \"#utility.yul\":10989:11001   */\n      revert\n        /* \"#utility.yul\":11013:11115   */\n    tag_201:\n        /* \"#utility.yul\":11054:11060   */\n      0x00\n        /* \"#utility.yul\":11105:11107   */\n      0x1f\n        /* \"#utility.yul\":11101:11108   */\n      not\n        /* \"#utility.yul\":11096:11098   */\n      0x1f\n        /* \"#utility.yul\":11089:11094   */\n      dup4\n        /* \"#utility.yul\":11085:11099   */\n      add\n        /* \"#utility.yul\":11081:11109   */\n      and\n        /* \"#utility.yul\":11071:11109   */\n      swap1\n      pop\n        /* \"#utility.yul\":11013:11115   */\n      swap2\n      swap1\n      pop\n      jump\t// out\n        /* \"#utility.yul\":11121:11235   */\n    tag_206:\n      pop\n      jump\t// out\n        /* \"#utility.yul\":11241:11363   */\n    tag_138:\n        /* \"#utility.yul\":11314:11338   */\n      tag_282\n        /* \"#utility.yul\":11332:11337   */\n      dup2\n        /* \"#utility.yul\":11314:11338   */\n      tag_243\n      jump\t// in\n    tag_282:\n        /* \"#utility.yul\":11307:11312   */\n      dup2\n        /* \"#utility.yul\":11304:11339   */\n      eq\n        /* \"#utility.yul\":11294:11357   */\n      tag_283\n      jumpi\n        /* \"#utility.yul\":11353:11354   */\n      0x00\n        /* \"#utility.yul\":11350:11351   */\n      dup1\n        /* \"#utility.yul\":11343:11355   */\n      revert\n        /* \"#utility.yul\":11294:11357   */\n    tag_283:\n        /* \"#utility.yul\":11241:11363   */\n      pop\n      jump\t// out\n        /* \"#utility.yul\":11369:11507   */\n    tag_142:\n        /* \"#utility.yul\":11450:11482   */\n      tag_285\n        /* \"#utility.yul\":11476:11481   */\n      dup2\n        /* \"#utility.yul\":11450:11482   */\n      tag_187\n      jump\t// in\n    tag_285:\n        /* \"#utility.yul\":11443:11448   */\n      dup2\n        /* \"#utility.yul\":11440:11483   */\n      eq\n        /* \"#utility.yul\":11430:11501   */\n      tag_286\n      jumpi\n        /* \"#utility.yul\":11497:11498   */\n      0x00\n        /* \"#utility.yul\":11494:11495   */\n      dup1\n        /* \"#utility.yul\":11487:11499   */\n      revert\n        /* \"#utility.yul\":11430:11501   */\n    tag_286:\n        /* \"#utility.yul\":11369:11507   */\n      pop\n      jump\t// out\n        /* \"#utility.yul\":11513:11629   */\n    tag_146:\n        /* \"#utility.yul\":11583:11604   */\n      tag_288\n        /* \"#utility.yul\":11598:11603   */\n      dup2\n        /* \"#utility.yul\":11583:11604   */\n      tag_191\n      jump\t// in\n    tag_288:\n        /* \"#utility.yul\":11576:11581   */\n      dup2\n        /* \"#utility.yul\":11573:11605   */\n      eq\n        /* \"#utility.yul\":11563:11623   */\n      tag_289\n      jumpi\n        /* \"#utility.yul\":11619:11620   */\n      0x00\n        /* \"#utility.yul\":11616:11617   */\n      dup1\n        /* \"#utility.yul\":11609:11621   */\n      revert\n        /* \"#utility.yul\":11563:11623   */\n    tag_289:\n        /* \"#utility.yul\":11513:11629   */\n      pop\n      jump\t// out\n        /* \"#utility.yul\":11635:11757   */\n    tag_156:\n        /* \"#utility.yul\":11708:11732   */\n      tag_291\n        /* \"#utility.yul\":11726:11731   */\n      dup2\n        /* \"#utility.yul\":11708:11732   */\n      tag_210\n      jump\t// in\n    tag_291:\n        /* \"#utility.yul\":11701:11706   */\n      dup2\n        /* \"#utility.yul\":11698:11733   */\n      eq\n        /* \"#utility.yul\":11688:11751   */\n      tag_292\n      jumpi\n        /* \"#utility.yul\":11747:11748   */\n      0x00\n        /* \"#utility.yul\":11744:11745   */\n      dup1\n        /* \"#utility.yul\":11737:11749   */\n      revert\n        /* \"#utility.yul\":11688:11751   */\n    tag_292:\n        /* \"#utility.yul\":11635:11757   */\n      pop\n      jump\t// out\n\n    auxdata: 0xa2646970667358221220b1bca8b494e178d0e414007a8f64091f062818db1624827b4a47ca2812860b5a64736f6c63430008070033\n}\n",
				"bytecode": {
					"linkReferences": {},
					"object": "608060405234801561001057600080fd5b50336000806101000a81548173ffffffffffffffffffffffffffffffffffffffff021916908373ffffffffffffffffffffffffffffffffffffffff160217905550610f4d806100606000396000f3fe6080604052600436106100555760003560e01c806331d575c51461005a57806351cff8d914610083578063722713f71461009f5780637285fd3a146100ca57806382fc925d1461010c578063a25db8ce14610128575b600080fd5b34801561006657600080fd5b50610081600480360381019061007c9190610987565b610165565b005b61009d6004803603810190610098919061095a565b610294565b005b3480156100ab57600080fd5b506100b4610409565b6040516100c19190610bac565b60405180910390f35b3480156100d657600080fd5b506100f160048036038101906100ec9190610a4c565b610411565b60405161010396959493929190610b02565b60405180910390f35b6101266004803603810190610121919061092d565b61059a565b005b34801561013457600080fd5b5061014f600480360381019061014a919061092d565b6105a6565b60405161015c9190610b71565b60405180910390f35b60016040518060c001604052808873ffffffffffffffffffffffffffffffffffffffff168152602001878152602001868152602001858152602001848152602001831515815250908060018154018082558091505060019003906000526020600020906006020160009091909190915060008201518160000160006101000a81548173ffffffffffffffffffffffffffffffffffffffff021916908373ffffffffffffffffffffffffffffffffffffffff16021790555060208201518160010190805190602001906102389291906107c6565b5060408201518160020190805190602001906102559291906107c6565b50606082015181600301556080820151816004015560a08201518160050160006101000a81548160ff0219169083151502179055505050505050505050565b600061029f82610633565b9050600181815481106102b5576102b4610e35565b5b906000526020600020906006020160000160009054906101000a900473ffffffffffffffffffffffffffffffffffffffff1673ffffffffffffffffffffffffffffffffffffffff163373ffffffffffffffffffffffffffffffffffffffff1614610354576040517f08c379a000000000000000000000000000000000000000000000000000000000815260040161034b90610b8c565b60405180910390fd5b6001818154811061036857610367610e35565b5b906000526020600020906006020160000160009054906101000a900473ffffffffffffffffffffffffffffffffffffffff1673ffffffffffffffffffffffffffffffffffffffff166108fc600183815481106103c7576103c6610e35565b5b9060005260206000209060060201600401549081150290604051600060405180830381858888f19350505050158015610404573d6000803e3d6000fd5b505050565b600047905090565b6001818154811061042157600080fd5b90600052602060002090600602016000915090508060000160009054906101000a900473ffffffffffffffffffffffffffffffffffffffff169080600101805461046a90610d2b565b80601f016020809104026020016040519081016040528092919081815260200182805461049690610d2b565b80156104e35780601f106104b8576101008083540402835291602001916104e3565b820191906000526020600020905b8154815290600101906020018083116104c657829003601f168201915b5050505050908060020180546104f890610d2b565b80601f016020809104026020016040519081016040528092919081815260200182805461052490610d2b565b80156105715780601f1061054657610100808354040283529160200191610571565b820191906000526020600020905b81548152906001019060200180831161055457829003601f168201915b5050505050908060030154908060040154908060050160009054906101000a900460ff16905086565b6105a3816106e9565b50565b6000806105b283610633565b9050600181815481106105c8576105c7610e35565b5b9060005260206000209060060201600301544211156106285760018082815481106105f6576105f5610e35565b5b906000526020600020906006020160050160006101000a81548160ff021916908315150217905550600191505061062e565b60009150505b919050565b600080600090505b6001805490508110156106dd578273ffffffffffffffffffffffffffffffffffffffff166001828154811061067357610672610e35565b5b906000526020600020906006020160000160009054906101000a900473ffffffffffffffffffffffffffffffffffffffff1673ffffffffffffffffffffffffffffffffffffffff1614156106ca57809150506106e4565b80806106d590610d8e565b91505061063b565b506103e790505b919050565b60005b6001805490508110156107c2578173ffffffffffffffffffffffffffffffffffffffff166001828154811061072457610723610e35565b5b906000526020600020906006020160000160009054906101000a900473ffffffffffffffffffffffffffffffffffffffff1673ffffffffffffffffffffffffffffffffffffffff1614156107af57346001828154811061078757610786610e35565b5b906000526020600020906006020160040160008282546107a79190610c39565b925050819055505b80806107ba90610d8e565b9150506106ec565b5050565b8280546107d290610d2b565b90600052602060002090601f0160209004810192826107f4576000855561083b565b82601f1061080d57805160ff191683800117855561083b565b8280016001018555821561083b579182015b8281111561083a57825182559160200191906001019061081f565b5b509050610848919061084c565b5090565b5b8082111561086557600081600090555060010161084d565b5090565b600061087c61087784610bec565b610bc7565b90508281526020810184848401111561089857610897610e98565b5b6108a3848285610ce9565b509392505050565b6000813590506108ba81610ebb565b92915050565b6000813590506108cf81610ed2565b92915050565b6000813590506108e481610ee9565b92915050565b600082601f8301126108ff576108fe610e93565b5b813561090f848260208601610869565b91505092915050565b60008135905061092781610f00565b92915050565b60006020828403121561094357610942610ea2565b5b6000610951848285016108ab565b91505092915050565b6000602082840312156109705761096f610ea2565b5b600061097e848285016108c0565b91505092915050565b60008060008060008060c087890312156109a4576109a3610ea2565b5b60006109b289828a016108c0565b965050602087013567ffffffffffffffff8111156109d3576109d2610e9d565b5b6109df89828a016108ea565b955050604087013567ffffffffffffffff811115610a00576109ff610e9d565b5b610a0c89828a016108ea565b9450506060610a1d89828a01610918565b9350506080610a2e89828a01610918565b92505060a0610a3f89828a016108d5565b9150509295509295509295565b600060208284031215610a6257610a61610ea2565b5b6000610a7084828501610918565b91505092915050565b610a8281610ca1565b82525050565b610a9181610cb3565b82525050565b6000610aa282610c1d565b610aac8185610c28565b9350610abc818560208601610cf8565b610ac581610ea7565b840191505092915050565b6000610add600083610c28565b9150610ae882610eb8565b600082019050919050565b610afc81610cdf565b82525050565b600060c082019050610b176000830189610a79565b8181036020830152610b298188610a97565b90508181036040830152610b3d8187610a97565b9050610b4c6060830186610af3565b610b596080830185610af3565b610b6660a0830184610a88565b979650505050505050565b6000602082019050610b866000830184610a88565b92915050565b60006020820190508181036000830152610ba581610ad0565b9050919050565b6000602082019050610bc16000830184610af3565b92915050565b6000610bd1610be2565b9050610bdd8282610d5d565b919050565b6000604051905090565b600067ffffffffffffffff821115610c0757610c06610e64565b5b610c1082610ea7565b9050602081019050919050565b600081519050919050565b600082825260208201905092915050565b6000610c4482610cdf565b9150610c4f83610cdf565b9250827fffffffffffffffffffffffffffffffffffffffffffffffffffffffffffffffff03821115610c8457610c83610dd7565b5b828201905092915050565b6000610c9a82610cbf565b9050919050565b6000610cac82610cbf565b9050919050565b60008115159050919050565b600073ffffffffffffffffffffffffffffffffffffffff82169050919050565b6000819050919050565b82818337600083830152505050565b60005b83811015610d16578082015181840152602081019050610cfb565b83811115610d25576000848401525b50505050565b60006002820490506001821680610d4357607f821691505b60208210811415610d5757610d56610e06565b5b50919050565b610d6682610ea7565b810181811067ffffffffffffffff82111715610d8557610d84610e64565b5b80604052505050565b6000610d9982610cdf565b91507fffffffffffffffffffffffffffffffffffffffffffffffffffffffffffffffff821415610dcc57610dcb610dd7565b5b600182019050919050565b7f4e487b7100000000000000000000000000000000000000000000000000000000600052601160045260246000fd5b7f4e487b7100000000000000000000000000000000000000000000000000000000600052602260045260246000fd5b7f4e487b7100000000000000000000000000000000000000000000000000000000600052603260045260246000fd5b7f4e487b7100000000000000000000000000000000000000000000000000000000600052604160045260246000fd5b600080fd5b600080fd5b600080fd5b600080fd5b6000601f19601f8301169050919050565b50565b610ec481610c8f565b8114610ecf57600080fd5b50565b610edb81610ca1565b8114610ee657600080fd5b50565b610ef281610cb3565b8114610efd57600080fd5b50565b610f0981610cdf565b8114610f1457600080fd5b5056fea2646970667358221220b1bca8b494e178d0e414007a8f64091f062818db1624827b4a47ca2812860b5a64736f6c63430008070033",
					"opcodes": "PUSH1 0x80 PUSH1 0x40 MSTORE CALLVALUE DUP1 ISZERO PUSH2 0x10 JUMPI PUSH1 0x0 DUP1 REVERT JUMPDEST POP CALLER PUSH1 0x0 DUP1 PUSH2 0x100 EXP DUP2 SLOAD DUP2 PUSH20 0xFFFFFFFFFFFFFFFFFFFFFFFFFFFFFFFFFFFFFFFF MUL NOT AND SWAP1 DUP4 PUSH20 0xFFFFFFFFFFFFFFFFFFFFFFFFFFFFFFFFFFFFFFFF AND MUL OR SWAP1 SSTORE POP PUSH2 0xF4D DUP1 PUSH2 0x60 PUSH1 0x0 CODECOPY PUSH1 0x0 RETURN INVALID PUSH1 0x80 PUSH1 0x40 MSTORE PUSH1 0x4 CALLDATASIZE LT PUSH2 0x55 JUMPI PUSH1 0x0 CALLDATALOAD PUSH1 0xE0 SHR DUP1 PUSH4 0x31D575C5 EQ PUSH2 0x5A JUMPI DUP1 PUSH4 0x51CFF8D9 EQ PUSH2 0x83 JUMPI DUP1 PUSH4 0x722713F7 EQ PUSH2 0x9F JUMPI DUP1 PUSH4 0x7285FD3A EQ PUSH2 0xCA JUMPI DUP1 PUSH4 0x82FC925D EQ PUSH2 0x10C JUMPI DUP1 PUSH4 0xA25DB8CE EQ PUSH2 0x128 JUMPI JUMPDEST PUSH1 0x0 DUP1 REVERT JUMPDEST CALLVALUE DUP1 ISZERO PUSH2 0x66 JUMPI PUSH1 0x0 DUP1 REVERT JUMPDEST POP PUSH2 0x81 PUSH1 0x4 DUP1 CALLDATASIZE SUB DUP2 ADD SWAP1 PUSH2 0x7C SWAP2 SWAP1 PUSH2 0x987 JUMP JUMPDEST PUSH2 0x165 JUMP JUMPDEST STOP JUMPDEST PUSH2 0x9D PUSH1 0x4 DUP1 CALLDATASIZE SUB DUP2 ADD SWAP1 PUSH2 0x98 SWAP2 SWAP1 PUSH2 0x95A JUMP JUMPDEST PUSH2 0x294 JUMP JUMPDEST STOP JUMPDEST CALLVALUE DUP1 ISZERO PUSH2 0xAB JUMPI PUSH1 0x0 DUP1 REVERT JUMPDEST POP PUSH2 0xB4 PUSH2 0x409 JUMP JUMPDEST PUSH1 0x40 MLOAD PUSH2 0xC1 SWAP2 SWAP1 PUSH2 0xBAC JUMP JUMPDEST PUSH1 0x40 MLOAD DUP1 SWAP2 SUB SWAP1 RETURN JUMPDEST CALLVALUE DUP1 ISZERO PUSH2 0xD6 JUMPI PUSH1 0x0 DUP1 REVERT JUMPDEST POP PUSH2 0xF1 PUSH1 0x4 DUP1 CALLDATASIZE SUB DUP2 ADD SWAP1 PUSH2 0xEC SWAP2 SWAP1 PUSH2 0xA4C JUMP JUMPDEST PUSH2 0x411 JUMP JUMPDEST PUSH1 0x40 MLOAD PUSH2 0x103 SWAP7 SWAP6 SWAP5 SWAP4 SWAP3 SWAP2 SWAP1 PUSH2 0xB02 JUMP JUMPDEST PUSH1 0x40 MLOAD DUP1 SWAP2 SUB SWAP1 RETURN JUMPDEST PUSH2 0x126 PUSH1 0x4 DUP1 CALLDATASIZE SUB DUP2 ADD SWAP1 PUSH2 0x121 SWAP2 SWAP1 PUSH2 0x92D JUMP JUMPDEST PUSH2 0x59A JUMP JUMPDEST STOP JUMPDEST CALLVALUE DUP1 ISZERO PUSH2 0x134 JUMPI PUSH1 0x0 DUP1 REVERT JUMPDEST POP PUSH2 0x14F PUSH1 0x4 DUP1 CALLDATASIZE SUB DUP2 ADD SWAP1 PUSH2 0x14A SWAP2 SWAP1 PUSH2 0x92D JUMP JUMPDEST PUSH2 0x5A6 JUMP JUMPDEST PUSH1 0x40 MLOAD PUSH2 0x15C SWAP2 SWAP1 PUSH2 0xB71 JUMP JUMPDEST PUSH1 0x40 MLOAD DUP1 SWAP2 SUB SWAP1 RETURN JUMPDEST PUSH1 0x1 PUSH1 0x40 MLOAD DUP1 PUSH1 0xC0 ADD PUSH1 0x40 MSTORE DUP1 DUP9 PUSH20 0xFFFFFFFFFFFFFFFFFFFFFFFFFFFFFFFFFFFFFFFF AND DUP2 MSTORE PUSH1 0x20 ADD DUP8 DUP2 MSTORE PUSH1 0x20 ADD DUP7 DUP2 MSTORE PUSH1 0x20 ADD DUP6 DUP2 MSTORE PUSH1 0x20 ADD DUP5 DUP2 MSTORE PUSH1 0x20 ADD DUP4 ISZERO ISZERO DUP2 MSTORE POP SWAP1 DUP1 PUSH1 0x1 DUP2 SLOAD ADD DUP1 DUP3 SSTORE DUP1 SWAP2 POP POP PUSH1 0x1 SWAP1 SUB SWAP1 PUSH1 0x0 MSTORE PUSH1 0x20 PUSH1 0x0 KECCAK256 SWAP1 PUSH1 0x6 MUL ADD PUSH1 0x0 SWAP1 SWAP2 SWAP1 SWAP2 SWAP1 SWAP2 POP PUSH1 0x0 DUP3 ADD MLOAD DUP2 PUSH1 0x0 ADD PUSH1 0x0 PUSH2 0x100 EXP DUP2 SLOAD DUP2 PUSH20 0xFFFFFFFFFFFFFFFFFFFFFFFFFFFFFFFFFFFFFFFF MUL NOT AND SWAP1 DUP4 PUSH20 0xFFFFFFFFFFFFFFFFFFFFFFFFFFFFFFFFFFFFFFFF AND MUL OR SWAP1 SSTORE POP PUSH1 0x20 DUP3 ADD MLOAD DUP2 PUSH1 0x1 ADD SWAP1 DUP1 MLOAD SWAP1 PUSH1 0x20 ADD SWAP1 PUSH2 0x238 SWAP3 SWAP2 SWAP1 PUSH2 0x7C6 JUMP JUMPDEST POP PUSH1 0x40 DUP3 ADD MLOAD DUP2 PUSH1 0x2 ADD SWAP1 DUP1 MLOAD SWAP1 PUSH1 0x20 ADD SWAP1 PUSH2 0x255 SWAP3 SWAP2 SWAP1 PUSH2 0x7C6 JUMP JUMPDEST POP PUSH1 0x60 DUP3 ADD MLOAD DUP2 PUSH1 0x3 ADD SSTORE PUSH1 0x80 DUP3 ADD MLOAD DUP2 PUSH1 0x4 ADD SSTORE PUSH1 0xA0 DUP3 ADD MLOAD DUP2 PUSH1 0x5 ADD PUSH1 0x0 PUSH2 0x100 EXP DUP2 SLOAD DUP2 PUSH1 0xFF MUL NOT AND SWAP1 DUP4 ISZERO ISZERO MUL OR SWAP1 SSTORE POP POP POP POP POP POP POP POP POP JUMP JUMPDEST PUSH1 0x0 PUSH2 0x29F DUP3 PUSH2 0x633 JUMP JUMPDEST SWAP1 POP PUSH1 0x1 DUP2 DUP2 SLOAD DUP2 LT PUSH2 0x2B5 JUMPI PUSH2 0x2B4 PUSH2 0xE35 JUMP JUMPDEST JUMPDEST SWAP1 PUSH1 0x0 MSTORE PUSH1 0x20 PUSH1 0x0 KECCAK256 SWAP1 PUSH1 0x6 MUL ADD PUSH1 0x0 ADD PUSH1 0x0 SWAP1 SLOAD SWAP1 PUSH2 0x100 EXP SWAP1 DIV PUSH20 0xFFFFFFFFFFFFFFFFFFFFFFFFFFFFFFFFFFFFFFFF AND PUSH20 0xFFFFFFFFFFFFFFFFFFFFFFFFFFFFFFFFFFFFFFFF AND CALLER PUSH20 0xFFFFFFFFFFFFFFFFFFFFFFFFFFFFFFFFFFFFFFFF AND EQ PUSH2 0x354 JUMPI PUSH1 0x40 MLOAD PUSH32 0x8C379A000000000000000000000000000000000000000000000000000000000 DUP2 MSTORE PUSH1 0x4 ADD PUSH2 0x34B SWAP1 PUSH2 0xB8C JUMP JUMPDEST PUSH1 0x40 MLOAD DUP1 SWAP2 SUB SWAP1 REVERT JUMPDEST PUSH1 0x1 DUP2 DUP2 SLOAD DUP2 LT PUSH2 0x368 JUMPI PUSH2 0x367 PUSH2 0xE35 JUMP JUMPDEST JUMPDEST SWAP1 PUSH1 0x0 MSTORE PUSH1 0x20 PUSH1 0x0 KECCAK256 SWAP1 PUSH1 0x6 MUL ADD PUSH1 0x0 ADD PUSH1 0x0 SWAP1 SLOAD SWAP1 PUSH2 0x100 EXP SWAP1 DIV PUSH20 0xFFFFFFFFFFFFFFFFFFFFFFFFFFFFFFFFFFFFFFFF AND PUSH20 0xFFFFFFFFFFFFFFFFFFFFFFFFFFFFFFFFFFFFFFFF AND PUSH2 0x8FC PUSH1 0x1 DUP4 DUP2 SLOAD DUP2 LT PUSH2 0x3C7 JUMPI PUSH2 0x3C6 PUSH2 0xE35 JUMP JUMPDEST JUMPDEST SWAP1 PUSH1 0x0 MSTORE PUSH1 0x20 PUSH1 0x0 KECCAK256 SWAP1 PUSH1 0x6 MUL ADD PUSH1 0x4 ADD SLOAD SWAP1 DUP2 ISZERO MUL SWAP1 PUSH1 0x40 MLOAD PUSH1 0x0 PUSH1 0x40 MLOAD DUP1 DUP4 SUB DUP2 DUP6 DUP9 DUP9 CALL SWAP4 POP POP POP POP ISZERO DUP1 ISZERO PUSH2 0x404 JUMPI RETURNDATASIZE PUSH1 0x0 DUP1 RETURNDATACOPY RETURNDATASIZE PUSH1 0x0 REVERT JUMPDEST POP POP POP JUMP JUMPDEST PUSH1 0x0 SELFBALANCE SWAP1 POP SWAP1 JUMP JUMPDEST PUSH1 0x1 DUP2 DUP2 SLOAD DUP2 LT PUSH2 0x421 JUMPI PUSH1 0x0 DUP1 REVERT JUMPDEST SWAP1 PUSH1 0x0 MSTORE PUSH1 0x20 PUSH1 0x0 KECCAK256 SWAP1 PUSH1 0x6 MUL ADD PUSH1 0x0 SWAP2 POP SWAP1 POP DUP1 PUSH1 0x0 ADD PUSH1 0x0 SWAP1 SLOAD SWAP1 PUSH2 0x100 EXP SWAP1 DIV PUSH20 0xFFFFFFFFFFFFFFFFFFFFFFFFFFFFFFFFFFFFFFFF AND SWAP1 DUP1 PUSH1 0x1 ADD DUP1 SLOAD PUSH2 0x46A SWAP1 PUSH2 0xD2B JUMP JUMPDEST DUP1 PUSH1 0x1F ADD PUSH1 0x20 DUP1 SWAP2 DIV MUL PUSH1 0x20 ADD PUSH1 0x40 MLOAD SWAP1 DUP2 ADD PUSH1 0x40 MSTORE DUP1 SWAP3 SWAP2 SWAP1 DUP2 DUP2 MSTORE PUSH1 0x20 ADD DUP3 DUP1 SLOAD PUSH2 0x496 SWAP1 PUSH2 0xD2B JUMP JUMPDEST DUP1 ISZERO PUSH2 0x4E3 JUMPI DUP1 PUSH1 0x1F LT PUSH2 0x4B8 JUMPI PUSH2 0x100 DUP1 DUP4 SLOAD DIV MUL DUP4 MSTORE SWAP2 PUSH1 0x20 ADD SWAP2 PUSH2 0x4E3 JUMP JUMPDEST DUP3 ADD SWAP2 SWAP1 PUSH1 0x0 MSTORE PUSH1 0x20 PUSH1 0x0 KECCAK256 SWAP1 JUMPDEST DUP2 SLOAD DUP2 MSTORE SWAP1 PUSH1 0x1 ADD SWAP1 PUSH1 0x20 ADD DUP1 DUP4 GT PUSH2 0x4C6 JUMPI DUP3 SWAP1 SUB PUSH1 0x1F AND DUP3 ADD SWAP2 JUMPDEST POP POP POP POP POP SWAP1 DUP1 PUSH1 0x2 ADD DUP1 SLOAD PUSH2 0x4F8 SWAP1 PUSH2 0xD2B JUMP JUMPDEST DUP1 PUSH1 0x1F ADD PUSH1 0x20 DUP1 SWAP2 DIV MUL PUSH1 0x20 ADD PUSH1 0x40 MLOAD SWAP1 DUP2 ADD PUSH1 0x40 MSTORE DUP1 SWAP3 SWAP2 SWAP1 DUP2 DUP2 MSTORE PUSH1 0x20 ADD DUP3 DUP1 SLOAD PUSH2 0x524 SWAP1 PUSH2 0xD2B JUMP JUMPDEST DUP1 ISZERO PUSH2 0x571 JUMPI DUP1 PUSH1 0x1F LT PUSH2 0x546 JUMPI PUSH2 0x100 DUP1 DUP4 SLOAD DIV MUL DUP4 MSTORE SWAP2 PUSH1 0x20 ADD SWAP2 PUSH2 0x571 JUMP JUMPDEST DUP3 ADD SWAP2 SWAP1 PUSH1 0x0 MSTORE PUSH1 0x20 PUSH1 0x0 KECCAK256 SWAP1 JUMPDEST DUP2 SLOAD DUP2 MSTORE SWAP1 PUSH1 0x1 ADD SWAP1 PUSH1 0x20 ADD DUP1 DUP4 GT PUSH2 0x554 JUMPI DUP3 SWAP1 SUB PUSH1 0x1F AND DUP3 ADD SWAP2 JUMPDEST POP POP POP POP POP SWAP1 DUP1 PUSH1 0x3 ADD SLOAD SWAP1 DUP1 PUSH1 0x4 ADD SLOAD SWAP1 DUP1 PUSH1 0x5 ADD PUSH1 0x0 SWAP1 SLOAD SWAP1 PUSH2 0x100 EXP SWAP1 DIV PUSH1 0xFF AND SWAP1 POP DUP7 JUMP JUMPDEST PUSH2 0x5A3 DUP2 PUSH2 0x6E9 JUMP JUMPDEST POP JUMP JUMPDEST PUSH1 0x0 DUP1 PUSH2 0x5B2 DUP4 PUSH2 0x633 JUMP JUMPDEST SWAP1 POP PUSH1 0x1 DUP2 DUP2 SLOAD DUP2 LT PUSH2 0x5C8 JUMPI PUSH2 0x5C7 PUSH2 0xE35 JUMP JUMPDEST JUMPDEST SWAP1 PUSH1 0x0 MSTORE PUSH1 0x20 PUSH1 0x0 KECCAK256 SWAP1 PUSH1 0x6 MUL ADD PUSH1 0x3 ADD SLOAD TIMESTAMP GT ISZERO PUSH2 0x628 JUMPI PUSH1 0x1 DUP1 DUP3 DUP2 SLOAD DUP2 LT PUSH2 0x5F6 JUMPI PUSH2 0x5F5 PUSH2 0xE35 JUMP JUMPDEST JUMPDEST SWAP1 PUSH1 0x0 MSTORE PUSH1 0x20 PUSH1 0x0 KECCAK256 SWAP1 PUSH1 0x6 MUL ADD PUSH1 0x5 ADD PUSH1 0x0 PUSH2 0x100 EXP DUP2 SLOAD DUP2 PUSH1 0xFF MUL NOT AND SWAP1 DUP4 ISZERO ISZERO MUL OR SWAP1 SSTORE POP PUSH1 0x1 SWAP2 POP POP PUSH2 0x62E JUMP JUMPDEST PUSH1 0x0 SWAP2 POP POP JUMPDEST SWAP2 SWAP1 POP JUMP JUMPDEST PUSH1 0x0 DUP1 PUSH1 0x0 SWAP1 POP JUMPDEST PUSH1 0x1 DUP1 SLOAD SWAP1 POP DUP2 LT ISZERO PUSH2 0x6DD JUMPI DUP3 PUSH20 0xFFFFFFFFFFFFFFFFFFFFFFFFFFFFFFFFFFFFFFFF AND PUSH1 0x1 DUP3 DUP2 SLOAD DUP2 LT PUSH2 0x673 JUMPI PUSH2 0x672 PUSH2 0xE35 JUMP JUMPDEST JUMPDEST SWAP1 PUSH1 0x0 MSTORE PUSH1 0x20 PUSH1 0x0 KECCAK256 SWAP1 PUSH1 0x6 MUL ADD PUSH1 0x0 ADD PUSH1 0x0 SWAP1 SLOAD SWAP1 PUSH2 0x100 EXP SWAP1 DIV PUSH20 0xFFFFFFFFFFFFFFFFFFFFFFFFFFFFFFFFFFFFFFFF AND PUSH20 0xFFFFFFFFFFFFFFFFFFFFFFFFFFFFFFFFFFFFFFFF AND EQ ISZERO PUSH2 0x6CA JUMPI DUP1 SWAP2 POP POP PUSH2 0x6E4 JUMP JUMPDEST DUP1 DUP1 PUSH2 0x6D5 SWAP1 PUSH2 0xD8E JUMP JUMPDEST SWAP2 POP POP PUSH2 0x63B JUMP JUMPDEST POP PUSH2 0x3E7 SWAP1 POP JUMPDEST SWAP2 SWAP1 POP JUMP JUMPDEST PUSH1 0x0 JUMPDEST PUSH1 0x1 DUP1 SLOAD SWAP1 POP DUP2 LT ISZERO PUSH2 0x7C2 JUMPI DUP2 PUSH20 0xFFFFFFFFFFFFFFFFFFFFFFFFFFFFFFFFFFFFFFFF AND PUSH1 0x1 DUP3 DUP2 SLOAD DUP2 LT PUSH2 0x724 JUMPI PUSH2 0x723 PUSH2 0xE35 JUMP JUMPDEST JUMPDEST SWAP1 PUSH1 0x0 MSTORE PUSH1 0x20 PUSH1 0x0 KECCAK256 SWAP1 PUSH1 0x6 MUL ADD PUSH1 0x0 ADD PUSH1 0x0 SWAP1 SLOAD SWAP1 PUSH2 0x100 EXP SWAP1 DIV PUSH20 0xFFFFFFFFFFFFFFFFFFFFFFFFFFFFFFFFFFFFFFFF AND PUSH20 0xFFFFFFFFFFFFFFFFFFFFFFFFFFFFFFFFFFFFFFFF AND EQ ISZERO PUSH2 0x7AF JUMPI CALLVALUE PUSH1 0x1 DUP3 DUP2 SLOAD DUP2 LT PUSH2 0x787 JUMPI PUSH2 0x786 PUSH2 0xE35 JUMP JUMPDEST JUMPDEST SWAP1 PUSH1 0x0 MSTORE PUSH1 0x20 PUSH1 0x0 KECCAK256 SWAP1 PUSH1 0x6 MUL ADD PUSH1 0x4 ADD PUSH1 0x0 DUP3 DUP3 SLOAD PUSH2 0x7A7 SWAP2 SWAP1 PUSH2 0xC39 JUMP JUMPDEST SWAP3 POP POP DUP2 SWAP1 SSTORE POP JUMPDEST DUP1 DUP1 PUSH2 0x7BA SWAP1 PUSH2 0xD8E JUMP JUMPDEST SWAP2 POP POP PUSH2 0x6EC JUMP JUMPDEST POP POP JUMP JUMPDEST DUP3 DUP1 SLOAD PUSH2 0x7D2 SWAP1 PUSH2 0xD2B JUMP JUMPDEST SWAP1 PUSH1 0x0 MSTORE PUSH1 0x20 PUSH1 0x0 KECCAK256 SWAP1 PUSH1 0x1F ADD PUSH1 0x20 SWAP1 DIV DUP2 ADD SWAP3 DUP3 PUSH2 0x7F4 JUMPI PUSH1 0x0 DUP6 SSTORE PUSH2 0x83B JUMP JUMPDEST DUP3 PUSH1 0x1F LT PUSH2 0x80D JUMPI DUP1 MLOAD PUSH1 0xFF NOT AND DUP4 DUP1 ADD OR DUP6 SSTORE PUSH2 0x83B JUMP JUMPDEST DUP3 DUP1 ADD PUSH1 0x1 ADD DUP6 SSTORE DUP3 ISZERO PUSH2 0x83B JUMPI SWAP2 DUP3 ADD JUMPDEST DUP3 DUP2 GT ISZERO PUSH2 0x83A JUMPI DUP3 MLOAD DUP3 SSTORE SWAP2 PUSH1 0x20 ADD SWAP2 SWAP1 PUSH1 0x1 ADD SWAP1 PUSH2 0x81F JUMP JUMPDEST JUMPDEST POP SWAP1 POP PUSH2 0x848 SWAP2 SWAP1 PUSH2 0x84C JUMP JUMPDEST POP SWAP1 JUMP JUMPDEST JUMPDEST DUP1 DUP3 GT ISZERO PUSH2 0x865 JUMPI PUSH1 0x0 DUP2 PUSH1 0x0 SWAP1 SSTORE POP PUSH1 0x1 ADD PUSH2 0x84D JUMP JUMPDEST POP SWAP1 JUMP JUMPDEST PUSH1 0x0 PUSH2 0x87C PUSH2 0x877 DUP5 PUSH2 0xBEC JUMP JUMPDEST PUSH2 0xBC7 JUMP JUMPDEST SWAP1 POP DUP3 DUP2 MSTORE PUSH1 0x20 DUP2 ADD DUP5 DUP5 DUP5 ADD GT ISZERO PUSH2 0x898 JUMPI PUSH2 0x897 PUSH2 0xE98 JUMP JUMPDEST JUMPDEST PUSH2 0x8A3 DUP5 DUP3 DUP6 PUSH2 0xCE9 JUMP JUMPDEST POP SWAP4 SWAP3 POP POP POP JUMP JUMPDEST PUSH1 0x0 DUP2 CALLDATALOAD SWAP1 POP PUSH2 0x8BA DUP2 PUSH2 0xEBB JUMP JUMPDEST SWAP3 SWAP2 POP POP JUMP JUMPDEST PUSH1 0x0 DUP2 CALLDATALOAD SWAP1 POP PUSH2 0x8CF DUP2 PUSH2 0xED2 JUMP JUMPDEST SWAP3 SWAP2 POP POP JUMP JUMPDEST PUSH1 0x0 DUP2 CALLDATALOAD SWAP1 POP PUSH2 0x8E4 DUP2 PUSH2 0xEE9 JUMP JUMPDEST SWAP3 SWAP2 POP POP JUMP JUMPDEST PUSH1 0x0 DUP3 PUSH1 0x1F DUP4 ADD SLT PUSH2 0x8FF JUMPI PUSH2 0x8FE PUSH2 0xE93 JUMP JUMPDEST JUMPDEST DUP2 CALLDATALOAD PUSH2 0x90F DUP5 DUP3 PUSH1 0x20 DUP7 ADD PUSH2 0x869 JUMP JUMPDEST SWAP2 POP POP SWAP3 SWAP2 POP POP JUMP JUMPDEST PUSH1 0x0 DUP2 CALLDATALOAD SWAP1 POP PUSH2 0x927 DUP2 PUSH2 0xF00 JUMP JUMPDEST SWAP3 SWAP2 POP POP JUMP JUMPDEST PUSH1 0x0 PUSH1 0x20 DUP3 DUP5 SUB SLT ISZERO PUSH2 0x943 JUMPI PUSH2 0x942 PUSH2 0xEA2 JUMP JUMPDEST JUMPDEST PUSH1 0x0 PUSH2 0x951 DUP5 DUP3 DUP6 ADD PUSH2 0x8AB JUMP JUMPDEST SWAP2 POP POP SWAP3 SWAP2 POP POP JUMP JUMPDEST PUSH1 0x0 PUSH1 0x20 DUP3 DUP5 SUB SLT ISZERO PUSH2 0x970 JUMPI PUSH2 0x96F PUSH2 0xEA2 JUMP JUMPDEST JUMPDEST PUSH1 0x0 PUSH2 0x97E DUP5 DUP3 DUP6 ADD PUSH2 0x8C0 JUMP JUMPDEST SWAP2 POP POP SWAP3 SWAP2 POP POP JUMP JUMPDEST PUSH1 0x0 DUP1 PUSH1 0x0 DUP1 PUSH1 0x0 DUP1 PUSH1 0xC0 DUP8 DUP10 SUB SLT ISZERO PUSH2 0x9A4 JUMPI PUSH2 0x9A3 PUSH2 0xEA2 JUMP JUMPDEST JUMPDEST PUSH1 0x0 PUSH2 0x9B2 DUP10 DUP3 DUP11 ADD PUSH2 0x8C0 JUMP JUMPDEST SWAP7 POP POP PUSH1 0x20 DUP8 ADD CALLDATALOAD PUSH8 0xFFFFFFFFFFFFFFFF DUP2 GT ISZERO PUSH2 0x9D3 JUMPI PUSH2 0x9D2 PUSH2 0xE9D JUMP JUMPDEST JUMPDEST PUSH2 0x9DF DUP10 DUP3 DUP11 ADD PUSH2 0x8EA JUMP JUMPDEST SWAP6 POP POP PUSH1 0x40 DUP8 ADD CALLDATALOAD PUSH8 0xFFFFFFFFFFFFFFFF DUP2 GT ISZERO PUSH2 0xA00 JUMPI PUSH2 0x9FF PUSH2 0xE9D JUMP JUMPDEST JUMPDEST PUSH2 0xA0C DUP10 DUP3 DUP11 ADD PUSH2 0x8EA JUMP JUMPDEST SWAP5 POP POP PUSH1 0x60 PUSH2 0xA1D DUP10 DUP3 DUP11 ADD PUSH2 0x918 JUMP JUMPDEST SWAP4 POP POP PUSH1 0x80 PUSH2 0xA2E DUP10 DUP3 DUP11 ADD PUSH2 0x918 JUMP JUMPDEST SWAP3 POP POP PUSH1 0xA0 PUSH2 0xA3F DUP10 DUP3 DUP11 ADD PUSH2 0x8D5 JUMP JUMPDEST SWAP2 POP POP SWAP3 SWAP6 POP SWAP3 SWAP6 POP SWAP3 SWAP6 JUMP JUMPDEST PUSH1 0x0 PUSH1 0x20 DUP3 DUP5 SUB SLT ISZERO PUSH2 0xA62 JUMPI PUSH2 0xA61 PUSH2 0xEA2 JUMP JUMPDEST JUMPDEST PUSH1 0x0 PUSH2 0xA70 DUP5 DUP3 DUP6 ADD PUSH2 0x918 JUMP JUMPDEST SWAP2 POP POP SWAP3 SWAP2 POP POP JUMP JUMPDEST PUSH2 0xA82 DUP2 PUSH2 0xCA1 JUMP JUMPDEST DUP3 MSTORE POP POP JUMP JUMPDEST PUSH2 0xA91 DUP2 PUSH2 0xCB3 JUMP JUMPDEST DUP3 MSTORE POP POP JUMP JUMPDEST PUSH1 0x0 PUSH2 0xAA2 DUP3 PUSH2 0xC1D JUMP JUMPDEST PUSH2 0xAAC DUP2 DUP6 PUSH2 0xC28 JUMP JUMPDEST SWAP4 POP PUSH2 0xABC DUP2 DUP6 PUSH1 0x20 DUP7 ADD PUSH2 0xCF8 JUMP JUMPDEST PUSH2 0xAC5 DUP2 PUSH2 0xEA7 JUMP JUMPDEST DUP5 ADD SWAP2 POP POP SWAP3 SWAP2 POP POP JUMP JUMPDEST PUSH1 0x0 PUSH2 0xADD PUSH1 0x0 DUP4 PUSH2 0xC28 JUMP JUMPDEST SWAP2 POP PUSH2 0xAE8 DUP3 PUSH2 0xEB8 JUMP JUMPDEST PUSH1 0x0 DUP3 ADD SWAP1 POP SWAP2 SWAP1 POP JUMP JUMPDEST PUSH2 0xAFC DUP2 PUSH2 0xCDF JUMP JUMPDEST DUP3 MSTORE POP POP JUMP JUMPDEST PUSH1 0x0 PUSH1 0xC0 DUP3 ADD SWAP1 POP PUSH2 0xB17 PUSH1 0x0 DUP4 ADD DUP10 PUSH2 0xA79 JUMP JUMPDEST DUP2 DUP2 SUB PUSH1 0x20 DUP4 ADD MSTORE PUSH2 0xB29 DUP2 DUP9 PUSH2 0xA97 JUMP JUMPDEST SWAP1 POP DUP2 DUP2 SUB PUSH1 0x40 DUP4 ADD MSTORE PUSH2 0xB3D DUP2 DUP8 PUSH2 0xA97 JUMP JUMPDEST SWAP1 POP PUSH2 0xB4C PUSH1 0x60 DUP4 ADD DUP7 PUSH2 0xAF3 JUMP JUMPDEST PUSH2 0xB59 PUSH1 0x80 DUP4 ADD DUP6 PUSH2 0xAF3 JUMP JUMPDEST PUSH2 0xB66 PUSH1 0xA0 DUP4 ADD DUP5 PUSH2 0xA88 JUMP JUMPDEST SWAP8 SWAP7 POP POP POP POP POP POP POP JUMP JUMPDEST PUSH1 0x0 PUSH1 0x20 DUP3 ADD SWAP1 POP PUSH2 0xB86 PUSH1 0x0 DUP4 ADD DUP5 PUSH2 0xA88 JUMP JUMPDEST SWAP3 SWAP2 POP POP JUMP JUMPDEST PUSH1 0x0 PUSH1 0x20 DUP3 ADD SWAP1 POP DUP2 DUP2 SUB PUSH1 0x0 DUP4 ADD MSTORE PUSH2 0xBA5 DUP2 PUSH2 0xAD0 JUMP JUMPDEST SWAP1 POP SWAP2 SWAP1 POP JUMP JUMPDEST PUSH1 0x0 PUSH1 0x20 DUP3 ADD SWAP1 POP PUSH2 0xBC1 PUSH1 0x0 DUP4 ADD DUP5 PUSH2 0xAF3 JUMP JUMPDEST SWAP3 SWAP2 POP POP JUMP JUMPDEST PUSH1 0x0 PUSH2 0xBD1 PUSH2 0xBE2 JUMP JUMPDEST SWAP1 POP PUSH2 0xBDD DUP3 DUP3 PUSH2 0xD5D JUMP JUMPDEST SWAP2 SWAP1 POP JUMP JUMPDEST PUSH1 0x0 PUSH1 0x40 MLOAD SWAP1 POP SWAP1 JUMP JUMPDEST PUSH1 0x0 PUSH8 0xFFFFFFFFFFFFFFFF DUP3 GT ISZERO PUSH2 0xC07 JUMPI PUSH2 0xC06 PUSH2 0xE64 JUMP JUMPDEST JUMPDEST PUSH2 0xC10 DUP3 PUSH2 0xEA7 JUMP JUMPDEST SWAP1 POP PUSH1 0x20 DUP2 ADD SWAP1 POP SWAP2 SWAP1 POP JUMP JUMPDEST PUSH1 0x0 DUP2 MLOAD SWAP1 POP SWAP2 SWAP1 POP JUMP JUMPDEST PUSH1 0x0 DUP3 DUP3 MSTORE PUSH1 0x20 DUP3 ADD SWAP1 POP SWAP3 SWAP2 POP POP JUMP JUMPDEST PUSH1 0x0 PUSH2 0xC44 DUP3 PUSH2 0xCDF JUMP JUMPDEST SWAP2 POP PUSH2 0xC4F DUP4 PUSH2 0xCDF JUMP JUMPDEST SWAP3 POP DUP3 PUSH32 0xFFFFFFFFFFFFFFFFFFFFFFFFFFFFFFFFFFFFFFFFFFFFFFFFFFFFFFFFFFFFFFFF SUB DUP3 GT ISZERO PUSH2 0xC84 JUMPI PUSH2 0xC83 PUSH2 0xDD7 JUMP JUMPDEST JUMPDEST DUP3 DUP3 ADD SWAP1 POP SWAP3 SWAP2 POP POP JUMP JUMPDEST PUSH1 0x0 PUSH2 0xC9A DUP3 PUSH2 0xCBF JUMP JUMPDEST SWAP1 POP SWAP2 SWAP1 POP JUMP JUMPDEST PUSH1 0x0 PUSH2 0xCAC DUP3 PUSH2 0xCBF JUMP JUMPDEST SWAP1 POP SWAP2 SWAP1 POP JUMP JUMPDEST PUSH1 0x0 DUP2 ISZERO ISZERO SWAP1 POP SWAP2 SWAP1 POP JUMP JUMPDEST PUSH1 0x0 PUSH20 0xFFFFFFFFFFFFFFFFFFFFFFFFFFFFFFFFFFFFFFFF DUP3 AND SWAP1 POP SWAP2 SWAP1 POP JUMP JUMPDEST PUSH1 0x0 DUP2 SWAP1 POP SWAP2 SWAP1 POP JUMP JUMPDEST DUP3 DUP2 DUP4 CALLDATACOPY PUSH1 0x0 DUP4 DUP4 ADD MSTORE POP POP POP JUMP JUMPDEST PUSH1 0x0 JUMPDEST DUP4 DUP2 LT ISZERO PUSH2 0xD16 JUMPI DUP1 DUP3 ADD MLOAD DUP2 DUP5 ADD MSTORE PUSH1 0x20 DUP2 ADD SWAP1 POP PUSH2 0xCFB JUMP JUMPDEST DUP4 DUP2 GT ISZERO PUSH2 0xD25 JUMPI PUSH1 0x0 DUP5 DUP5 ADD MSTORE JUMPDEST POP POP POP POP JUMP JUMPDEST PUSH1 0x0 PUSH1 0x2 DUP3 DIV SWAP1 POP PUSH1 0x1 DUP3 AND DUP1 PUSH2 0xD43 JUMPI PUSH1 0x7F DUP3 AND SWAP2 POP JUMPDEST PUSH1 0x20 DUP3 LT DUP2 EQ ISZERO PUSH2 0xD57 JUMPI PUSH2 0xD56 PUSH2 0xE06 JUMP JUMPDEST JUMPDEST POP SWAP2 SWAP1 POP JUMP JUMPDEST PUSH2 0xD66 DUP3 PUSH2 0xEA7 JUMP JUMPDEST DUP2 ADD DUP2 DUP2 LT PUSH8 0xFFFFFFFFFFFFFFFF DUP3 GT OR ISZERO PUSH2 0xD85 JUMPI PUSH2 0xD84 PUSH2 0xE64 JUMP JUMPDEST JUMPDEST DUP1 PUSH1 0x40 MSTORE POP POP POP JUMP JUMPDEST PUSH1 0x0 PUSH2 0xD99 DUP3 PUSH2 0xCDF JUMP JUMPDEST SWAP2 POP PUSH32 0xFFFFFFFFFFFFFFFFFFFFFFFFFFFFFFFFFFFFFFFFFFFFFFFFFFFFFFFFFFFFFFFF DUP3 EQ ISZERO PUSH2 0xDCC JUMPI PUSH2 0xDCB PUSH2 0xDD7 JUMP JUMPDEST JUMPDEST PUSH1 0x1 DUP3 ADD SWAP1 POP SWAP2 SWAP1 POP JUMP JUMPDEST PUSH32 0x4E487B7100000000000000000000000000000000000000000000000000000000 PUSH1 0x0 MSTORE PUSH1 0x11 PUSH1 0x4 MSTORE PUSH1 0x24 PUSH1 0x0 REVERT JUMPDEST PUSH32 0x4E487B7100000000000000000000000000000000000000000000000000000000 PUSH1 0x0 MSTORE PUSH1 0x22 PUSH1 0x4 MSTORE PUSH1 0x24 PUSH1 0x0 REVERT JUMPDEST PUSH32 0x4E487B7100000000000000000000000000000000000000000000000000000000 PUSH1 0x0 MSTORE PUSH1 0x32 PUSH1 0x4 MSTORE PUSH1 0x24 PUSH1 0x0 REVERT JUMPDEST PUSH32 0x4E487B7100000000000000000000000000000000000000000000000000000000 PUSH1 0x0 MSTORE PUSH1 0x41 PUSH1 0x4 MSTORE PUSH1 0x24 PUSH1 0x0 REVERT JUMPDEST PUSH1 0x0 DUP1 REVERT JUMPDEST PUSH1 0x0 DUP1 REVERT JUMPDEST PUSH1 0x0 DUP1 REVERT JUMPDEST PUSH1 0x0 DUP1 REVERT JUMPDEST PUSH1 0x0 PUSH1 0x1F NOT PUSH1 0x1F DUP4 ADD AND SWAP1 POP SWAP2 SWAP1 POP JUMP JUMPDEST POP JUMP JUMPDEST PUSH2 0xEC4 DUP2 PUSH2 0xC8F JUMP JUMPDEST DUP2 EQ PUSH2 0xECF JUMPI PUSH1 0x0 DUP1 REVERT JUMPDEST POP JUMP JUMPDEST PUSH2 0xEDB DUP2 PUSH2 0xCA1 JUMP JUMPDEST DUP2 EQ PUSH2 0xEE6 JUMPI PUSH1 0x0 DUP1 REVERT JUMPDEST POP JUMP JUMPDEST PUSH2 0xEF2 DUP2 PUSH2 0xCB3 JUMP JUMPDEST DUP2 EQ PUSH2 0xEFD JUMPI PUSH1 0x0 DUP1 REVERT JUMPDEST POP JUMP JUMPDEST PUSH2 0xF09 DUP2 PUSH2 0xCDF JUMP JUMPDEST DUP2 EQ PUSH2 0xF14 JUMPI PUSH1 0x0 DUP1 REVERT JUMPDEST POP JUMP INVALID LOG2 PUSH5 0x6970667358 0x22 SLT KECCAK256 0xB1 0xBC 0xA8 0xB4 SWAP5 0xE1 PUSH25 0xD0E414007A8F64091F062818DB1624827B4A47CA2812860B5A PUSH5 0x736F6C6343 STOP ADDMOD SMOD STOP CALLER "
				},
				"gasEstimates": {
					"creation": {
						"codeDepositCost": "783400",
						"executionCost": "25084",
						"totalCost": "808484"
					},
					"external": {
						"addKid(address,string,string,uint256,uint256,bool)": "infinite",
						"availableToWithdraw(address)": "infinite",
						"balanceOf()": "361",
						"diposit(address)": "infinite",
						"kids(uint256)": "infinite",
						"withdraw(address)": "infinite"
					},
					"internal": {
						"addToKidsBalance(address)": "infinite",
						"getIndex(address)": "infinite"
					}
				},
				"methodIdentifiers": {
					"addKid(address,string,string,uint256,uint256,bool)": "31d575c5",
					"availableToWithdraw(address)": "a25db8ce",
					"balanceOf()": "722713f7",
					"diposit(address)": "82fc925d",
					"kids(uint256)": "7285fd3a",
					"withdraw(address)": "51cff8d9"
				}
			},
			"storageLayout": {
				"storage": [
					{
						"astId": 3,
						"contract": "contracts/CryptoKids..sol:CryptoKids",
						"label": "owner",
						"offset": 0,
						"slot": "0",
						"type": "t_address"
					},
					{
						"astId": 29,
						"contract": "contracts/CryptoKids..sol:CryptoKids",
						"label": "kids",
						"offset": 0,
						"slot": "1",
						"type": "t_array(t_struct(Kid)25_storage)dyn_storage"
					}
				],
				"types": {
					"t_address": {
						"encoding": "inplace",
						"label": "address",
						"numberOfBytes": "20"
					},
					"t_address_payable": {
						"encoding": "inplace",
						"label": "address payable",
						"numberOfBytes": "20"
					},
					"t_array(t_struct(Kid)25_storage)dyn_storage": {
						"base": "t_struct(Kid)25_storage",
						"encoding": "dynamic_array",
						"label": "struct CryptoKids.Kid[]",
						"numberOfBytes": "32"
					},
					"t_bool": {
						"encoding": "inplace",
						"label": "bool",
						"numberOfBytes": "1"
					},
					"t_string_storage": {
						"encoding": "bytes",
						"label": "string",
						"numberOfBytes": "32"
					},
					"t_struct(Kid)25_storage": {
						"encoding": "inplace",
						"label": "struct CryptoKids.Kid",
						"members": [
							{
								"astId": 14,
								"contract": "contracts/CryptoKids..sol:CryptoKids",
								"label": "walletAddress",
								"offset": 0,
								"slot": "0",
								"type": "t_address_payable"
							},
							{
								"astId": 16,
								"contract": "contracts/CryptoKids..sol:CryptoKids",
								"label": "firstName",
								"offset": 0,
								"slot": "1",
								"type": "t_string_storage"
							},
							{
								"astId": 18,
								"contract": "contracts/CryptoKids..sol:CryptoKids",
								"label": "lastName",
								"offset": 0,
								"slot": "2",
								"type": "t_string_storage"
							},
							{
								"astId": 20,
								"contract": "contracts/CryptoKids..sol:CryptoKids",
								"label": "releaseTime",
								"offset": 0,
								"slot": "3",
								"type": "t_uint256"
							},
							{
								"astId": 22,
								"contract": "contracts/CryptoKids..sol:CryptoKids",
								"label": "ammount",
								"offset": 0,
								"slot": "4",
								"type": "t_uint256"
							},
							{
								"astId": 24,
								"contract": "contracts/CryptoKids..sol:CryptoKids",
								"label": "canWithdraw",
								"offset": 0,
								"slot": "5",
								"type": "t_bool"
							}
						],
						"numberOfBytes": "192"
					},
					"t_uint256": {
						"encoding": "inplace",
						"label": "uint256",
						"numberOfBytes": "32"
					}
				}
			},
			"userdoc": {
				"kind": "user",
				"methods": {},
				"version": 1
			}
		}
	}
}